:100000000C9405010C944C010C944C010C944C0183
:100010000C944C010C944C010C944C010C944C012C
:100020000C944C010C944C010C944C010C940D1C40
:100030000C94BD1C0C9463170C944C010C944C0153
:100040000C944C010C944C010C944C010C94CE1764
:100050000C944C010C944C010C944C010C944C01EC
:100060000C944C010C944C010C944C010C944C01DC
:100070000C944C0114001A000800150017001C0015
:1000800018000C00120013000400160007000900FD
:100090000A000B000D000E000F0033001D001B00B6
:1000A0000600190005001100100036003700380066
:1000B000E000E300E200000000002C002A00E6005F
:1000C000E400E100140345006E0064006500610077
:1000D00076006F0075007200000022035300630079
:1000E00061007400740065007200650064004400E3
:1000F000720069006600740065007200000004036D
:10010000090409023B00020100A0FA0904000001F1
:1001100003010100092111010001224000070581AE
:100120000308000A0904010001030000000921116D
:10013000010001227B000705820320000A12011042
:1001400001000000088164A2B40100010200010561
:10015000010902A10185020901A10005091901296E
:10016000081500250195087501810205010930096E
:10017000311581257F95027508810609381581257D
:100180007F950175088106050C0A38021581257FC7
:10019000950175088106C0C005010980A10185038C
:1001A00019012AB700150126B700950175108100C5
:1001B000C0050C0901A101850419012AA00215013D
:1001C00026A002950175108100C005010906A10154
:1001D000050719E029E71500250195087501810239
:1001E0009501750881010507190029FF150026FFF3
:1001F0000095067508810005081901290595057502
:10020000019102950175039101C011241FBECFEF2A
:10021000D4E0DEBFCDBF04B603FE27C08091430209
:1002200090914402A0914502B09146028730904BD4
:10023000A740B04BD1F410924302109244021092A6
:1002400045021092460214BE84B7877F84BF0FB662
:10025000F894A89580916000886180936000109266
:1002600060000FBEE0E0F8E3099511E0A0E0B1E026
:10027000ECE8FEE302C005900D92A038B107D9F773
:1002800022E0A0E8B1E001C01D92A334B207E1F77B
:100290000E9469190C94FC1E0C94000081E00895E2
:1002A00081E008950C94500108950C9454011F931B
:1002B000CF93DF9300D000D00F92CDB7DEB7498344
:1002C0005A836B833091AD0189819A8131111DC0B0
:1002D0006623B9F02223A9F00E948514182F682FF5
:1002E00089819A810E94271469817A81812F0F90D8
:1002F0000F900F900F900F90DF91CF911F910C9462
:100300002B020E945914182FEFCF0E948514698187
:100310007A81EDCFFC01262F40815181628173816A
:1003200084810C945701CF93DF93D82FC92F60E0BD
:100330000E948A016D2F7C2FDF91CF910C94550183
:100340000E945D040E941C020C9496040C94990473
:1003500008950E94CC0E0E94A8012FEF84E39CE038
:10036000215080409040E1F700C000000C94F2174B
:100370000F931F93CF93DF938C0161E00E948A015A
:10038000EC01B8010E9452018823A9F1B801CE0105
:100390000E94BA08882379F1B801CE010E940F09A2
:1003A000882349F1B801CE010E94E709882319F199
:1003B000F8018281882361F0CB35FDE5DF0721F16B
:1003C00070F4C115ECE5DE07A1F0CF3DDC45C9F0C6
:1003D000C801DF91CF911F910F910C944E01CC3544
:1003E0008DE5D807A1F0CD35DD4591F70E94341594
:1003F000EFCF0E94A90180E0DF91CF911F910F9173
:1004000008950E94B116F7CF0E943D15E1CF0E94DA
:100410004015DECF08950C940A0281E00895CF9331
:10042000C82F0E940D02882319F0C1FF03C0299A2A
:10043000CF9108952998FCCF219A29980895CF93B8
:10044000C82F0E940B028C2FCF910C940F0290E0CA
:1004500080E008950895282F362F872F90E06AE0D6
:1004600070E00E947B1EFC01E30FF11D822F90E0E3
:1004700068E270E00E947B1EE80FF91FEE0FFF1F7D
:10048000EC58FF4F859194910895FC01EE0FFF1FEA
:10049000EC53FF4F859194910895CF93DF930E9481
:1004A0002B020E946A03EC01811520E5920708F0F7
:1004B00044C0C11580E4D80708F0B7C0C03ED105DC
:1004C000F0F4C03CD10508F0A3C0C83AD10580F4CF
:1004D000C53AD10508F08EC0C130D10529F0CE0152
:1004E0000497813A910540F4CE01DF91CF910895B0
:1004F000CF3BD10509F081C0D0E0C0E0F5CFC115F8
:1005000020E2D20770F4CF3FD10509F068F7C83E6A
:10051000D10550F3CE018D5E9109D065439720F34C
:10052000EBCFC11580E3D80708F479C0CE01992735
:10053000D3FD78C0EC01D06CD7CF8115954570F50F
:10054000C11584E5D80708F0A7C0C11523E5D20777
:1005500078F4C11582E5D80708F089C0C11521E5F6
:10056000D20708F465C0DC2FCC27C16FD06ABCCF9E
:100570009E012370332781E090E002C0880F991F0D
:100580002A95E2F7C695C695D0E0B5E0CC0FDD1F01
:10059000BA95E1F7C82BD92BDA68A6CFC1158AE541
:1005A000D807B0F4C11529E5D20708F085C0C115F8
:1005B00086E5D80708F475C0CE0198558F3F9105A0
:1005C00011F008F099CFDC2FCC27C06FD06A8CCF08
:1005D000CE0190568115904208F08ECF8D2F8F71ED
:1005E0000E94020490E0982F882788279F718C2B07
:1005F000EC0160C0A497D06477CFC85AD0E0CC0F8C
:10060000DD1FCB5EDE4F0990D881C02DD4646CCF46
:10061000CE01805C91090E944502EC0165CFCE01BC
:100620009F70F9CFEC01D86C5FCFDF70D06A5CCFE0
:100630009E01E4E036952795EA95E1F723708C2F2B
:1006400086958695837090E0F5E0880F991FFA955E
:10065000E1F7922BC37021E030E002C0220F331F7C
:10066000CA95E2F7822B932BEC01DC683DCF9E010B
:100670002370332781E090E002C0880F991F2A95EC
:10068000E2F7C695C695D0E075E0CC0FDD1F7A95F0
:10069000E1F7C82BD92BE9CFDC2FCC27C46FD06A68
:1006A00023CF8C2F0E940204C82FD0E0DC2FCC2750
:1006B000CC27DF71D06218CF8C2F8F700E9402047C
:1006C00034E0D695C7953A95E1F7CF709C2FEC01B1
:1006D000D0690ACF803E910599F1C8F48133910524
:1006E00009F476C048F48932910509F46AC08A3267
:1006F000910509F474C0089589339105D1F08238C9
:100700009105B9F08533910509F454C00895843EEC
:10071000910599F138F4823E9105F9F0833E9105F7
:1007200009F10895863E910599F1873E9105B9F149
:100730000895209120022370A1F080EE90E00895AA
:100740002091200220FD52C03091210230FF09C0CB
:1007500024FF4FC090E080E004C02091200222FDE1
:10076000F7CF08952091200222FD46C0309121024A
:1007700030FDE3CF24FFF5CFEDCF2091210221FF03
:10078000F0CF8091200284FDE5CF87EE90E00895C0
:100790002091200223FFE5CF24FDDCCFF6CF20916E
:1007A000200223FD2CC03091210231FFE3CF84EEE3
:1007B00090E008952091200225FFD3CF89E290E0B8
:1007C00008952091200225FFCCCF85E390E0089585
:1007D0002091200226FFC5CF8AE290E00895209163
:1007E000200226FFBECF81E390E0089589E390E0E8
:1007F000089583EE90E0089582EE90E0089586EEED
:1008000090E008959091200292FF06C0282F287151
:100810002830F9F4877F846093FF06C0282F287161
:100820002831F1F4877E84612091210220FF06C0E7
:10083000382F38713830D9F4877F816021FF06C0A6
:10084000282F28712831D1F4877E816194FD877E1D
:100850000895282F24712430F9F68B7F8860DCCF2F
:10086000282F2471243101F78B7E8861DDCF382F4A
:100870003171313019F78E7F8860E0CF282F2171D8
:10088000213121F78E7E8861E1CF0C9406160E94FB
:1008900004058FE39CE90197F1F700C000000E9476
:1008A000040580E00E949B0480FF04C00E94450470
:1008B0000C94F21708950C944704CF93DF9300D063
:1008C00000D0CDB7DEB70E940C16811102C00E9485
:1008D000B1160E941716809314020E941F1690935F
:1008E0002102809320020E945B040E941B16282F85
:1008F00030E050E040E0CA01B9010E9463128091EB
:10090000FF0190910002A0910102B091020289833F
:100910009A83AB83BC83BC01CD010F900F900F90E5
:100920000F90DF91CF910C94DF1208950C949504F1
:1009300008950C949804E82FF0E0EE0FFF1FE65D99
:10094000FD4F808191810895089580EA8A95F1F79D
:10095000089500C008950C94A504F894E82FE2953A
:10096000EF70F0E041A18F7021E030E0B90102C0EA
:10097000660F771F8A95E2F7CB01962F9095942307
:1009800091A392A1892B82A378940895CF93DF93AA
:1009900086E60E94AD0482E30E94AD0484E60E94D4
:1009A000AD0481E30E94AD04C3E4D1E089910E94CB
:1009B000AD0481E0CD34D807C9F71092230210921C
:1009C000220210922B0210922A02109225021092FB
:1009D000240210922D0210922C02109227021092E3
:1009E000260210922F0210922E02109229021092CB
:1009F0002802109231021092300284E00E94840595
:100A0000DF91CF910C94A001AF92BF92DF92EF9251
:100A1000FF920F931F93CF93DF93CDE4D1E002E2D7
:100A200012E0D12CEE24E394F12C8991F894E82F74
:100A3000E295EF70F0E021A18F70A70102C0440F92
:100A4000551F8A95E2F7CA01922F982B91A392A184
:100A50008095892382A378940E94A904A3E4B1E03D
:100A600030E020E0B12CA12C4D91E42FE295EF7005
:100A7000E05EF0E0808190E04F7002C09595879530
:100A80004A95E2F780FD3BC0C701022E02C0880FE5
:100A9000991F0A94E2F7A82AB92A2F5F3F4F2A30FC
:100AA000310511F7FE01319780810E94AD040E944B
:100AB000AB04F80180819181A816B90619F1B182C1
:100AC000A08281E0D82A0E5F1F4FF1E0C135DF0719
:100AD00009F0ABCF2D2D44E06AE272E082E292E0B1
:100AE0000E9485050E94A6018D2DDF91CF911F9157
:100AF0000F91FF90EF90DF90BF90AF90089580E04E
:100B000090E0C9CF80E0DECF0895FF920F931F934E
:100B1000CF93DF93F82E092F162FD72FC42F222320
:100B200049F081E0809384010E94931790938301A0
:100B300080938201809184018823A1F080918201B9
:100B4000909183010E94BF17069760F0EF2DF02F60
:100B5000A12FBD2F90E080E0D0E08C179D0744F0DE
:100B600010928401DF91CF911F910F91FF90089512
:100B7000219131912D933D930196EFCF80918B017F
:100B800080FF14C08091050190E065E070E00E9454
:100B90007B1EBC01759567957595679560387105E5
:100BA000C8F561157105C1F1862F089581FF0BC04D
:100BB0008091050190E065E070E00E947B1EBC0121
:100BC00075956795EBCF82FF09C08091050190E094
:100BD00065E070E00E947B1EBC01E0CF80918A013D
:100BE0008823A9F0209104016091050170E082172B
:100BF00010F0CB01EDCF90E00E947B1E65E070E02D
:100C00000E947B1E622F70E00E948C1EC7CF65E0A1
:100C100070E0CACF8FE7089581E0089580918B013D
:100C200080FF0CC06091010170E075956795759526
:100C300067956115710559F1862F089581FF06C0EA
:100C40006091010170E075956795F3CF60910101A6
:100C500070E082FD0CC0609189016623A9F02091AB
:100C600000018091010190E0621730F0BC01603812
:100C70007105F8F28FE7089570E00E947B1E622FE5
:100C800070E00E948C1EF3CF61E070E0D5CF81E070
:100C90000895E3E1E80FE331E0F5F0E0E250F14ED2
:100CA0000C94A01E0E94BE05819580938F0108952B
:100CB0000E94BE05FACF0E94BE05819580938E01E9
:100CC00008950E94BE05FACF0E940E0680939001FF
:100CD00008950E940E068195F9CF0E940E06819517
:100CE0008093910108950E940E06FACF815F990BBF
:100CF00021E030E001C0220F8A95EAF780918D0152
:100D0000822B80938D01089580918B018160809367
:100D10008B01089580918B018260F9CF80918B01C6
:100D20008460F5CF40918E018D3E59F480918F0102
:100D300087FF0DC010928F0141110BC010928A01E4
:100D400008C08E3E81F480918F0118169CF34423D5
:100D500081F08091900190919101892B09F05AC006
:100D60001092890108958F3E49F447FFF0CF109209
:100D70008E0180918F018111ECCFE0CF803F19F47B
:100D80001416ACF3E4CF90919001893F29F4191621
:100D9000F4F610929001DBCF8A3F19F497FFD7CF7A
:100DA000F8CF909191018B3F29F497FFD0CF10920B
:100DB0009101CDCF8C3F19F41916CCF3C8CF9FE029
:100DC000980F983090F4815F990B21E030E0B901E1
:100DD00002C0660F771F8A95E2F7CB01809590914C
:100DE0008D01892380938D01B2CF8D3F31F48091A5
:100DF0008B018E7F80938B01AACF8E3F21F480914F
:100E00008B018D7FF7CF8F3F09F0A1CF80918B01B0
:100E10008B7FF0CF08950E94931720918E0130911F
:100E20008F01232B21F080938701909388012091DB
:100E3000900130919101232B21F0809385019093B3
:100E400086018CE891E00C942D0ACF92DF92EF920C
:100E5000FF920F931F93CF93DF9300D000D000D069
:100E6000CDB7DEB726E0ECE8F1E0CE010196DC017B
:100E700001900D922A95E1F7C0908E01D0908F01DC
:100E8000E0909001F090910110928E0110928F01EC
:100E900010929001109291012C2D2D298C0191F02E
:100EA00080918701909188010E94BF17FC012091D9
:100EB0008A01222309F440C0809106018E171F0683
:100EC00008F449C08E2D8F2991F080918501909171
:100ED00086010E94BF17FC0120918901222309F499
:100EE0007DC0809102018E171F0608F486C0809194
:100EF0008E0190918F01892B90919001892B909177
:100F00009101892B11F00E940B0786E0F801ACE8F3
:100F1000B1E001900D928A95E1F726960FB6F8940C
:100F2000DEBF0FBECDBFDF91CF911F910F91FF901C
:100F3000EF90DF90CF9008958091070190E06AE0F4
:100F400070E00E947B1E8E179F0708F0BBCF2F5FBB
:100F500020938A0102C02F3FD1F7CC2051F00E948C
:100F6000BE056FEF1C140CF461E00E94721E8093AA
:100F70008E01DD2051F00E94BE056FEF1D140CF4B0
:100F800061E00E94721E80938F0180918E01882300
:100F900009F498CF20918F01222309F493CF082ED2
:100FA000000C990B65EB70E00E947B1E992371F099
:100FB00090938E01822F220F990B65EB70E00E94B7
:100FC0007B1E992339F090938F017CCF81E0809331
:100FD0008E01F0CF81E080938F0174CF8091030167
:100FE00090E06AE070E00E947B1E8E179F0708F079
:100FF0007ECF2F5F2093890102C02F3FD1F7EE20D3
:1010000051F00E940E066FEF1E140CF461E00E9476
:10101000721E80939001FF2051F00E940E066FEF28
:101020001F140CF461E00E94721E80939101809164
:10103000900120919101882309F459CF222309F4CA
:1010400056CF082E000C990B65EB70E00E947B1EBA
:10105000992371F090939001822F220F990B65EBE9
:1010600070E00E947B1E992339F0909391013FCF4D
:1010700081E080939001F0CF81E08093910137CFA0
:1010800086E0ECE8F1E0DF011D928A95E9F7109225
:101090008A011092890110928B0108950F931F937A
:1010A000CF93DF93C42FD22FFC0182818823C9F014
:1010B000409394010E94931790939301809392011F
:1010C00080E28C0F883008F050C0C77081E001C00A
:1010D000880FCA95EAF7DF91CF911F910F910C9479
:1010E000130C10919401141335C0809192019091CA
:1010F00093010E94BF17883C910560F5C0E2CD0FB7
:101100001D17B9F080E2810F883040F4177081E03C
:1011100001C0880F1A95EAF70E941A0CC83048F4EB
:1011200081E09D2F977001C0880F9A95EAF70E9481
:10113000130C802F0E940B0CC830B8F4D77081E0DC
:1011400001C0880FDA95EAF7DF91CF911F910F91D7
:101150000C941A0C80E28C0F883038F4C77081E050
:1011600001C0880FCA95EAF7EFCFDF91CF911F91A9
:101170000F9108950F939C01CB01243F4CE5340758
:10118000A1F190F4293DFCE53F0749F12A3D4CE5EA
:101190003407E9F1283D3C45C1F0FC0182818823F8
:1011A000E1F11092940119C0263FFCE53F0719F1C7
:1011B000273F4CE5340729F1253F3C4571F707E20D
:1011C00025EE44EE65EF7CE505C006E221EE41EE3A
:1011D00068ED7CE50E944E0880E00F91089507E2DB
:1011E00025EE45EE69ED7CE5F5CF06E221EE40EE19
:1011F00064EF7CE5EFCF06E221EE42EE66EF7CE5A0
:10120000E9CF07E225EE46EE67EF7CE5E3CF08E2A3
:1012100021E045EE6AED7CE5DDCF81E0DECFCF93C6
:10122000DF93EC01FB018281882309F4CEC0C63133
:10123000FCE5DF07E0F4C2309CE5D907F0F00E943E
:101240001F169093210280932002C631ECE5DE0741
:1012500020F5C230FCE5DF0798F4809120029091E0
:1012600021020E942D160E94CC0E80E006C09E0135
:101270002B5F3C452930310510F3DF91CF91089564
:10128000FE01E350FC45809120028160E331F105CD
:10129000B0F4EF5EF04E0C94A01ECE018B5F9C4527
:1012A0000997D8F6FE01EC5FFC45E830F10590F4B3
:1012B000EC5DF04E0C94A01E809120028260809321
:1012C0002002CBCF809120028460F9CF8091200250
:1012D0008860F5CF80912102816080932102BDCF8B
:1012E000809121028260F9CF809120028061E7CF56
:1012F000809120028062E3CF809120028064DFCF62
:101300000E94CC0E809120028068D9CF809120026B
:101310008C60D5CF809121028360DFCF8091200245
:101320008E7FCDCF809120028D7FC9CF809120020A
:101330008B7FC5CF80912002877FC1CF8091210212
:101340008E7FCBCF809121028D7FC7CF80912002ED
:101350008F7EB5CF809120028F7DB1CF809120020A
:101360008F7BADCF0E94CC0E809120028F77A7CFCC
:1013700080912002837FA3CF809121028C7FADCF0B
:101380008091200282FB992790F921E0922790FB1F
:1013900082F990FB83F993CF80912102982F909549
:1013A00091708E7F892B90FB81F997CF0E94CC0E94
:1013B00090912002892F97FB87F9805880CF81E098
:1013C0000E94B3164ACF80E0FBCF81E056CFCF9387
:1013D000DF93EB0186319C4511F50E9443159A81FC
:1013E000992399F08A7A91E009F490E0909395011D
:1013F000811109C089E20E94FD140E94961580E0C7
:10140000DF91CF91089585E3F6CF80919501811109
:1014100004C089E20E940415F0CF85E3FBCF81E090
:10142000EFCF90939B0180939A010895E0919A01E8
:10143000F0919B01309721F00190F081E02D09940B
:1014400080E00895E0919A01F0919B01309721F09E
:101450000280F381E02D09940895DC01E0919A0166
:10146000F0919B01309739F082E08C930480F581F4
:10147000E02DCD01099408952091980130919901B2
:101480002817390771F09093990180939801E091A2
:101490009A01F0919B01309721F00680F781E02DB1
:1014A00009940895209196013091970128173907E2
:1014B00071F09093970180939601E0919A01F091D9
:1014C0009B01309721F00084F185E02D0994089567
:1014D0000E949F176093A9017093AA018093AB01AA
:1014E0009093AC016093A5017093A6018093A7012E
:1014F0009093A8010895089508950C947B0A089587
:101500000C947F0A84E096E10E9416180E947C0ADF
:101510000C947D0A81E008950C948A0A0895089538
:101520000E948E0A0C948F0A0E948A170E94C60499
:101530000C94800A8F929F92AF92BF92CF92DF92CB
:10154000EF92FF920F931F93CF93DF9300D000D0C1
:101550000F92CDB7DEB70E94040581110E94680A80
:101560005DE9852E51E0952E10E000E0A02E802F41
:101570000E949B047C01F401C190D1904F01C816D8
:10158000D90609F45BC08091140281FD0E94A40475
:10159000C6018E259F25B12CCC24C394D12C9C014F
:1015A0002C213D21232B09F443C00E948C0A88235F
:1015B000A9F0B982AA82EC20FD2081E0EF2809F48D
:1015C00080E08B830E9493178160782F9D838C83AA
:1015D00049815A816B81892F0E94470B000F111F8F
:1015E000F801E356FE4F808191818C259D259183E2
:1015F00080830E9425070E94160A90919C018917FA
:10160000A1F10E94160A80939C010F900F900F90F9
:101610000F900F90DF91CF911F910F91FF90EF905E
:10162000DF90CF90BF90AF909F908F900C941F024F
:10163000B394CC0CDD1CFAE0BF12B1CF0F5F1F4F8B
:101640000430110509F092CF8FEF89838A831B82C2
:101650000E9493178160782F9D838C8349815A81E2
:101660006B81892F0E94470BC4CF0F900F900F9072
:101670000F900F90DF91CF911F910F91FF90EF90FE
:10168000DF90CF90BF90AF909F908F900895CF93B1
:10169000DF93CDB7DEB72B970FB6F894DEBF0FBE42
:1016A000CDBF4F83588769877A878B8761110E94E6
:1016B00065151E8285E0FE013796DE0111960190C8
:1016C0000D928A95E1F749815A816B817C818D81E8
:1016D0009E812B960FB6F894DEBF0FBECDBFDF9173
:1016E000CF910C943711FC01808191810C94C71427
:1016F000CF93C82F882309F446C08CEF8C0F813A12
:10170000A0F46C2F80910801909109010E94CA16E3
:10171000882329F08C2F0E9404150E9496158C2F87
:101720000E94FD14CF910C94961580E28C0F8830A6
:1017300048F4C77081E001C0880FCA95EAF70E949B
:101740004615F0CF8BE58C0F833038F42C2F2452C4
:10175000330BC901CF910C943C0AE8E5EC0FE7315B
:1017600050F4F0E0EE0FFF1FEF5AFE4F80819181A1
:10177000CF910C94520ACD3E30F08C2F0E94490636
:10178000CF910C940B07CF910895882361F19CEFC2
:10179000980F913A20F40E9404150C94961590E24B
:1017A000980F983050F4877091E001C0990F8A9596
:1017B000EAF7892F0E944C15F0CF9BE5980F9330E4
:1017C00020F490E080E00C943C0A98E5980F973163
:1017D00020F490E080E00C94520A8D3E20F00E94AC
:1017E00092060C940B0708951F93CF93DF93182F45
:1017F000EB010E94780B209731F4812FDF91CF917C
:101800001F910C94C50B8FE99FE00197F1F700C081
:1018100000002197F0CF70E060E0893311F460E5BB
:1018200070E00C94F40B882321F00E9446150C9470
:1018300096150895882321F00E944C150C94961556
:101840000895AF92BF92CF92DF92EF92FF920F93E3
:101850001F93CF93DF9300D000D00F92CDB7DEB7A8
:101860006C016D837983FC011281058102950F70F3
:101870000E941B15E82E8823A1F0E12E112389F088
:101880008981807F803429F08D81805EE12C8830D1
:1018900040F082E00E94E8150E941B1591E0E82EBE
:1018A000E926A980A2949FE0A922B12CF501E45D6C
:1018B000F04E0C94A01E09810F70F981F07F11F099
:1018C0000295007F1123B1F0002361F08D81805ECD
:1018D000883018F01D81111109C0802F0E94461513
:1018E0000E9496158D810E94780B15C0802F0E9452
:1018F0005715F6CF8D810E94C50B002361F08D81B5
:10190000805E883018F01D81111133C0802F0E9435
:101910004C150E94961598E0A91AB108E4E0AE169D
:10192000B10420F40E94160A0E941F02EE2009F45E
:10193000CEC10E94171580FDCAC1F60112820E9415
:1019400011150E941713C6010E948E0E0E941115D8
:101950000F900F900F900F900F90DF91CF911F91EC
:101960000F91FF90EF90DF90CF90BF90AF900C94CD
:101970004813802F0E945D15CCCF29812F70F22E45
:101980003981307F303219F0F29480EFF8228D8166
:10199000882369F0813049F1112391F1002351F13D
:1019A000F601858180FF9ECF8F70858323C0112330
:1019B00081F0011106C00E9479158F290E94130C35
:1019C000AACF0130C1F70E9479158F290E947F1597
:1019D000A2CF011106C00E948C158F2D0E941A0CF7
:1019E0009ACF013009F497CFF6CF112329F00630B2
:1019F00008F091CF8F2DE2CF053008F08CCFEDCFDE
:101A0000002359F30D81093349F41FEF27EE33E02A
:101A1000115020403040E1F700C000008D810E944D
:101A2000C50B79CF898186958695837069F0813061
:101A300009F071CF8D8199819370111102C090E0EE
:101A400080E00E94520A67CF8D81998193701111B5
:101A500002C090E080E00E943C0A5DCF8D8111239E
:101A600029F00E9449060E940B0755CF0E9492065A
:101A7000FACF8981837009F050C011114CCF2D81AC
:101A8000229526952770220F220F4D814F7050E02E
:101A900070E060E0022E04C0440F551F661F771FE0
:101AA0000A94D2F70D8180E090E0DC0104FF0FC0C2
:101AB0008FE090E0A0E0B0E004C0880F991FAA1F5B
:101AC000BB1F2A95D2F780959095A095B095198166
:101AD0001695169513701D838C019D01042B152BF3
:101AE000262B372B09831A832B833C831D81698125
:101AF0007A818B819C81123051F0133059F0113072
:101B000019F00E948D1207CF0E94651204CF0E9427
:101B1000B51201CF0E946312FECE112309F448C012
:101B2000098100FFF8CE2D81229526952770220F7E
:101B3000220F4D814F7050E070E060E0022E04C033
:101B4000440F551F661F771F0A94D2F70D8180E05E
:101B500090E0DC0104FF0FC08FE090E0A0E0B0E077
:101B600004C0880F991FAA1FBB1F2A95D2F7809522
:101B70009095A095B09519811695169513701D83B3
:101B80008C019D01042B152B262B372B09831A83DF
:101B90002B833C831D8169817A818B819C811230EA
:101BA00071F0133079F0113039F00E94D613B3CEB2
:101BB000198111FFB0CEB7CF0E94AE13ACCE0E94F8
:101BC000FE13A9CE0E94E112A6CE09810F700983EF
:101BD000112329F0802F0E9417138D81EFCE8D8164
:101BE0000E941A0C89810E94481395CE2D81223FB4
:101BF000A1F160F4203FE1F0213F41F1112309F40C
:101C000045C001116FCE89818F7124C03D81333F62
:101C100049F1343F99F7112379F109810F71098353
:101C2000802F0E94171363E089810E94CC1573CE28
:101C3000112341F0053008F06ECE89818F710E942A
:101C40007D1369CE063008F066CEF7CF89818F719B
:101C5000112349F20E9417135ECE89818F711123DF
:101C6000C9F3C1CF112329F089818F710E94F2122B
:101C700052CE0E94ED124FCE81E00E94E815023054
:101C800008F449CE82E00E94E81545CE002361F0B9
:101C90001D81193309F0C2CE2FEF37EE83E02150BA
:101CA00030408040E1F7B8CE89818F719CCF498167
:101CB0004F706D81C6010E9427020E94D5112BCE64
:101CC00049814F706D81C6010E942A0224CE0F9077
:101CD0000F900F900F900F90DF91CF911F910F9168
:101CE000FF90EF90DF90CF90BF90AF9008950F934B
:101CF0001F93CF93DF93EC01688179818A810E94E1
:101D0000D3148C010E9426140E946212B801CE01E5
:101D1000DF91CF911F910F910C94210CCF93DF9302
:101D2000EC01988189812B813C81232B19F0892337
:101D30008F3F59F4DF91CF910895CE010E94770E25
:101D4000CE01DF91CF910C949301CE010E94B80196
:101D50008111F3CF0E941B15882361F38A818823A8
:101D600049F382E0DF91CF910C94E81590E080E098
:101D70000E943C0A90E080E00E94520A0E94651591
:101D80000E9476150E9496150E9440080C940B073D
:101D90000E940B150C94B60E0E9454150C94C80E9C
:101DA000282F892F82958F70903C80F48A30B0F470
:101DB000843020F4823090F480E008958630E1F79A
:101DC00081E0283E88F0213FB9F70EC08C3011F039
:101DD0008F3091F793FB882780F9089581E0203FA9
:101DE00039F018F4283E40F70895243F29F7FCCF36
:101DF00008950E94C7140C94D00ECF93DF9300D0A7
:101E000000D00F92CDB7DEB70F900F900F900F90CC
:101E10000F90DF91CF910895CF93DF9300D000D042
:101E200000D0CDB7DEB726960FB6F894DEBF0FBE52
:101E3000CDBFDF91CF910895CF93DF93C091AE01D5
:101E40008091AF018C1303C0DF91CF910895D0E052
:101E5000CE0166E070E00E947B1EFC01E055FE4F63
:101E60004081518162817381848195810E940C0F30
:101E70002196C770E5CF4091E0015091E10160915A
:101E8000E2017091E3018091E4019091E5010C94ED
:101E90000C0F1F93CF93DF938091E501807FA1F416
:101EA0008091E201882381F02091AE01D091AF01B1
:101EB000C091E0014091E101A091E301B091E40102
:101EC000142F1C23D21304C0DF91CF911F910895CA
:101ED00030E0109711F01F3F21F42F5F3F4F277024
:101EE000F1CFC90166E070E00E947B1EFC01E05565
:101EF000FE4F81814813F1CF80818C13EECF828118
:101F00008111EBCF838194818A1B9B0B883C9105C7
:101F100020F78091E5018F7080618093E501C90110
:101F200066E070E00E947B1EFC01EB54FE4F908146
:101F30009F709061908380EE91E00E948E0EDF9101
:101F4000CF911F910C941C0FAF92BF92CF92DF9252
:101F5000EF92FF920F931F93CF93DF93CDB7DEB72E
:101F60002B970FB6F894DEBF0FBECDBF8C0185E076
:101F7000F801DE01179601900D928A95E1F7D801DC
:101F80001296EC901297EC9111964C911197139632
:101F9000CD90DC9080EEA82E81E0B82E9091E001EB
:101FA0002091E1016091E3017091E40161157105F7
:101FB00029F0892F82238F3F09F046C1EE2009F4D2
:101FC00052C18F8198850E94F90EF82E882309F45A
:101FD0004AC186E0F801A0EEB1E001900D928A9529
:101FE000E1F780EE91E00E94730B0E94490F29C136
:101FF0008091E501382F307F683C710508F07FC083
:102000003111BAC0FE2C421324C09E1322C0E1102D
:1020100020C08F7080618093E5010E943B0F80EEAD
:1020200091E00E948E0E8091E501F80185838F2D4D
:102030002B960FB6F894DEBF0FBECDBFDF91CF91C8
:102040001F910F91FF90EF90DF90CF90BF90AF90D6
:102050000895CD2829F0842F8E238F3F09F089C061
:1020600080E0F82FF170DF2E2091AE01F091AF01EA
:1020700080FD21C0EE20D9F28091E501816080933E
:10208000E501F12CD4CF30E0C90166E070E00E9498
:102090007B1EDC01A055BE4F11968C911197481301
:1020A00007C08C91E81304C012968C918E11E2CF78
:1020B0002F5F3F4F27702F13E6CF8F8198850E94A7
:1020C000C714292F22952F70903268F0225F2F704D
:1020D000223080F49F7059F0D80115969C91907F22
:1020E00031F4D12C0AC09F7011F08823D1F3805EA7
:1020F0008830B8F3C8010E948E0EFD2C98CF3111A4
:102100006EC04F81588569857A858B850E94FD0E4A
:1021100080EE91E00E948E0E86E0D5011D928A9598
:10212000E9F70E943B0FADCF86E0F801A0EEB1E0E9
:1021300001900D928A95E1F77ACF8F8198850E9460
:10214000F90E81113DC08091E50181608093E50128
:10215000C8010E948E0E6BCF4F81588569857A85A4
:102160008B850E94FD0E86E0D5011D928A95E9F7C8
:1021700068C081E08E2575CF421306C09E1304C04F
:10218000F801EE2009F451C08F8198850E94F90E64
:10219000882309F468C0EE2009F465C08091E50148
:1021A000803270F02091E0013091E1013A8329837F
:1021B0001B82DD82CC828E83CE0101960E948E0E20
:1021C00086E0F801A0EEB1E001900D928A95E1F76A
:1021D0000E94490F0E943B0FFF24F39428CF421323
:1021E000D3CF9E13D1CFE110CFCFF8018583C801A3
:1021F0000E948E0E86E0D5011D928A95E9F717CFD1
:1022000042139BCF9E1399CF8091E50180FD8CCF27
:10221000982F907F09F488CFF8018583903F31F0A3
:10222000982F907F905F8F70892B8583C8010E94C3
:102230008E0E86E0F801A0EEB1E001900D928A9535
:10224000E1F70E943B0FF3CEF090E201D601A61B0E
:10225000B70BBD01F110CCCE683C710508F07CCF06
:10226000FE2CE110CDCFC8010E948E0EB5CFCF93CA
:10227000DF93CDB7DEB72C970FB6F894DEBF0FBE55
:10228000CDBF4F83588769877A878B879C87CE011C
:1022900007960E94A40F8823D1F08A859B85892BFD
:1022A00039F058854F81852F84238F3F09F076C000
:1022B0008091AE019091AF01891349C02C960FB661
:1022C000F894DEBF0FBECDBFDF91CF91089586E0B9
:1022D000FE013796DE01119601900D928A95E1F785
:1022E0009F8128858091AF014091AE016A857B85F1
:1022F000672BF1F292239F3FD9F290E09C012F5F70
:102300003F4F277033274217130671F40E94CC0EFB
:102310001092AF011092AE0186E0E0EEF1E0DF0135
:102320001D928A95E9F7C4CF66E070E00E947B1E9B
:10233000DC01A055BE4F86E0FE01319601900D9262
:102340008A95E1F72093AF010E941C0FB1CF90E076
:1023500066E070E00E947B1E80559E4F0E94A40F95
:10236000882309F4ABCF8091AE0190E066E070E085
:102370000E947B1EFC01E055FE4F4081518162812D
:102380007381848195810E940C0F8091AE0190E051
:102390000196877099278093AE018ACF69857A85E7
:1023A0008B859C850E940C0F83CFEF92FF920F9339
:1023B0001F93CF93DF938C01892B89F0F12CEE24AE
:1023C000E394E8012196F8018491843709F458C018
:1023D000A0F4823009F43FC048F48130D1F0DF919D
:1023E000CF911F910F91FF90EF9008959CEF980F60
:1023F0009037A8F70E94780B0AC0853709F44EC0C1
:102400009CE7980F903758F78F770E94C50B8E0185
:1024100016C00E5F1F4FFE01849190E2980F983016
:1024200060F48770FE2D01C0FF0F8A95EAF78F2FA9
:102430000E9468150E94961502C00E94780B8F2D8D
:10244000882309F4BECFEFE9FFE03197F1F700C030
:1024500000008150F5CF0E5F1F4FFE01849190E286
:10246000980F983050F48770FE2D01C0FF0F8A95A9
:10247000EAF78F2F0E946E15DDCF0E94C50BDFCFCC
:102480000E5F1F4FFE01C491CC23C9F28FE99FE07C
:102490000197F1F700C00000C150F6CF0E5F1F4F4B
:1024A000FE01F490CCCF08950C9453120E94541264
:1024B00060930302709304028093050290930602D6
:1024C0000C94B60E08950C945612CF93DF9300D05F
:1024D00000D0CDB7DEB769837A838B839C838091EC
:1024E000030290910402A0910502B0910602298195
:1024F0003A814B815C81282B392B4A2B5B2B29831A
:102500003A834B835C83CA01B9010F900F900F90FF
:102510000F90DF91CF910C945612CF93DF9300D0A0
:1025200000D0CDB7DEB769837A838B839C8380919B
:10253000030290910402A0910502B0910602298144
:102540003A814B815C81282339234A235B232983E9
:102550003A834B835C83CA01B9010F900F900F90AF
:102560000F90DF91CF910C945612CF93DF9300D050
:1025700000D0CDB7DEB769837A838B839C8380914B
:10258000030290910402A0910502B09106022981F4
:102590003A814B815C81282739274A275B27298389
:1025A0003A834B835C83CA01B9010F900F900F905F
:1025B0000F90DF91CF910C9456120C9453120C94FF
:1025C000DD120E94DF126093FF017093000280937E
:1025D0000102909302020C94B60E60E070E0CB0111
:1025E0000C94E1120F931F93CF93DF9300D000D090
:1025F000CDB7DEB741E050E060E070E08A019B01BA
:1026000004C0000F111F221F331F8A95D2F70983C0
:102610001A832B833C83C901B8010F900F900F9050
:102620000F90DF91CF911F910F910C94E1120F93B6
:102630001F93CF93DF9300D000D0CDB7DEB741E03A
:1026400050E060E070E004C0440F551F661F771F24
:102650008A95D2F78091FF0190910002A09101022A
:10266000B09102028A019B01082B192B2A2B3B2BCC
:1026700009831A832B833C83C901B8010F900F9003
:102680000F900F90DF91CF911F910F910C94E11259
:102690000F931F93CF93DF9300D000D0CDB7DEB759
:1026A00041E050E060E070E004C0440F551F661F39
:1026B000771F8A95D2F740955095609570958091D7
:1026C000FF0190910002A0910102B09102028A01E3
:1026D0009B01082319232A233B2309831A832B8375
:1026E0003C83C901B8010F900F900F900F90DF91BC
:1026F000CF911F910F910C94E1120F931F93CF93E1
:10270000DF9300D000D0CDB7DEB741E050E060E00D
:1027100070E004C0440F551F661F771F8A95D2F7DB
:102720008091FF0190910002A0910102B0910202FC
:102730008A019B01082719272A273B2709831A8327
:102740002B833C83C901B8010F900F900F900F901D
:10275000DF91CF911F910F910C94E112CF93DF93F2
:1027600000D000D0CDB7DEB769837A838B839C839A
:102770008091FF0190910002A0910102B0910202AC
:1027800029813A814B815C81282B392B4A2B5B2B89
:1027900029833A834B835C83CA01B9010F900F9060
:1027A0000F900F90DF91CF910C94E112CF93DF93B4
:1027B00000D000D0CDB7DEB769837A838B839C834A
:1027C0008091FF0190910002A0910102B09102025C
:1027D00029813A814B815C81282339234A235B2359
:1027E00029833A834B835C83CA01B9010F900F9010
:1027F0000F900F90DF91CF910C94E112CF93DF9364
:1028000000D000D0CDB7DEB769837A838B839C83F9
:102810008091FF0190910002A0910102B09102020B
:1028200029813A814B815C81282739274A275B27F8
:1028300029833A834B835C83CA01B9010F900F90BF
:102840000F900F90DF91CF910C94E1120895382FE3
:10285000892F262F6AE00E94721E830F982F97708F
:1028600041E001C0440F9A95EAF7869586958695D2
:1028700090E065E070E00E947B1EFC01EA51FE4F93
:1028800090E080E0622F70E05191DF0111979B0191
:10289000082E02C0369527950A94E2F721702195FB
:1028A0002527242325272C9301968530910561F750
:1028B0000895282F892F6AE00E94721E820FA82F88
:1028C000A77086958695869590E065E070E00E94F9
:1028D0007B1EFC01EA51FE4F50E040E080E0219178
:1028E00030E00A2E02C0369527950A94E2F721704F
:1028F0003327042E01C0220F0A94EAF7822B4F5F80
:102900005F4F4530510559F70895BF92CF92DF923E
:10291000EF92FF920F931F93CF93DF938C01C090A0
:10292000FF01D0900002E0900102F090020280913D
:10293000030290910402A0910502B0910602C82AF8
:10294000D92AEA2AFB2ACFE1D0E0BC2ED701C60162
:102950000C2E04C0B695A795979587950A94D2F743
:1029600080FD0EC0219788F7B12C8B2DDF91CF9180
:102970001F910F91FF90EF90DF90CF90BF9008953F
:10298000B8018C2F0E944D02019761F3EECFCF93D7
:10299000DF93D82FC92F0E9485146D2F7C2FDF91D4
:1029A000CF910C944D021F93CF93DF93162FD72F07
:1029B0009091AD01992339F0862F972FDF91CF9118
:1029C0001F910C94C714882391F0862F972F0E9493
:1029D0008514C82F682F812F9D2F0E942714612FE7
:1029E0007D2F8C2FDF91CF911F910C944D02862F5C
:1029F000972F0E945914C82FF2CF682F8091080199
:102A0000909109010C940417682F8091080190910E
:102A100009010C94061780910801909109010C940A
:102A20000817809107028595859585950895809171
:102A300007028770089590910702977081E009F46A
:102A400080E008959091210292FB222720F9281717
:102A500051F080FB92F99093210280912002909195
:102A600021020C942D1608958091210282FB882763
:102A700080F991E089270C94221581E00C942215AD
:102A800080E00C9422158091130208959091130216
:102A9000982B909313020895982F9095809113028C
:102AA0008923809313020895109213020895909140
:102AB0001202982B909312020895982F909580916E
:102AC000120289238093120208951092120208952F
:102AD00090911102982B909311020895982F909540
:102AE000809111028923809311020895109211029E
:102AF000089580910802089508950C947C15909192
:102B0000210292FD08C090910802981721F080934D
:102B100008020C947D15089580910802882329F0FD
:102B20001092080280E00C947D150895E091080150
:102B3000F0910901809113028083E0910801F091E6
:102B40000901808190911202892B8083E091080114
:102B5000F0910901808190911102892B80839091DD
:102B60000802992381F0E0910801F0910901808128
:102B7000892B808380910801909109010E94B816E9
:102B800081110E948C1580910801909109010C948B
:102B9000220A08950C94C915962F2091210222FD36
:102BA00010C0682F660F660F660F692B60930702CF
:102BB0000E941713809107028595859585950C9441
:102BC000CA150C9417131092070280E00C94CA15D2
:102BD000909107028095892380930702282F277000
:102BE00039F4282F082E000C330B9217130621F40A
:102BF0009091210292FF07C08595859585950E9449
:102C000048130C94E315089580E008956FEF7FEF6B
:102C100090E080E00C94E61E90E080E00E94C21EEE
:102C20009C0181E02A3E3E4F09F080E0089582E059
:102C300090E00C94BA1E83E090E00C94BA1ECF93FF
:102C400084E090E00E94BA1EC82F82E290E00E94C9
:102C5000BA1E982F8C2FCF910895CF93682FC92F2C
:102C600084E090E00E94C81E6C2F82E290E0CF9139
:102C70000C94C81EAB01BC018FE090E00C94DA1EEE
:102C8000AB01BC0183E190E00C94DA1E60E070E0DF
:102C9000CB010C94401660E070E0CB010E943A1624
:102CA0000C9446166AEE7EEF90E080E00E94E61EED
:102CB00060E082E090E00E94C81E60E083E090E067
:102CC0000E94C81E10920302109204021092050284
:102CD0001092060260E084E090E00E94C81E60E06E
:102CE00082E290E00E94C81E60E085E090E00E94D1
:102CF000C81E60E086E090E00E94C81E6FEF87E08B
:102D000090E00E94C81E40E050E0BA0188E090E0E8
:102D10000E94DA1E60E08DE090E00E94C81E40E054
:102D200050E0BA0188E190E00E94DA1E60E087E19D
:102D300090E00E94C81E40E050E0BA018CE190E0B3
:102D40000E94DA1E70E060E080E290E00E94E61EE1
:102D500040E050E0BA0188E190E00E94DA1E0C9455
:102D60004B160C945216682F8EE090E00C94C81EFF
:102D7000AC019C012E5F3F4F485F5F4F80E02417FE
:102D8000350709F40895F90191919F019923B9F349
:102D90008F5FF5CF9C01662351F0FC013296285FCE
:102DA0003F4F8191861729F0E217F307D1F780E0B2
:102DB000089581E008959C01FC0132968FEF90E028
:102DC0004191461751F08F3F19F4411101C0892FED
:102DD0009F5F9630A9F78F3F09F40895280F311DA2
:102DE00087FD3A95F901628308959C01FC013296B2
:102DF000285F3F4F8191861303C0DF0111971C921A
:102E0000E217F307B9F708950C94DB160C94F51646
:102E1000FC01329686E0DF011D928A95E9F708955C
:102E2000089508950C94111780913A02843049F165
:102E30000E94121780E00E941F021092150288E182
:102E400090E020E40FB6F894A895809360000FBE40
:102E50002093600083B7817F846083BF83B78160E4
:102E600083BF7894889583B78E7F83BF0FB6F8941D
:102E7000A895809160008861809360001092600046
:102E80000FBE08950895CF930E9410170E94040565
:102E90000E944217C0E08C2F0E949B04892B31F4C2
:102EA000CF5FC430C1F780E0CF91089581E0FCCFBF
:102EB00008950C9458170E94CC0E0E94160A0E9486
:102EC0001F020C9459171F921FB61F9211248F9343
:102ED0009F93AF93BF9380911502811113C080918E
:102EE000320290913302A0913402B09135024196A2
:102EF000A11DB11D8093320290933302A09334023E
:102F0000B0933502BF91AF919F918F911F901FBEDB
:102F10001F90189582E084BD93E095BD9AEF97BD10
:102F200080936E0008952FB7F894809132029091AB
:102F30003302A0913402B09135022FBF0895CF9390
:102F4000DF9300D000D0CDB7DEB78FB7F8942091D3
:102F5000320230913302409134025091350229837C
:102F60003A834B835C838FBF69817A818B819C819B
:102F70000F900F900F900F90DF91CF9108959C01CB
:102F80004FB7F8948091320290913302A0913402AD
:102F9000B09135024FBF821B930B089578941F9216
:102FA0001FB61F9211248F939F93AF93BF9380916D
:102FB000320290913302A0913402B0913502019611
:102FC000A11DB11D8093320290933302A09334026D
:102FD000B0933502BF91AF919F918F911F901FBE0B
:102FE0001F90189581E08093E00080E28093D800E4
:102FF0001092C9008FE19EE40197F1F700C0000034
:1030000087E090EBDC018093430290934402A0930D
:103010004502B093460288E19CE00FB6F894A8956B
:10302000809360000FBE90936000FFCF909381016A
:1030300080938001089580911E020895CF93DF93BD
:1030400000D00F92CDB7DEB790913A02943019F5C7
:1030500089836A837B8382E08093E9008FEF90917C
:10306000E800815095FD06C095ED9A95F1F70000B6
:103070008111F5CF8091E80085FF0DC050E040E060
:1030800063E070E0CE0101960E94241A8091E8006E
:103090008E778093E8000F900F900F90DF91CF9183
:1030A0000895BC0184E00C941E18BC0183E00C94CC
:1030B0001E1822E02093E9002FEF3091E800215004
:1030C00035FD06C035ED3A95F1F700002111F5CF39
:1030D0002091E80025FF0BC050E040E066E070E082
:1030E0000E94241A8091E8008E778093E80008956A
:1030F000CF93DF93D82FC92F81E08093E9008FEF22
:103100009091E800815095FD06C095ED9A95F1F7F4
:1031100000008111F5CF8091E80085FF16C050E0D6
:1031200040E068E070E08D2F9C2F0E94241A80916F
:10313000E8008E778093E80088E0ED2FFC2FA6E171
:10314000B2E001900D928A95E1F7DF91CF91089559
:1031500008950895089542E061EC81E00E94261BE5
:1031600042E261EC82E00C94261B80913C028930A3
:1031700089F148F4823009F49BC0833009F456C0C9
:10318000813041F008958A3009F482C08B3009F40F
:1031900068C0089580913B02813A09F046C0809151
:1031A000E800877F8093E80080913F029091400281
:1031B000892B61F468E086E192E070E00E94731A66
:1031C0008091E8008B778093E800089560E090E0BC
:1031D00080E0F3CF80913B02813239F580913F024C
:1031E00090914002029708F58091E800877F8093D4
:1031F000E8008091E80082FF14C08091F2008230E4
:1032000029F48091F1008B7F813021F48091F100CD
:1032100080931E028091E8008B778093E8000C94E5
:103220005A1B80913A028111E4CF089580913B02AC
:10323000813AD9F780913F0290914002892BA9F7FA
:103240008091E800877F8093E8008091E80080FF0C
:10325000FCCF809114018093F1008091E8008E777B
:10326000DCCF80913B02813201F780913F02909147
:103270004002892BD1F68091E800877F8093E80097
:103280000E945A1B80913D02809314010C94CC0E35
:1032900080913B02813249F68091E800877F8093DC
:1032A000E8000E945A1B80913E0280931F020895FD
:1032B00080913B02813A09F0B8CF8091E800877F86
:1032C0008093E8008091E80080FFFCCF80911F028E
:1032D000C2CF84B7877F84BF0FB6F894A89580913A
:1032E0006000886180936000109260000FBE80E8EB
:1032F00090E00FB6F89480936100909361000FBE48
:103300000E94820A0E94AA1B0E94FD1B8091E2007B
:1033100084608093E20078940E94581E0E94940A70
:103320008AE091E00E94110A80913A02853099F07A
:103330000E949A0A0E94900AF7CF0E941417809167
:103340003802882341F00E944317882321F00E940D
:103350000E1A0E94CC0E80913A02853071F30E94C1
:103360005B17E6CF0C94B419FC01CB01DA012F2FC7
:10337000332723303105D1F070F42130310509F4C1
:103380003EC02230310569F48BE390E022E031E069
:103390002D933C93089521323105E9F02232310515
:1033A00021F190E080E030E020E0F2CFCF019927DA
:1033B000E13059F08230910559F0EEEFF0E0892BC1
:1033C00081F7849190E09F01E3CFEAEDF0E0F9CF3F
:1033D000E4ECF0E0F6CF892BB9F06130710509F724
:1033E00089E090E02DE231E0D3CF892B91F061307C
:1033F0007105B9F68BE790E02FE431E0C9CF82E1A7
:1034000090E02DE331E0C4CF89E090E024E131E0A9
:10341000BFCF80E490E02AEC31E0BACF84E089BDF0
:1034200086E089BD09B400FEFDCF8091D8008F7D74
:103430008093D8008091E00082608093E0008091CA
:10344000E00081FDFCCF0895AF92BF92CF92DF9252
:10345000FF920F931F93CF93DF936C01EB018A01CF
:103460000E94791BF82E811123C00115110539F036
:10347000F80180819181C81BD90BC80ED91EB12CCF
:10348000A12C2097A9F08091E80085FD22C08091B1
:10349000E8008E778093E80001151105A1F0F8018E
:1034A000808191818A0D9B1D9183808385E0F82E18
:1034B0008F2DDF91CF911F910F91FF90DF90CF90D3
:1034C000BF90AF9008950E94791B8823D1F2F82E07
:1034D000EFCFF60181916F018093F1002197FFEF0B
:1034E000AF1ABF0ACECFFC01CB012091410230912F
:1034F00042022617370790F0009729F42091E80040
:103500002E772093E80040E0009751F4411108C065
:103510008091E80082FF30C080E00895C901F3CFB8
:1035200020913A022223A1F12530A1F12091E80057
:1035300023FD2CC02091E80022FDEACF2091E80075
:1035400020FFE2CF2091F20030E0009719F0283000
:10355000310558F041E02830310509F040E0209174
:10356000E8002E772093E800CFCF41914093F100FF
:1035700001972F5F3F4FE9CF80913A02882341F0B6
:10358000853041F08091E80083FFC2CF81E008954B
:1035900082E0089583E00895FC01CB01209141026F
:1035A000309142022617370790F0009729F42091B6
:1035B000E8002E772093E80040E0009751F4411195
:1035C00008C08091E80082FF31C080E00895C90101
:1035D000F3CF20913A022223A9F12530A9F12091BD
:1035E000E80023FD2DC02091E80022FDEACF2091C4
:1035F000E80020FFE2CF2091F20030E0009719F0C0
:103600002830310558F041E02830310509F040E01C
:103610002091E8002E772093E800CFCF449140938B
:10362000F100319601972F5F3F4FE8CF80913A022A
:10363000882341F0853041F08091E80083FFC1CFBD
:1036400081E0089582E0089583E00895982F9530F1
:1036500028F08F708093E90081E008959093E9004D
:10366000242F762F50E0981731F07091EC002091C4
:10367000ED005091F00021FD02C09F5FE8CF309136
:10368000EB003E7F3093EB003091ED003D7F3093B7
:10369000ED003091EB0031603093EB007093EC0063
:1036A0002093ED005093F0002091EE0027FDE5CF30
:1036B00080E0089580913B0287FF13C08091E8006D
:1036C00082FF06C08091E8008B778093E80004C0F9
:1036D00080913A028111F2CF089580913A028823B5
:1036E000D9F38091E80080FFF8CF8091E8008E77D1
:1036F000ECCF2091E4003091E50095E6A9012091FE
:10370000EC00822F817020FF06C08091E80080FFCE
:1037100006C080E008952091E80022FD1AC0809143
:103720003A02882389F0853089F08091EB0085FD8D
:103730000FC02091E4003091E50042175307F9F2E1
:103740009150E1F684E0089582E0089583E00895C1
:1037500081E008950E94071C0E940A1CE0EEF0E040
:10376000808181608083E8EDF0E080818F778083C5
:1037700019BCE3E6F0E08081816080831092390219
:1037800008950E94071C0E940A1C8091D8008F7720
:103790008093D8008091D80080688093D800809171
:1037A000D8008F7D8093D80084E089BD86E089BDF4
:1037B00009B400FEFDCF10923A0210923602109228
:1037C00038021092370242E060E080E00E94261B3F
:1037D0008091E1008E7F8093E1008091E200816022
:1037E0008093E2008091E20088608093E200809103
:1037F000E0008E7F8093E0000895E3E6F0E08081B2
:103800008E7F808381E0809339020C94C11B1092DB
:10381000E20008951092E10008951F920F920FB6F2
:103820000F9211242F933F934F935F936F937F9346
:103830008F939F93AF93BF93EF93FF938091E1009A
:1038400082FF0BC08091E20082FF07C08091E100FF
:103850008B7F8093E1000E94571E8091E10080FFE2
:1038600019C08091E20080FF15C08091E2008E7F38
:103870008093E2008091E20080618093E200809179
:10388000D80080628093D80019BC85E080933A020A
:103890000E94A9188091E10084FF29C08091E20074
:1038A00084FF25C084E089BD86E089BD09B400FE9F
:1038B000FDCF8091D8008F7D8093D8008091E1006A
:1038C0008F7E8093E1008091E2008F7E8093E20002
:1038D0008091E20081608093E2008091360288232B
:1038E00009F443C084E080933A020E94AA188091B0
:1038F000E10083FF29C08091E20083FF25C0809111
:10390000E100877F8093E10082E080933A02109289
:1039100036028091E1008E7F8093E1008091E20089
:103920008E7F8093E2008091E20080618093E200CC
:1039300042E060E080E00E94261B8091F0008860F9
:103940008093F0000E94A818FF91EF91BF91AF9172
:103950009F918F917F916F915F914F913F912F91A7
:103960000F900FBE0F901F9018958091E30087FD78
:1039700002C081E0B8CF83E0B6CF1F920F920FB69E
:103980000F921124FF920F931F932F933F934F9306
:103990005F936F937F938F939F93AF93BF93CF93D7
:1039A000DF93EF93FF9309EE10E0F8018081C0915F
:1039B000EC00C795CC27C7958F70FC2EF82A108293
:1039C000C0EFD0E08881877F888378940E94061DAD
:1039D000F8011082888188608883CF2DCF70C083E2
:1039E000FF91EF91DF91CF91BF91AF919F918F9117
:1039F0007F916F915F914F913F912F911F910F9107
:103A0000FF900F900FBE0F901F9018951F93CF93AC
:103A1000DF93CDB7DEB7AA970FB6F894DEBF0FBE1F
:103A2000CDBF8BE392E0FC0101962091F100208351
:103A300022E083349207B9F70E94B5188091E8001C
:103A400083FF1DC180913B0290913C029A3008F0A7
:103A500016C1E92FF0E0E45CF04E0C94A01E803813
:103A600099F0823809F00BC180913F028F70853048
:103A700008F005C18093E9008091EB0085FB882761
:103A800080F91092E90006C08091370290913802C7
:103A9000911182609091E800977F9093E800809365
:103AA000F1001092F1008091E8008E77E4C0882345
:103AB00009F4D2C0823009F0E2C080913D02811148
:103AC000D5C080913F028F702FEF280F243008F06F
:103AD000D6C08093E9002091EB0020FFC7C093304F
:103AE00031F48091EB0080628093EB00BFC0909135
:103AF000EB0090619093EB0021E030E001C0220FD9
:103B00008A95EAF72093EA001092EA008091EB0090
:103B10008860EACF8111B3C010913D021F77809178
:103B2000E3008078812B8093E3008091E800877F19
:103B30008093E8000E945A1B8091E80080FFFCCF30
:103B40008091E30080688093E30082E0111183E0BC
:103B500080933A0294C08058823008F090C08091DF
:103B60003D0290913E028C3D23E0920799F583E05F
:103B70008A838AE289834FB7F894DE01139620E0A6
:103B80003EE051E2E32FF0E050935700849120FF94
:103B900003C082958F703F5F8F708A30C8F0895C58
:103BA00090E08D939D932F5F243161F74FBF8091FB
:103BB000E800877F8093E8006AE270E0CE0101961A
:103BC0000E94731A8091E8008B778093E80057C0B9
:103BD000805DE6CF60913F0270914002AE014F5F81
:103BE0005F4F0E94B219BC01892B09F448C0809133
:103BF000E800877F8093E80089819A810E94CC1A2F
:103C0000E1CF8038E1F58091E800877F8093E8007C
:103C1000809136028093F10046CF811130C090919F
:103C20003D02923060F58091E800877F8093E80044
:103C3000909336020E945A1B80913602882311F01D
:103C400084E005C08091E30087FDFACF81E0809396
:103C50003A020E94AB1813C080913D02813079F482
:103C600081E0933009F080E0809338021092E900FF
:103C70008091E800877F8093E8000E945A1B809122
:103C8000E80083FF0AC08091E800877F8093E80006
:103C90008091EB0080628093EB00AA960FB6F894B7
:103CA000DEBF0FBECDBFDF91CF911F910895089564
:103CB000CF9380913A02882399F08091E900C091D6
:103CC000EC00C795CC27C7958F70C82B1092E900E0
:103CD0008091E80083FD0E94061DCF70C093E9002B
:103CE000CF910895002480FD060E660F11F0869591
:103CF000D1F7802D08950024552704C0080E591FC0
:103D0000880F991F009729F076956795B8F371058C
:103D1000B9F7802D952F089597FB072E16F4009480
:103D200007D077FD09D00E94A61E07FC05D03EF4FF
:103D3000909581959F4F0895709561957F4F089557
:103D4000EE0FFF1F0590F491E02D0994AA1BBB1BF9
:103D500051E107C0AA1FBB1FA617B70710F0A61B8B
:103D6000B70B881F991F5A95A9F780959095BC01AC
:103D7000CD010895F999FECF92BD81BDF89A99279A
:103D800080B50895A8E1B0E042E050E00C94EE1E4A
:103D9000262FF999FECF92BD81BDF89A019700B404
:103DA000021639F01FBA20BD0FB6F894FA9AF99AA4
:103DB0000FBE08950396272F0E94C91E0E94C81E99
:103DC000252F0E94C91E242F0C94C91E0196272F4F
:103DD0000E94C91E0C94C81EDC01CB01FC01F9999C
:103DE000FECF06C0F2BDE1BDF89A319600B40D9247
:103DF00041505040B8F70895F894FFCF5206580646
:103E00005B06610676067606760676067606760602
:103E100076067606640669066D06730684068A06CB
:103E20008E065C0962096609740978097C098009B3
:103E300086098E09920996099A09A609AA09AE0966
:103E4000B209B809D609C00970099E09A2098A09F0
:103E5000BC09CC09DF09E3095B0C5B0CBD0CBD0C94
:103E6000120D2E0D8B0C8B0C390DE50DF60DF60D8C
:103E7000570E8B0C8B0C600E2F1D571D3F1E571DB0
:0C3E80003F1E8A1DAB1D3F1E011E0D1EC3
:103E8C002808641E140A321E09021B1878185918C7
:103E9C005518511801E200E900EA00B500B600B768
:103EAC0000CD008301CC008A0192019401210223F0
:103EBC000224022502260227022A02B300B4006F54
:103ECC0000700037363534673096939495663264BB
:103EDC0031E200E900EA00B500B600B700CD00837E
:103EEC0001CC008A019201940121022302240225B3
:103EFC0002260227022A02B300B4006F00700000F1
:00000001FF
