:100000000C94F6010C943D020C943D020C943D02BC
:100010000C943D020C943D020C943D020C943D0264
:100020000C943D020C943D020C943D020C94392238
:100030000C94E9220C94E21C0C943D020C943D02B9
:100040000C943D020C943D020C943D020C944D1D09
:100050000C943D020C943D020C943D020C943D0224
:100060000C943D020C943D020C943D020C943D0214
:100070000C943D02000000000000000000000000A1
:100080000000000000000000000000000000000070
:100090000000000000000000000000000000000060
:1000A0000000000000000000000000000000000050
:1000B0000000000000000000000000000000000040
:1000C0000000000000000000000000000000000030
:1000D0000000000000000000000000000000000020
:1000E0000000000000000000000000000000000010
:1000F0000000000000000000000000000000000000
:1001000000000000000000000000000000000000EF
:1001100000000000000000000000000000000000DF
:1001200000000000000000000000000000000000CF
:1001300000000000000000000000000000000000BF
:1001400000000000000000000000000000000000AF
:10015000000000000000000000000000000000009F
:10016000000000000000000000000000000000008F
:10017000000000000000000000000000000000007F
:10018000000000000000000000000000000000006F
:10019000000000000000000000000000000000005F
:1001A000000000000000000000000000000000004F
:1001B0000000000000000000000000002A2B2800C2
:1001C0000000000000000000000000000000002906
:1001D000000000002C1E3420212224342627252E46
:1001E000362D3738271E1F2021222324252633337E
:1001F000362E37381F0405060708090A0B0C0D0EAA
:100200000F101112131415161718191A1B1C1D2F75
:100210003130232D350405060708090A0B0C0D0E95
:100220000F101112131415161718191A1B1C1D2F55
:100230003130354C000000000000000000000000DC
:1002400000000000000000000000000000000000AE
:1002500000000000000000007E0F00D4FFFFFFC779
:1002600000000078140345006E0064006500610022
:1002700076006F00750072000000220353006300D7
:100280006100740074006500720065006400440041
:1002900072006900660074006500720000000403CB
:1002A000090409025B00030100A0FA09040000012F
:1002B000030101000921110100012240000705810D
:1002C0000308000A090401000203000000092111CB
:1002D0000100012222000705820320000107050317
:1002E000032000010904020001030000000921119C
:1002F000010001227B000705840320000A1201107F
:1003000001000000088164A2B4010001020001069E
:1003100060FF0961A1010962150026FF00952075A3
:100320000881020963150026FF00952075089102D7
:10033000C005010902A10185020901A100050919F1
:10034000012908150025019508750181020501099B
:100350003009311581257F95027508810609381508
:1003600081257F950175088106050C0A38021581E3
:10037000257F950175088106C0C005010980A1018E
:10038000850319012AB700150126B70095017510DC
:100390008100C0050C0901A101850419012AA002F0
:1003A000150126A002950175108100C005010906FE
:1003B000A101050719E029E7150025019508750138
:1003C00081029501750881010507190029FF1500B3
:1003D00026FF009506750881000508190129059575
:1003E0000575019102950175039101C011241FBE8D
:1003F000CFEFD4E0DEBFCDBF04B603FE27C08091AF
:10040000550290915602A0915702B0915802873040
:10041000904BA740B04BD1F4109255021092560267
:10042000109257021092580214BE84B7877F84BF7F
:100430000FB6F894A8958091600088618093600061
:10044000109260000FBEE0E0F8E3099511E0A0E033
:10045000B1E0E2E1FBE402C005900D92A239B107E0
:10046000D9F722E0A2E9B1E001C01D92A535B2079B
:10047000E1F70E94191F0C942F250C94000081E0D5
:10048000089581E008950C94410208950C9445026A
:100490001F93CF93DF9300D000D00F92CDB7DEB77C
:1004A00049835A836B833091BF0189819A813111CD
:1004B0001DC06623B9F02223A9F00E94041A182F48
:1004C000682F89819A810E94A61969817A81812F7A
:1004D0000F900F900F900F900F90DF91CF911F9181
:1004E0000C94020D0E94D819182FEFCF0E94041A05
:1004F00069817A81EDCFFC01262F40815181628193
:10050000738184810C944802CF93DF93D82FC92F35
:1005100060E00E947B026D2F7C2FDF91CF910C94C5
:1005200046028F929F92AF92BF92CF92DF92EF924C
:10053000FF920F931F93CF93DF9300D000D0CDB7DE
:10054000DEB76B017C0181E090E0A0E0B0E04C01FF
:100550005D0104C0880C991CAA1CBB1C4A95D2F7EB
:10056000B501A4014C015D0104C0880C991CAA1CB2
:10057000BB1C2A95D2F7482959296A297B2904C02E
:10058000880F991FAA1FBB1F0A95D2F78A019B01EA
:100590000C211D212E213F2104171507260737079F
:1005A000F9F49C01AD012C293D294E295F292983AD
:1005B0003A834B835C8369817A818B819C810F9024
:1005C0000F900F900F90DF91CF911F910F91FF909F
:1005D000EF90DF90CF90BF90AF909F908F90089555
:1005E00080959095A095B0954C015D018C209D2043
:1005F000AE20BF2089829A82AB82BC82DCCF0F936F
:10060000CF93DF9300D000D0CDB7DEB7262F042FD5
:1006100040911102509112026091130270911402E4
:1006200049835A836B837C83482F69817A818B81CC
:100630009C810E9491020F900F900F900F90DF917C
:10064000CF910F910C9460180E949A060E94730437
:100650000C94D3060C94D60608950E944B140E9465
:100660002C032FEF84E39CE0215080409040E1F781
:1006700000C000000C94711D0F931F93CF93DF9364
:100680008C0161E00E947B02EC01B8010E94F10A3A
:100690008823D9F1B801CE010E9443028823A9F131
:1006A000B801CE010E94370E882379F1B801CE013E
:1006B0000E948C0E882349F1B801CE010E94640F7C
:1006C000882319F1F8018281882361F0CA35FDE59C
:1006D000DF0721F170F4C115ECE5DE07A1F0CE3D96
:1006E000DC45C9F0C801DF91CF911F910F910C94A7
:1006F0003F02CB358DE5D807A1F0CC35DD4591F72C
:100700000E94B31AEFCF0E942D0380E0DF91CF91BA
:100710001F910F9108950E94301CF7CF0E94BC1AC0
:10072000E1CF0E94BF1ADECFDF92EF92FF920F93CC
:100730001F93CF93DF93E82FF0E0EC54FE4FD4905B
:10074000282F26952695269530E0F901EC5AFD4F85
:100750000491877010E0082E02C0159507950A9441
:10076000E2F701701127F901EC5BFD4FE490F12CE9
:10077000082E02C0F594E7940A94E2F791E0E9228A
:10078000FF24F901EC5CFD4FC491D0E002C0D59587
:10079000C7958A95E2F7C170DD270115110519F09B
:1007A00081EE0E94F710E114F10419F086EE0E9428
:1007B000F7108D2D0E948A11EF2819F086EE0E9405
:1007C0004411012B19F081EE0E944411CD2B51F000
:1007D0008CE2DF91CF911F910F91FF90EF90DF900E
:1007E0000C948A11DF91CF911F910F91FF90EF90A0
:1007F000DF900895EF92FF921F93CF93DF93EC0168
:10080000162F8881882309F453C0813009F04DC028
:1008100089818130A1F47E0182E0E80EF11C8A8199
:100820000E948A11E7012196812F882351F3EFE975
:10083000FFE03197F1F700C000008150F6CF823021
:1008400041F47E01E2E0EE0EF11C8A810E94F71075
:10085000E9CF833041F47E01F2E0EF0EF11C8A8192
:100860000E944411DFCF843011F02196DCCF2A8121
:10087000229680E090E0FE0131962053330B2A301F
:10088000310550F0009779F2EFE9FFE03197F1F789
:1008900000C000000197F6CF6AE070E00E94A72434
:1008A000820F931F2981EF01E6CF0E949403BBCFF3
:1008B000DF91CF911F91FF90EF90089560E00C942D
:1008C000FA0308950C94610481E00895CF93C82F32
:1008D0000E946404882319F0C1FF03C0299ACF91B4
:1008E00008952998FCCF219A29980895CF93C82F6D
:1008F0000E9462048C2FCF910C94660490E080E0FB
:1009000008950895FC01EE0FFF1FEC59FD4F8591EE
:1009100094910895CF93DF930E94020D0E94A70542
:10092000EC01811520E5920708F044C0C11580E470
:10093000D80708F0B7C0C03ED105F0F4C03CD105DF
:1009400008F0A3C0C83AD10580F4C53AD10508F033
:100950008EC0C130D10529F0CE010497813A9105AE
:1009600040F4CE01DF91CF910895CF3BD10509F03E
:1009700081C0D0E0C0E0F5CFC11520E2D20770F40D
:10098000CF3FD10509F068F7C83ED10550F3CE013D
:10099000805F9109D065409720F3EBCFC11580E3CC
:1009A000D80708F479C0CE019927D3FD78C0EC01AF
:1009B000D06CD7CF8115954570F5C11584E5D80762
:1009C00008F0A7C0C11523E5D20778F4C11582E568
:1009D000D80708F089C0C11521E5D20708F465C021
:1009E000DC2FCC27C16FD06ABCCF9E012370332788
:1009F00081E090E002C0880F991F2A95E2F7C69522
:100A0000C695D0E0B5E0CC0FDD1FBA95E1F7C82B55
:100A1000D92BDA68A6CFC1158AE5D807B0F4C1157D
:100A200029E5D20708F085C0C11586E5D80708F486
:100A300075C0CE0198558F3F910511F008F099CF00
:100A4000DC2FCC27C06FD06A8CCFCE019056811599
:100A5000904208F08ECF8D2F8F710E943F0690E05C
:100A6000982F882788279F718C2BEC0160C0A49752
:100A7000D06477CFC85AD0E0CC0FDD1FC75EDE4F01
:100A80000990D881C02DD4646CCFCE01805C9109CF
:100A90000E948204EC0165CFCE019F70F9CFEC017A
:100AA000D86C5FCFDF70D06A5CCF9E01E4E03695F2
:100AB0002795EA95E1F723708C2F869586958370AC
:100AC00090E0F5E0880F991FFA95E1F7922BC3703B
:100AD00021E030E002C0220F331FCA95E2F7822BDB
:100AE000932BEC01DC683DCF9E012370332781E01E
:100AF00090E002C0880F991F2A95E2F7C695C69527
:100B0000D0E075E0CC0FDD1F7A95E1F7C82BD92B2B
:100B1000E9CFDC2FCC27C46FD06A23CF8C2F0E9463
:100B20003F06C82FD0E0DC2FCC27CC27DF71D06266
:100B300018CF8C2F8F700E943F0634E0D695C79552
:100B40003A95E1F7CF709C2FEC01D0690ACF803E37
:100B5000910599F1C8F48133910509F476C048F400
:100B60008932910509F46AC08A32910509F474C08A
:100B7000089589339105D1F082389105B9F0853314
:100B8000910509F454C00895843E910599F138F413
:100B9000823E9105F9F0833E910509F10895863E64
:100BA000910599F1873E9105B9F10895209132029E
:100BB0002370A1F080EE90E008952091320220FD94
:100BC00052C03091330230FF09C024FF4FC090E083
:100BD00080E004C02091320222FDF7CF08952091D9
:100BE000320222FD46C03091330230FDE3CF24FFB4
:100BF000F5CFEDCF2091330221FFF0CF809132026B
:100C000084FDE5CF87EE90E008952091320223FF26
:100C1000E5CF24FDDCCFF6CF2091320223FD2CC09E
:100C20003091330231FFE3CF84EE90E008952091BC
:100C3000320225FFD3CF89E290E00895209132025D
:100C400025FFCCCF85E390E008952091320226FF66
:100C5000C5CF8AE290E008952091320226FFBECFF0
:100C600081E390E0089589E390E0089583EE90E0B9
:100C7000089582EE90E0089586EE90E008959091B8
:100C8000320292FF06C0282F28712830F9F4877F9E
:100C9000846093FF06C0282F28712831F1F4877EE5
:100CA00084612091330220FF06C0382F387138301C
:100CB000D9F4877F816021FF06C0282F2871283151
:100CC000D1F4877E816194FD877E0895282F247159
:100CD0002430F9F68B7F8860DCCF282F24712431F3
:100CE00001F78B7E8861DDCF382F3171313019F7F4
:100CF0008E7F8860E0CF282F2171213121F78E7EF1
:100D00008861E1CF0C94BD0A0E9441078FE39CE902
:100D10000197F1F700C000000E94410780E00E94A7
:100D2000D80680FF04C00E9482060C94711D0895AD
:100D30000C948406CF93DF9300D000D0CDB7DEB7FC
:100D40000E948B1B811102C00E94301C0E94961BC6
:100D5000809326020E949E1B90933302809332025E
:100D60000E9498060E949A1B282F30E050E040E035
:100D7000CA01B9010E94E2178091110290911202FA
:100D8000A0911302B091140289839A83AB83BC8330
:100D9000BC01CD010F900F900F900F90DF91CF917C
:100DA0000C945E1808950C94D20608950C94D50600
:100DB000E82FF0E0EE0FFF1FE45CFD4F8081918192
:100DC0000895089580EA8A95F1F7089500C008957E
:100DD0000C94E206F894E82FE295EF70F0E041A160
:100DE0008F7021E030E0B90102C0660F771F8A954D
:100DF000E2F7CB01962F9095942391A392A1892B92
:100E000082A378940895CF93DF9386E60E94EA0642
:100E100082E30E94EA0684E60E94EA0681E30E94D9
:100E2000EA06C7E4D1E089910E94EA0681E0C13573
:100E3000D807C9F7109235021092340210923D0281
:100E400010923C02109237021092360210923F022A
:100E500010923E0210923902109238021092410212
:100E60001092400210923B0210923A0210924302FA
:100E70001092420284E00E94C107DF91CF910C944E
:100E80002403AF92BF92DF92EF92FF920F931F93D2
:100E9000CF93DF93C1E5D1E004E312E0D12CEE243F
:100EA000E394F12C8991F894E82FE295EF70F0E04B
:100EB00021A18F70A70102C0440F551F8A95E2F748
:100EC000CA01922F982B91A392A18095892382A386
:100ED00078940E94E606A7E4B1E030E020E0B12C6F
:100EE000A12C4D91E42FE295EF70E05EF0E080815F
:100EF00090E04F7002C0959587954A95E2F780FD86
:100F00003BC0C701022E02C0880F991F0A94E2F766
:100F1000A82AB92A2F5F3F4F2A30310511F7FE0169
:100F2000319780810E94EA060E94E806F8018081DC
:100F30009181A816B90619F1B182A08281E0D82A60
:100F40000E5F1F4FF1E0C535DF0709F0ABCF2D2D48
:100F500044E06CE372E084E392E00E94C2070E94E6
:100F60002A038D2DDF91CF911F910F91FF90EF906C
:100F7000DF90BF90AF90089580E090E0C9CF80E00F
:100F8000DECF0895FF920F931F93CF93DF93F82E38
:100F9000092F162FD72FC42F222349F081E08093E9
:100FA00096010E94121D9093950180939401809167
:100FB00096018823A1F080919401909195010E945F
:100FC0003E1D069760F0EF2DF02FA12FBD2F90E072
:100FD00080E0D0E08C179D0744F010929601DF91DD
:100FE000CF911F910F91FF900895219131912D93F1
:100FF0003D930196EFCF80919D0180FF14C08091B9
:10100000050190E065E070E00E94A724BC017595A1
:1010100067957595679560387105C8F56115710517
:10102000C1F1862F089581FF0BC08091050190E0EA
:1010300065E070E00E94A724BC0175956795EBCF31
:1010400082FF09C08091050190E065E070E00E9498
:10105000A724BC01E0CF80919C018823A9F02091B6
:1010600004016091050170E0821710F0CB01EDCF13
:1010700090E00E94A72465E070E00E94A724622F00
:1010800070E00E94B824C7CF65E070E0CACF8FE758
:10109000089581E0089580919D0180FF0CC06091CA
:1010A000010170E0759567957595679561157105F6
:1010B00059F1862F089581FF06C06091010170E00B
:1010C00075956795F3CF6091010170E082FD0CC0CA
:1010D00060919B016623A9F020910001809101019C
:1010E00090E0621730F0BC0160387105F8F28FE7CC
:1010F000089570E00E94A724622F70E00E94B82437
:10110000F3CF61E070E0D5CF81E00895E0E1E80F32
:10111000E031E0F5F0E0EF5CFA4D0C94CC240E9455
:10112000FB0781958093A10108950E94FB07FACFE8
:101130000E94FB0781958093A00108950E94FB0700
:10114000FACF0E944B088093A20108950E944B0899
:101150008195F9CF0E944B0881958093A301089552
:101160000E944B08FACF845F990B21E030E001C068
:10117000220F8A95EAF780919F01822B80939F012D
:10118000089580919D01816080939D0108958091D3
:101190009D018260F9CF80919D018460F5CF4091DF
:1011A000A001803F59F48091A10187FF0DC01092EA
:1011B000A10141110BC010929C0108C0813F81F434
:1011C0008091A10118169CF3442381F08091A20123
:1011D0009091A301892B09F05AC010929B010895A8
:1011E000823F49F447FFF0CF1092A0018091A10106
:1011F0008111ECCFE0CF833F19F41416ACF3E4CFA8
:101200009091A201893F29F41916F4F61092A201D7
:10121000DBCF8A3F19F497FFD7CFF8CF9091A30186
:101220008B3F29F497FFD0CF1092A301CDCF8C3FF5
:1012300019F41916CCF3C8CF9CE0980F953090F4B0
:10124000845F990B21E030E0B90102C0660F771F7F
:101250008A95E2F7CB01809590919F018923809335
:101260009F01B2CF8D3F31F480919D018E7F80939D
:101270009D01AACF8E3F21F480919D018D7FF7CFF4
:101280008F3F09F0A1CF80919D018B7FF0CF089512
:101290000E94121D2091A0013091A101232B21F069
:1012A0008093990190939A012091A2013091A3011A
:1012B000232B21F080939701909398018EE991E080
:1012C0000C94AA0FCF92DF92EF92FF920F931F938D
:1012D000CF93DF9300D000D000D0CDB7DEB726E0AB
:1012E000EEE9F1E0CE010196DC0101900D922A9524
:1012F000E1F7C090A001D090A101E090A201F09090
:10130000A3011092A0011092A1011092A2011092CB
:10131000A3012C2D2D298C0191F0809199019091A0
:101320009A010E943E1DFC0120919C01222309F498
:1013300040C0809106018E171F0608F449C08E2D0B
:101340008F2991F080919701909198010E943E1D04
:10135000FC0120919B01222309F47DC080910201B0
:101360008E171F0608F486C08091A0019091A101FC
:10137000892B9091A201892B9091A301892B11F0C7
:101380000E94480986E0F801AEE9B1E001900D92B3
:101390008A95E1F726960FB6F894DEBF0FBECDBF53
:1013A000DF91CF911F910F91FF90EF90DF90CF9041
:1013B00008958091070190E06AE070E00E94A72400
:1013C0008E179F0708F0BBCF2F5F20939C0102C0B0
:1013D0002F3FD1F7CC2051F00E94FB076FEF1C1478
:1013E0000CF461E00E949E248093A001DD2051F066
:1013F0000E94FB076FEF1D140CF461E00E949E2415
:101400008093A1018091A001882309F498CF2091B5
:10141000A101222309F493CF082E000C990B65EB50
:1014200070E00E94A724992371F09093A001822F6D
:10143000220F990B65EB70E00E94A724992339F0E5
:101440009093A1017CCF81E08093A001F0CF81E057
:101450008093A10174CF8091030190E06AE070E075
:101460000E94A7248E179F0708F07ECF2F5F20933E
:101470009B0102C02F3FD1F7EE2051F00E944B0894
:101480006FEF1E140CF461E00E949E248093A20171
:10149000FF2051F00E944B086FEF1F140CF461E025
:1014A0000E949E248093A3018091A2012091A30118
:1014B000882309F459CF222309F456CF082E000CB3
:1014C000990B65EB70E00E94A724992371F090932B
:1014D000A201822F220F990B65EB70E00E94A724D6
:1014E000992339F09093A3013FCF81E08093A2012B
:1014F000F0CF81E08093A30137CF86E0EEE9F1E001
:10150000DF011D928A95E9F710929C0110929B01D0
:1015100010929D01089583E290E00E94ED248132B3
:1015200089F484E290E00E94ED24813159F485E24F
:1015300090E00E94ED2491E0813209F090E0892F43
:101540008170089580E0FCCFCF93DF93C82FDFEF49
:101550008111D1E26D2F83E290E00E94FB246FEFB6
:10156000C11161E184E290E00E94FB246D2F85E2CD
:1015700090E0DF91CF910C94FB2480E00E94A40ABC
:101580000C94851B0895CF93DF9300D000D0CDB786
:10159000DEB786E290E00E94ED24282F30E050E094
:1015A00040E0CA01B9010F900F900F900F90DF91AA
:1015B000CF91089586E290E00C94FB240E94C20A29
:1015C0000E948B0A81110CC060E070E0CB010E9488
:1015D000DA0A0E94800C0E945B0D81E00C94A40A40
:1015E0000895CF939C01FB01C281CC2301F182516C
:1015F0009F45409720F58EEE820F0E946B0DC0E054
:101600008C2FCF91089581E00E94961843E062E00C
:1016100081E00E94FF02F3CF81E00E94C71843E0FF
:1016200062E081E00E94FF02EBCF82E0F6CF8031E2
:101630009F4591F321313F45C1F3C1E0E1CF203116
:10164000EFE53E0701F382E021313F45E9F2D8CFD3
:101650002FEFFC0120830895EF92FF920F931F93C9
:10166000CF93DF93CDB7DEB72E970FB6F894DEBFDA
:101670000FBECDBF8D839E83162FAD81BE81EC91B1
:10168000E150E33108F094C0F0E0EF5BFA4D0C94C8
:10169000CC24ED81FE81118289E08283612F8D81CE
:1016A0009E812E960FB6F894DEBF0FBECDBFDF91A0
:1016B000CF911F910F91FF90EF900C94261EAD815A
:1016C000BE8111968C91823099F0833011F1813076
:1016D00081F50E941E1D0E94D2246F83788789871E
:1016E0009A87ED81FE816283738384839583D6CF4D
:1016F0000E94C30A0E94D2246B877C878D879E87B5
:10170000AD81BE8112966D937D938D939C931597B9
:10171000C5CFED80FE8000E0802F0E94D806F70143
:10172000928383830F5FF2E0EF0EF11C0430A1F788
:10173000B5CF612F8D819E810E94280BAFCFAD81E7
:10174000BE8111968C911197823099F712968D91E6
:101750009D910D90BC91A02D89839A83AB83BC830E
:10176000BC01CD010E94D2240E94DA0A97CFED81FC
:10177000FE814381628181810E94520C98278927D2
:101780009827AD81BE8115969C938E93149786CF32
:10179000ED81FE8124813581322723273227438141
:1017A000628181810E946B0C79CF0E94800C76CF80
:1017B0008FEFAD81BE818C9371CF0E940F0DED81B3
:1017C000FE8181836BCF0E94110D9827892798276E
:1017D000AD81BE8112969C938E9311975FCFED8160
:1017E000FE81638170E081819281AF014C5F5F4F28
:1017F0009827892798270E94140D50CFAD81BE816C
:1018000013966C91139770E011968D919C9112979D
:10181000AD014C5F5F4F9827892798270E94380DAC
:101820003DCF0E945B0D3ACF0E94390CC8CFAD81ED
:10183000BE8113966C91139770E011968D919C91D7
:101840001297AD014C5F5F4F9827892798270E9418
:10185000BD0C24CFED81FE81638170E08181928196
:10186000AF014C5F5F4F9827892798270E94E00CB3
:1018700015CF84E00895E82F862F90E064E170E0B2
:101880000E94A72450E0440F551F9C01240F351FD0
:101890008E2F90E060E570E00E94A724820F931FD6
:1018A000879608950F931F93CF93DF930E943B0C6D
:1018B0008C010E94ED24C82FD0E0DC2FCC27C8017A
:1018C00001960E94ED249E01282BC901DF91CF9142
:1018D0001F910F9108950F931F93CF93DF93122FB2
:1018E000032F0E943B0CEC01602F0E94FB24612F10
:1018F000CE010196DF91CF911F910F910C94FB24A3
:10190000CF92DF92EF92FF920F931F93CF93DF93CB
:1019100010E000E0C80168E270E00E94A724EC013A
:10192000D12C14C0F701259134914C2D6D2D802FB1
:101930000E946B0C22E0E20EF11CC3943AE0C31249
:10194000F1CF2A96D39484E0D81649F0CE01880FBF
:10195000991F9C012C583F4F7901C12CE3CF0F5F99
:101960001F4F04301105B1F6DF91CF911F910F91F8
:10197000FF90EF90DF90CF900895EF92FF920F933A
:101980001F93CF93DF938C01EA017A01E60EF71ED5
:10199000C8018796CE15DF0539F4DF91CF911F91ED
:1019A0000F91FF90EF900895003421E0120730F47A
:1019B0000E94ED2489930F5F1F4FEACF80E0FACF9A
:1019C000EF92FF920F931F93CF93DF938C01EA0165
:1019D0007A01E60EF71EC8018796CE15DF0539F4A9
:1019E000DF91CF911F910F91FF90EF9008950034F8
:1019F00021E0120718F468810E94FB2421960F5FF2
:101A00001F4FE9CF462F672F982F972B943020F444
:101A10004A3010F40C94520C90E080E0089580E17C
:101A2000089589E992E00895EF92FF920F931F9332
:101A3000CF93DF938C01EA017A01E60EF71EC8010D
:101A400089599E4FCE15DF0539F4DF91CF911F9153
:101A50000F91FF90EF900895093922E0120730F4BA
:101A60000E94ED2489930F5F1F4FE9CF80E0FACFEA
:101A7000EF92FF920F931F93CF93DF938C01EA01B4
:101A80007A01E60EF71EC80189599E4FCE15DF0573
:101A900039F4DF91CF911F910F91FF90EF9008954E
:101AA000093922E0120718F468810E94FB2421966C
:101AB0000F5F1F4FE8CFCF93DF93C7E6D1E060E021
:101AC000CE010E94FB242196C11584E0D807B9F706
:101AD000DF91CF910895DF92EF92FF920F931F93C2
:101AE000CF93DF9300D000D0CDB7DEB7F82E8FE0D4
:101AF0008F1540F08FEF93E00E94ED2407E611E090
:101B00008823C1F00F900F900F900F90DF91CF912D
:101B10001F910F91FF90EF90DF900895011584E0E1
:101B2000180781F3C8010E94ED24811101C0FA94C5
:101B30000F5F1F4FF110F2CF8091150190911601A8
:101B4000A0911701B091180189839A83AB83BC835C
:101B5000DD24D39478018FEFE81AF80AC8010E94B7
:101B6000ED2489831A82882369F29FEF980F9330BE
:101B700080F48A83D9820E5F1F4FC7010E94ED2433
:101B80008B83882309F4BECFCE0101960E945E04A8
:101B9000E1CF8701F9CF0F931F93CF93DF93C42F2A
:101BA000D22FFC0182818823C9F04093A6010E94B4
:101BB000121D9093A5018093A40180E28C0F8830C0
:101BC00008F050C0C77081E001C0880FCA95EAF7DD
:101BD000DF91CF911F910F910C9492111091A6015A
:101BE000141335C08091A4019091A5010E943E1D5F
:101BF000883C910560F5C0E2CD0F1D17B9F080E279
:101C0000810F883040F4177081E001C0880F1A9569
:101C1000EAF70E949911C83048F481E09D2F97702F
:101C200001C0880F9A95EAF70E949211802F0E94B6
:101C30008A11C830B8F4D77081E001C0880FDA95F6
:101C4000EAF7DF91CF911F910F910C94991180E2E7
:101C50008C0F883038F4C77081E001C0880FCA95B6
:101C6000EAF7EFCFDF91CF911F910F9108950F9376
:101C70009C01CB01233F4CE53407A1F190F4283DB2
:101C8000FCE53F0749F1293D4CE53407E9F1273DE3
:101C90003C45C1F0FC0182818823E1F11092A6014C
:101CA00019C0253FFCE53F0719F1263F4CE53407F5
:101CB00029F1243F3C4571F707E225EE44EE64EF3D
:101CC0007CE505C006E221EE41EE67ED7CE50E9471
:101CD000CB0D80E00F91089507E225EE45EE68ED0B
:101CE0007CE5F5CF06E221EE40EE63EF7CE5EFCF39
:101CF00006E221EE42EE65EF7CE5E9CF07E225EE54
:101D000046EE66EF7CE5E3CF08E221E045EE69EDC3
:101D10007CE5DDCF81E0DECFCF93DF93EC01FB01EB
:101D20008281882309F4CEC0C631FCE5DF07E0F4E8
:101D3000C2309CE5D907F0F00E949E1B90933302BD
:101D400080933202C631ECE5DE0720F5C230FCE5B7
:101D5000DF0798F480913202909133020E94AC1B0D
:101D60000E944B1480E006C09E012A5F3C4529304A
:101D7000310510F3DF91CF910895FE01E350FC454A
:101D8000809132028160E331F105B0F4EC5AFA4DF2
:101D90000C94CC24CE018A5F9C450997D8F6FE01AD
:101DA000EB5FFC45E830F10590F4E959FA4D0C94ED
:101DB000CC2480913202826080933202CBCF80911A
:101DC00032028460F9CF809132028860F5CF809131
:101DD0003302816080933302BDCF809133028260F1
:101DE000F9CF809132028061E7CF80913202806228
:101DF000E3CF809132028064DFCF0E944B14809148
:101E000032028068D9CF809132028C60D5CF809128
:101E100033028360DFCF809132028E7FCDCF8091FD
:101E200032028D7FC9CF809132028B7FC5CF8091E6
:101E30003202877FC1CF809133028E7FCBCF8091DA
:101E400033028D7FC7CF809132028F7EB5CF8091D4
:101E500032028F7DB1CF809132028F7BADCF0E9455
:101E60004B14809132028F77A7CF80913202837F0B
:101E7000A3CF809133028C7FADCF8091320282FB61
:101E8000992790F921E0922790FB82F990FB83F942
:101E900093CF80913302982F909591708E7F892BEC
:101EA00090FB81F997CF0E944B1490913202892FB9
:101EB00097FB87F9805880CF81E00E94321C4ACF7F
:101EC00080E0FBCF81E056CFCF93DF93EB018631EB
:101ED0009C4511F50E94C21A9A81992399F08A7A39
:101EE00091E009F490E09093A701811109C089E283
:101EF0000E947C1A0E94151B80E0DF91CF9108950B
:101F000085E3F6CF8091A701811104C089E20E9488
:101F1000831AF0CF85E3FBCF81E0EFCF9093AD0143
:101F20008093AC010895E091AC01F091AD01309740
:101F300021F00190F081E02D099480E00895E09176
:101F4000AC01F091AD01309721F00280F381E02DDA
:101F500009940895DC01E091AC01F091AD01309756
:101F600039F082E08C930480F581E02DCD01099455
:101F700008952091AA013091AB012817390771F01B
:101F80009093AB018093AA01E091AC01F091AD0177
:101F9000309721F00680F781E02D09940895209173
:101FA000A8013091A9012817390771F09093A90170
:101FB0008093A801E091AC01F091AD01309721F040
:101FC0000084F185E02D099408950E941E1D609300
:101FD000BB017093BC018093BD019093BE016093DF
:101FE000B7017093B8018093B9019093BA01089535
:101FF000089508950C94F80F08950C94FC0F83E84D
:102000009BE10E94951D0E94F90F0C94FA0F81E04C
:1020100008950C940710089508950E940B100C94D5
:102020000C100E94091D0E9403070E94DE0A0C94F6
:10203000FD0F8F929F92AF92BF92CF92DF92EF925D
:10204000FF920F931F93CF93DF9300D000D00F9296
:10205000CDB7DEB70E94410781110E94E50F5FEA0C
:10206000852E51E0952E10E000E0A02E802F0E94DA
:10207000D8067C01F401C190D1904F01C816D90651
:1020800009F45BC08091260281FD0E94E106C60131
:102090008E259F25B12CCC24C394D12C9C012C21BE
:1020A0003D21232B09F443C00E9409108823A9F085
:1020B000B982AA82EC20FD2081E0EF2809F480E0BB
:1020C0008B830E94121D8160782F9D838C834981B0
:1020D0005A816B81892F0E94C610000F111FF801D1
:1020E000E155FE4F808191818C259D2591838083D0
:1020F0000E9462090E94930F9091AE018917A1F18D
:102100000E94930F8093AE010F900F900F900F904D
:102110000F90DF91CF911F910F91FF90EF90DF9083
:10212000CF90BF90AF909F908F900C947604B39413
:10213000CC0CDD1CFAE0BF12B1CF0F5F1F4F043093
:10214000110509F092CF8FEF89838A831B820E9449
:10215000121D8160782F9D838C8349815A816B8108
:10216000892F0E94C610C4CF0F900F900F900F9030
:102170000F90DF91CF911F910F91FF90EF90DF9023
:10218000CF90BF90AF909F908F900895CF93DF93A3
:10219000CDB7DEB72B970FB6F894DEBF0FBECDBF1D
:1021A0004F83588769877A878B8761110E94E41A69
:1021B0001E8285E0FE013796DE01119601900D9298
:1021C0008A95E1F749815A816B817C818D819E815D
:1021D0002B960FB6F894DEBF0FBECDBFDF91CF9127
:1021E0000C94B616FC01808191810C94461ACF9311
:1021F000C82F882309F446C08CEF8C0F813AA0F4D5
:102200006C2F80910801909109010E94491C88233C
:1022100029F08C2F0E94831A0E94151B8C2F0E947C
:102220007C1ACF910C94151B80E28C0F883048F4F7
:10223000C77081E001C0880FCA95EAF70E94C51AED
:10224000F0CF8BE58C0F833038F42C2F2452330BD6
:10225000C901CF910C94B90FE8E5EC0FE73150F4C8
:10226000F0E0EE0FFF1FEB5AFE4F80819181CF917E
:102270000C94CF0FC03F30F08C2F0E948608CF9176
:102280000C944809CF910895882361F19CEF980F31
:10229000913A20F40E94831A0C94151B90E2980F37
:1022A000983050F4877091E001C0990F8A95EAF751
:1022B000892F0E94CB1AF0CF9BE5980F933020F422
:1022C00090E080E00C94B90F98E5980F973120F4D6
:1022D00090E080E00C94CF0F803F20F00E94CF0868
:1022E0000C94480908951F93CF93DF93182FEB01A7
:1022F0000E94F710209731F4812FDF91CF911F9129
:102300000C9444118FE99FE00197F1F700C00000A1
:102310002197F0CF70E060E0893311F460E570E060
:102320000C947311882321F00E94C51A0C94151B7C
:102330000895882321F00E94CB1A0C94151B089550
:10234000AF92BF92CF92DF92EF92FF920F931F93C3
:10235000CF93DF9300D000D00F92CDB7DEB76C01E2
:102360006D837983FC011281058102950F700E94B3
:102370009A1AE82E8823A1F0E12E112389F0898191
:10238000807F803429F08D81805EE12C883040F0A0
:1023900082E00E94671B0E949A1A91E0E82EE926CB
:1023A000A980A2949FE0A922B12CF501E159FA4D30
:1023B0000C94CC2409810F70F981F07F11F0029503
:1023C000007F1123B1F0002361F08D81805E8830A1
:1023D00018F01D81111109C0802F0E94C51A0E949A
:1023E000151B8D810E94F71015C0802F0E94D61AF0
:1023F000F6CF8D810E944411002361F08D81805EB3
:10240000883018F01D81111133C0802F0E94CB1A23
:102410000E94151B98E0A91AB108E4E0AE16B104B9
:1024200020F40E94930F0E947604EE2009F4CEC19E
:102430000E94961A80FDCAC1F60112820E94901A6B
:102440000E949618C6010E940D140E94901A0F90C7
:102450000F900F900F900F90DF91CF911F910F91E0
:10246000FF90EF90DF90CF90BF90AF900C94C71883
:10247000802F0E94DC1ACCCF29812F70F22E398157
:10248000307F303219F0F29480EFF8228D8188236A
:1024900069F0813049F1112391F1002351F1F601E6
:1024A000858180FF9ECF8F70858323C0112381F0AB
:1024B000011106C00E94F81A8F290E949211AACF1A
:1024C0000130C1F70E94F81A8F290E94FE1AA2CF8C
:1024D000011106C00E940B1B8F2D0E9499119ACFEB
:1024E000013009F497CFF6CF112329F0063008F018
:1024F00091CF8F2DE2CF053008F08CCFEDCF0023A8
:1025000059F30D81093349F41FEF27EE33E01150E1
:1025100020403040E1F700C000008D810E9444114E
:1025200079CF898186958695837069F0813009F02D
:1025300071CF8D8199819370111102C090E080E07C
:102540000E94CF0F67CF8D8199819370111102C0C6
:1025500090E080E00E94B90F5DCF8D81112329F0BA
:102560000E9486080E94480955CF0E94CF08FACFE2
:102570008981837009F050C011114CCF2D812295B3
:1025800026952770220F220F4D814F7050E070E08A
:1025900060E0022E04C0440F551F661F771F0A9487
:1025A000D2F70D8180E090E0DC0104FF0FC08FE0E6
:1025B00090E0A0E0B0E004C0880F991FAA1FBB1FE5
:1025C0002A95D2F780959095A095B095198116958A
:1025D000169513701D838C019D01042B152B262B42
:1025E000372B09831A832B833C831D8169817A8170
:1025F0008B819C81123051F0133059F0113019F059
:102600000E940C1807CF0E94E41704CF0E943418D0
:1026100001CF0E94E217FECE112309F448C00981C0
:1026200000FFF8CE2D81229526952770220F220FCC
:102630004D814F7050E070E060E0022E04C0440F06
:10264000551F661F771F0A94D2F70D8180E090E036
:10265000DC0104FF0FC08FE090E0A0E0B0E004C018
:10266000880F991FAA1FBB1F2A95D2F780959095B6
:10267000A095B09519811695169513701D838C0140
:102680009D01042B152B262B372B09831A832B83B3
:102690003C831D8169817A818B819C81123071F02C
:1026A000133079F0113039F00E945519B3CE1981E9
:1026B00011FFB0CEB7CF0E942D19ACCE0E947D196C
:1026C000A9CE0E946018A6CE09810F70098311233C
:1026D00029F0802F0E9496188D81EFCE8D810E9467
:1026E000991189810E94C71895CE2D81223FA1F1B1
:1026F00060F4203FE1F0213F41F1112309F445C08E
:1027000001116FCE89818F7124C03D81333F49F122
:10271000343F99F7112379F109810F710983802FD3
:102720000E94961863E089810E944B1B73CE11238F
:1027300041F0053008F06ECE89818F710E94FC183F
:1027400069CE063008F066CEF7CF89818F711123EC
:1027500049F20E9496185ECE89818F711123C9F3C8
:10276000C1CF112329F089818F710E94711852CE37
:102770000E946C184FCE81E00E94671B023008F463
:1027800049CE82E00E94671B45CE002361F01D8187
:10279000193309F0C2CE2FEF37EE83E021503040DD
:1027A0008040E1F7B8CE89818F719CCF49814F700D
:1027B0006D81C6010E947E040E9454172BCE498170
:1027C0004F706D81C6010E94810424CE0F900F903E
:1027D0000F900F900F90DF91CF911F910F91FF906D
:1027E000EF90DF90CF90BF90AF9008950F931F931D
:1027F000CF93DF93EC01688179818A810E94521A1C
:102800008C010E94A5190E94E117B801CE01DF9149
:10281000CF911F910F910C94A011CF93DF93EC01F6
:10282000988189812B813C81232B19F089238F3F4B
:1028300059F4DF91CF910895CE010E94F613CE0195
:10284000DF91CF910C948402CE010E943C03811150
:10285000F3CF0E949A1A882361F38A81882349F36F
:1028600082E0DF91CF910C94671B90E080E00E94A2
:10287000B90F90E080E00E94CF0F0E94E41A0E94FE
:10288000F51A0E94151B0E947D0A0C9448090E94AB
:102890008A1A0C9435140E94D31A0C944714282FCA
:1028A000892F82958F70903C80F48A30B0F4843008
:1028B00020F4823090F480E008958630E1F781E0E2
:1028C000283E88F0213FB9F70EC08C3011F08F30D0
:1028D00091F793FB882780F9089581E0203F39F034
:1028E00018F4283E40F70895243F29F7FCCF0895B7
:1028F0000E94461A0C944F14CF93DF9300D000D05F
:102900000F92CDB7DEB70F900F900F900F900F90F2
:10291000DF91CF910895CF93DF9300D000D000D006
:10292000CDB7DEB726960FB6F894DEBF0FBECDBF8B
:10293000DF91CF910895CF93DF93C091C001809133
:10294000C1018C1303C0DF91CF910895D0E0CE0177
:1029500066E070E00E94A724FC01EE53FE4F408128
:10296000518162817381848195810E948B142196AB
:10297000C770E5CF4091F2015091F3016091F401ED
:102980007091F5018091F6019091F7010C948B14F0
:102990001F93CF93DF938091F701807FA1F4809103
:1029A000F401882381F02091C001D091C101C09130
:1029B000F2014091F301A091F501B091F601142FBD
:1029C0001C23D21304C0DF91CF911F91089530E0F2
:1029D000109711F01F3F21F42F5F3F4F2770F1CF69
:1029E000C90166E070E00E94A724FC01EE53FE4F8F
:1029F00081814813F1CF80818C13EECF82818111C8
:102A0000EBCF838194818A1B9B0B883C910520F737
:102A10008091F7018F7080618093F701C90166E0B2
:102A200070E00E94A724FC01E953FE4F90819F7043
:102A30009061908382EF91E00E940D14DF91CF911D
:102A40001F910C949B14AF92BF92CF92DF92EF92A2
:102A5000FF920F931F93CF93DF93CDB7DEB72B97E2
:102A60000FB6F894DEBF0FBECDBF8C0185E0F80134
:102A7000DE01179601900D928A95E1F7D801129622
:102A8000EC901297EC9111964C9111971396CD9072
:102A9000DC9082EFA82E81E0B82E9091F201209177
:102AA000F3016091F5017091F6016115710529F04E
:102AB000892F82238F3F09F046C1EE2009F452C1CD
:102AC0008F8198850E947814F82E882309F44AC1D2
:102AD00086E0F801A2EFB1E001900D928A95E1F74E
:102AE00082EF91E00E94F2100E94C81429C18091E7
:102AF000F701382F307F683C710508F07FC0311135
:102B0000BAC0FE2C421324C09E1322C0E11020C084
:102B10008F7080618093F7010E94BA1482EF91E078
:102B20000E940D148091F701F80185838F2D2B965B
:102B30000FB6F894DEBF0FBECDBFDF91CF911F91CE
:102B40000F91FF90EF90DF90CF90BF90AF900895DE
:102B5000CD2829F0842F8E238F3F09F089C080E093
:102B6000F82FF170DF2E2091C001F091C10180FD9E
:102B700021C0EE20D9F28091F70181608093F701A6
:102B8000F12CD4CF30E0C90166E070E00E94A724A8
:102B9000DC01AE53BE4F11968C911197481307C0BC
:102BA0008C91E81304C012968C918E11E2CF2F5FA6
:102BB0003F4F27702F13E6CF8F8198850E94461ACA
:102BC000292F22952F70903268F0225F2F702230CB
:102BD00080F49F7059F0D80115969C91907F31F444
:102BE000D12C0AC09F7011F08823D1F3805E883009
:102BF000B8F3C8010E940D14FD2C98CF31116EC09E
:102C00004F81588569857A858B850E947C1482EF77
:102C100091E00E940D1486E0D5011D928A95E9F796
:102C20000E94BA14ADCF86E0F801A2EFB1E00190A6
:102C30000D928A95E1F77ACF8F8198850E9478145A
:102C400081113DC08091F70181608093F701C80137
:102C50000E940D146BCF4F81588569857A858B85CD
:102C60000E947C1486E0D5011D928A95E9F768C020
:102C700081E08E2575CF421306C09E1304C0F80173
:102C8000EE2009F451C08F8198850E947814882322
:102C900009F468C0EE2009F465C08091F701803224
:102CA00070F02091F2013091F3013A8329831B8265
:102CB000DD82CC828E83CE0101960E940D1486E0C7
:102CC000F801A2EFB1E001900D928A95E1F70E9420
:102CD000C8140E94BA14FF24F39428CF4213D3CF10
:102CE0009E13D1CFE110CFCFF8018583C8010E9498
:102CF0000D1486E0D5011D928A95E9F717CF42138E
:102D00009BCF9E1399CF8091F70180FD8CCF982F98
:102D1000907F09F488CFF8018583903F31F0982F98
:102D2000907F905F8F70892B8583C8010E940D145E
:102D300086E0F801A2EFB1E001900D928A95E1F7EB
:102D40000E94BA14F3CEF090F401D601A61BB70B83
:102D5000BD01F110CCCE683C710508F07CCFFE2C93
:102D6000E110CDCFC8010E940D14B5CFCF93DF93F2
:102D7000CDB7DEB72C970FB6F894DEBF0FBECDBF30
:102D80004F83588769877A878B879C87CE01079600
:102D90000E9423158823D1F08A859B85892B39F0E1
:102DA00058854F81852F84238F3F09F076C080910D
:102DB000C0019091C101891349C02C960FB6F894B7
:102DC000DEBF0FBECDBFDF91CF91089586E0FE013B
:102DD0003796DE01119601900D928A95E1F79F8159
:102DE00028858091C1014091C0016A857B85672B50
:102DF000F1F292239F3FD9F290E09C012F5F3F4F69
:102E0000277033274217130671F40E944B14109257
:102E1000C1011092C00186E0E2EFF1E0DF011D92F6
:102E20008A95E9F7C4CF66E070E00E94A724DC0130
:102E3000AE53BE4F86E0FE01319601900D928A9509
:102E4000E1F72093C1010E949B14B1CF90E066E0AE
:102E500070E00E94A7248E539E4F0E942315882362
:102E600009F4ABCF8091C00190E066E070E00E9471
:102E7000A724FC01EE53FE4F408151816281738192
:102E8000848195810E948B148091C00190E001960D
:102E9000877099278093C0018ACF69857A858B8551
:102EA0009C850E948B1483CFEF92FF920F931F9308
:102EB000CF93DF938C01892B89F0F12CEE24E394DE
:102EC000E8012196F8018491843709F458C0A0F4F0
:102ED000823009F43FC048F48130D1F0DF91CF91C6
:102EE0001F910F91FF90EF9008959CEF980F9037EE
:102EF000A8F70E94F7100AC0853709F44EC09CE776
:102F0000980F903758F78F770E9444118E0116C0A2
:102F10000E5F1F4FFE01849190E2980F983060F48D
:102F20008770FE2D01C0FF0F8A95EAF78F2F0E9450
:102F3000E71A0E94151B02C00E94F7108F2D8823EC
:102F400009F4BECFEFE9FFE03197F1F700C00000D0
:102F50008150F5CF0E5F1F4FFE01849190E2980FD4
:102F6000983050F48770FE2D01C0FF0F8A95EAF764
:102F70008F2F0E94ED1ADDCF0E944411DFCF0E5F2C
:102F80001F4FFE01C491CC23C9F28FE99FE0019746
:102F9000F1F700C00000C150F6CF0E5F1F4FFE01D9
:102FA000F490CCCF08950C94D2170E94D31760935D
:102FB00015027093160280931702909318020C94D6
:102FC000351408950C94D517CF93DF9300D000D01B
:102FD000CDB7DEB769837A838B839C83809115029A
:102FE00090911602A0911702B091180229813A819E
:102FF0004B815C81282B392B4A2B5B2B29833A830D
:103000004B835C83CA01B9010F900F900F900F9012
:10301000DF91CF910C94D517CF93DF9300D000D0E0
:10302000CDB7DEB769837A838B839C838091150249
:1030300090911602A0911702B091180229813A814D
:103040004B815C81282339234A235B2329833A83DC
:103050004B835C83CA01B9010F900F900F900F90C2
:10306000DF91CF910C94D517CF93DF9300D000D090
:10307000CDB7DEB769837A838B839C8380911502F9
:1030800090911602A0911702B091180229813A81FD
:103090004B815C81282739274A275B2729833A837C
:1030A0004B835C83CA01B9010F900F900F900F9072
:1030B000DF91CF910C94D5170C94D2170C945C1817
:1030C0000E945E18609311027093120280931302A3
:1030D000909314020C94351460E070E0CB010C94D2
:1030E00060180F931F93CF93DF9300D000D0CDB71C
:1030F000DEB741E050E060E070E08A019B0104C06F
:10310000000F111F221F331F8A95D2F709831A83DC
:103110002B833C83C901B8010F900F900F900F9043
:10312000DF91CF911F910F910C9460180F931F9313
:10313000CF93DF9300D000D0CDB7DEB741E050E0B1
:1031400060E070E004C0440F551F661F771F8A952A
:10315000D2F78091110290911202A0911302B091C6
:1031600014028A019B01082B192B2A2B3B2B098364
:103170001A832B833C83C901B8010F900F900F90E5
:103180000F90DF91CF911F910F910C9460180F93C6
:103190001F93CF93DF9300D000D0CDB7DEB741E0CF
:1031A00050E060E070E004C0440F551F661F771FB9
:1031B0008A95D2F74095509560957095809111024F
:1031C00090911202A0911302B09114028A019B0106
:1031D000082319232A233B2309831A832B833C8347
:1031E000C901B8010F900F900F900F90DF91CF9110
:1031F0001F910F910C9460180F931F93CF93DF933F
:1032000000D000D0CDB7DEB741E050E060E070E024
:1032100004C0440F551F661F771F8A95D2F780910F
:10322000110290911202A0911302B09114028A012E
:103230009B01082719272A273B2709831A832B83F9
:103240003C83C901B8010F900F900F900F90DF9150
:10325000CF911F910F910C946018CF93DF9300D002
:1032600000D0CDB7DEB769837A838B839C8380914E
:10327000110290911202A0911302B09114022981BF
:103280003A814B815C81282B392B4A2B5B2B29837C
:103290003A834B835C83CA01B9010F900F900F9062
:1032A0000F90DF91CF910C946018CF93DF9300D0F3
:1032B00000D0CDB7DEB769837A838B839C838091FE
:1032C000110290911202A0911302B091140229816F
:1032D0003A814B815C81282339234A235B2329834C
:1032E0003A834B835C83CA01B9010F900F900F9012
:1032F0000F90DF91CF910C946018CF93DF9300D0A3
:1033000000D0CDB7DEB769837A838B839C838091AD
:10331000110290911202A0911302B091140229811E
:103320003A814B815C81282739274A275B272983EB
:103330003A834B835C83CA01B9010F900F900F90C1
:103340000F90DF91CF910C9460180895382F892F3A
:10335000262F6AE00E949E24830F982F977041E0E9
:1033600001C0440F9A95EAF786958695869590E078
:1033700065E070E00E94A724FC01E850FE4F90E059
:1033800080E0622F70E05191DF0111979B01082EC0
:1033900002C0369527950A94E2F7217021952527DA
:1033A000242325272C9301968530910561F70895F4
:1033B000282F892F6AE00E949E24820FA82FA770D1
:1033C00086958695869590E065E070E00E94A7243A
:1033D000FC01E850FE4F50E040E080E0219130E0F9
:1033E0000A2E02C0369527950A94E2F721703327FA
:1033F000042E01C0220F0A94EAF7822B4F5F5F4F21
:103400004530510559F70895BF92CF92DF92EF9260
:10341000FF920F931F93CF93DF938C01C090110203
:10342000D0901202E0901302F090140280911502E5
:1034300090911602A0911702B0911802C82AD92AB9
:10344000EA2AFB2ACFE1D0E0BC2ED701C6010C2E20
:1034500004C0B695A795979587950A94D2F780FDF5
:103460000EC0219788F7B12C8B2DDF91CF911F9142
:103470000F91FF90EF90DF90CF90BF900895B8012B
:103480008C2F0E948A04019761F3EECFCF93DF93D4
:10349000D82FC92F0E94041A6D2F7C2FDF91CF9156
:1034A0000C948A041F93CF93DF93162FD72F9091FC
:1034B000BF01992339F0862F972FDF91CF911F916C
:1034C0000C94461A882391F0862F972F0E94041A95
:1034D000C82F682F812F9D2F0E94A619612F7D2F45
:1034E0008C2FDF91CF911F910C948A04862F972FF8
:1034F0000E94D819C82FF2CF682F809108019091AF
:1035000009010C94831C682F809108019091090196
:103510000C94851C80910801909109010C94871CE2
:103520008091190285958595859508958091190258
:103530008770089590911902977081E009F480E0F6
:1035400008959091330292FB222720F9281751F019
:1035500080FB92F990933302809132029091330272
:103560000C94AC1B08958091330282FB882780F96C
:1035700091E089270C94A11A81E00C94A11A80E0B3
:103580000C94A11A80912502089590912502982B00
:10359000909325020895982F909580912502892374
:1035A0008093250208951092250208959091240297
:1035B000982B909324020895982F9095809124023F
:1035C00089238093240208951092240208959091F3
:1035D0002302982B909323020895982F9095809121
:1035E00023028923809323020895109223020895D1
:1035F00080911A02089508950C94FB1A9091330259
:1036000092FD08C090911A02981721F080931A0237
:103610000C94FC1A089580911A02882329F01092C4
:103620001A0280E00C94FC1A0895E0910801F091D0
:103630000901809125028083E0910801F091090140
:10364000808190912402892B8083E0910801F09180
:103650000901808190912302892B808390911A0225
:10366000992381F0E0910801F09109018081892B73
:10367000808380910801909109010E94371C81117B
:103680000E940B1B80910801909109010C949F0FDF
:1036900008950C94481B962F2091330222FD10C0F0
:1036A000682F660F660F660F692B609319020E94E0
:1036B0009618809119028595859585950C94491BDE
:1036C0000C9496181092190280E00C94491B90916A
:1036D00019028095892380931902282F277039F4C5
:1036E000282F082E000C330B9217130621F490910B
:1036F000330292FF07C08595859585950E94C7186E
:103700000C94621B089580E008956FEF7FEF90E0C6
:1037100080E00C94192590E080E00E94F5249C0143
:1037200081E02A3E3E4F09F080E0089582E090E07B
:103730000C94ED2483E090E00C94ED24CF9384E08E
:1037400090E00E94ED24C82F82E290E00E94ED24D8
:10375000982F8C2FCF910895CF93682FC92F84E095
:1037600090E00E94FB246C2F82E290E0CF910C94B9
:10377000FB24AB01BC018FE090E00C940D25AB0164
:10378000BC0183E190E00C940D2560E070E0CB017A
:103790000C94BF1B60E070E0CB010E94B91B0C943D
:1037A000C51B6AEE7EEF90E080E00E94192560E084
:1037B00082E090E00E94FB2460E083E090E00E94C1
:1037C000FB2410921502109216021092170210920A
:1037D000180260E084E090E00E94FB2460E082E256
:1037E00090E00E94FB2460E085E090E00E94FB24D2
:1037F00060E086E090E00E94FB246FEF87E090E0BD
:103800000E94FB2440E050E0BA0188E090E00E9472
:103810000D2560E08DE090E00E94FB2440E050E048
:10382000BA0188E190E00E940D2560E087E190E018
:103830000E94FB2440E050E0BA018CE190E00E943D
:103840000D2570E060E080E290E00E94192540E0E4
:1038500050E0BA0188E190E00E940D250C94CA1B4B
:103860000C94D11B682F8EE090E00C94FB24AC01EB
:103870009C012E5F3F4F485F5F4F80E02417350764
:1038800009F40895F90191919F019923B9F38F5F8C
:10389000F5CF9C01662351F0FC013296285F3F4F23
:1038A0008191861729F0E217F307D1F780E0089598
:1038B00081E008959C01FC0132968FEF90E04191E8
:1038C000461751F08F3F19F4411101C0892F9F5FB6
:1038D0009630A9F78F3F09F40895280F311D87FD11
:1038E0003A95F901628308959C01FC013296285FA4
:1038F0003F4F8191861303C0DF0111971C92E2179D
:10390000F307B9F708950C945A1C0C94741CFC012D
:10391000329686E0DF011D928A95E9F708950895B1
:1039200008950C94901C80914C02843049F10E94BF
:10393000911C80E00E9476041092270288E190E0BA
:1039400020E40FB6F894A895809360000FBE2093F2
:10395000600083B7817F846083BF83B7816083BF4A
:103960007894889583B78E7F83BF0FB6F894A89517
:1039700080916000886180936000109260000FBEAB
:1039800008950895CF930E948F1C0E9441070E94C2
:10399000C11CC0E08C2F0E94D806892B31F4CF5F68
:1039A000C430C1F780E0CF91089581E0FCCF089545
:1039B0000C94D71C0E944B140E94930F0E94760413
:1039C0000C94D81C1F921FB61F9211248F939F93A3
:1039D000AF93BF9380912702811113C0809144025D
:1039E00090914502A0914602B09147024196A11DD7
:1039F000B11D8093440290934502A0934602B09378
:103A00004702BF91AF919F918F911F901FBE1F9052
:103A1000189582E084BD93E095BD9AEF97BD8093A1
:103A20006E0008952FB7F89480914402909145025A
:103A3000A0914602B09147022FBF0895CF93DF9324
:103A400000D000D0CDB7DEB78FB7F89420914402F4
:103A500030914502409146025091470229833A83B2
:103A60004B835C838FBF69817A818B819C810F90AE
:103A70000F900F900F90DF91CF9108959C014FB759
:103A8000F8948091440290914502A0914602B09131
:103A900047024FBF821B930B089578941F921FB665
:103AA0001F9211248F939F93AF93BF9380914402F1
:103AB00090914502A0914602B09147020196A11D46
:103AC000B11D8093440290934502A0934602B093A7
:103AD0004702BF91AF919F918F911F901FBE1F9082
:103AE000189581E08093E00080E28093D8001092E6
:103AF000C9008FE19EE40197F1F700C0000087E064
:103B000090EBDC018093550290935602A0935702EC
:103B1000B093580288E19CE00FB6F894A895809382
:103B200060000FBE90936000FFCF9093930180934D
:103B300092010895809130020895CF93DF9300D0D1
:103B40000F92CDB7DEB790914C02943011F5898376
:103B50006A837B839093E9008FEF9091E800815016
:103B600095FD06C095ED9A95F1F700008111F5CF0E
:103B70008091E80085FF0DC050E040E063E070E018
:103B8000CE0101960E9401208091E8008E778093FB
:103B9000E8000F900F900F90DF91CF910895BC0136
:103BA00084E00C949D1DBC0183E00C949D1D24E0D9
:103BB0002093E9002FEF3091E800215035FD06C039
:103BC00035ED3A95F1F700002111F5CF2091E8008D
:103BD00025FF0BC050E040E066E070E00E9401204D
:103BE0008091E8008E778093E8000895CF93DF936B
:103BF000D82FC92F81E08093E9008FEF9091E800E2
:103C0000815095FD06C095ED9A95F1F70000811160
:103C1000F5CF8091E80085FF16C050E040E068E0F5
:103C200070E08D2F9C2F0E9401208091E8008E77FC
:103C30008093E80088E0ED2FFC2FA8E2B2E001902D
:103C40000D928A95E1F7DF91CF910895CF9360327D
:103C500011F520914C022430F1F42091E900C0913B
:103C6000EC00C795CC27C7952F70C22B22E020937C
:103C7000E9002091E80020FF0BC050E040E060E246
:103C800070E00E9401208091E8008E778093E80028
:103C9000CF70C093E900CF910895089508950895D5
:103CA00042E061EC81E00E94522142E261EC84E05A
:103CB0000E94522142E261EC82E00E94522142E2E3
:103CC00060EC83E00C94522180914E02893089F19E
:103CD00048F4823009F49CC0833009F457C0813025
:103CE00041F008958A3009F483C08B3009F469C02B
:103CF000089580914D02813A09F047C08091E80013
:103D0000877F8093E8008091510290915202892B25
:103D100061F468E088E292E070E00E949F20809168
:103D2000E8008B778093E800089560E090E080E001
:103D3000F3CF80914D02813241F5809151029091F3
:103D400052028D7F892B09F58091E800877F80934F
:103D5000E8008091E80082FF14C08091F200823078
:103D600029F48091F1008B7F813021F48091F10062
:103D7000809330028091E8008B778093E8000C9468
:103D8000862180914C028111E4CF089580914D02EB
:103D9000813AD9F78091510290915202892BA9F76B
:103DA0008091E800877F8093E8008091E80080FFA1
:103DB000FCCF809114018093F1008091E8008E7710
:103DC000DCCF80914D02813201F7809151029091B8
:103DD0005202892BD1F68091E800877F8093E8001A
:103DE0000E94862180914F02809314010C944B1401
:103DF00080914D02813249F68091E800877F80935F
:103E0000E8000E948621809150028093310208953B
:103E100080914D02813A09F0B8CF8091E800877F08
:103E20008093E8008091E80080FFFCCF8091310210
:103E3000C2CFCDB7DEB7A0970FB6F894DEBF0FBEE6
:103E4000CDBF84B7877F84BF0FB6F894A8958091C3
:103E50006000886180936000109260000FBE80E86F
:103E600090E00FB6F89480936100909361000FBECC
:103E70000E94FF0F0E94D6210E9429228091E20019
:103E800084608093E20078940E9484240E94111040
:103E90008AE091E00E948E0F13E080914C02853001
:103EA000B9F00E94191080914C028430C1F00E9438
:103EB0000D10F3CF0E94931C80914A02882341F099
:103EC0000E94C21C882321F00E94EB1F0E944B1409
:103ED00080914C02853071F30E94DA1CE2CF10937E
:103EE000E9008091E80082FFE2CF8091E80090E055
:103EF00085FF09C050E040E060E270E0CE0101962D
:103F00000E94502091E08091E8008B778093E80038
:103F1000992369F260E2CE0101960E942C0BC7CF73
:103F20000C94921FFC01CB01DA012F2F3327233091
:103F30003105D1F070F42130310509F447C0223049
:103F4000310569F48BE590E022EA32E02D933C9351
:103F5000089521323105E9F02232310539F190E03E
:103F600080E030E020E0F2CFCF019927E13059F036
:103F70008230910559F0EEE9F2E0892B81F78491C6
:103F800090E09F01E3CFEAE7F2E0F9CFE4E6F2E068
:103F9000F6CF6330710518F7880F991FFC01E457BD
:103FA000FE4F2081318189E090E0D0CF63307105F0
:103FB000B0F6FB01EE0FFF1FEA57FE4F2081318163
:103FC0008D579E4FFC01808190E0C0CF82E190E050
:103FD0002DEF32E0BBCF84E089BD86E089BD09B416
:103FE00000FEFDCF8091D8008F7D8093D800809116
:103FF000E00082608093E0008091E00081FDFCCFD2
:104000000895AF92BF92CF92DF92FF920F931F93CA
:10401000CF93DF936C01EB018A010E94A521F82E5A
:10402000811123C00115110539F0F80180819181BA
:10403000C81BD90BC80ED91EB12CA12C2097A9F0F2
:104040008091E80085FD22C08091E8008E77809302
:10405000E80001151105A1F0F801808191818A0D18
:104060009B1D9183808385E0F82E8F2DDF91CF916A
:104070001F910F91FF90DF90CF90BF90AF90089568
:104080000E94A5218823D1F2F82EEFCFF60181916D
:104090006F018093F1002197FFEFAF1ABF0ACECFD7
:1040A000AF92BF92CF92DF92FF920F931F93CF9365
:1040B000DF936C01EB018A010E94A521F82E81118A
:1040C00023C00115110539F0F80180819181C81BC9
:1040D000D90BC80ED91EB12CA12C2097A9F0809124
:1040E000E80085FD22C08091E8008B778093E8008E
:1040F00001151105A1F0F801808191818A0D9B1DA8
:104100009183808385E0F82E8F2DDF91CF911F91D1
:104110000F91FF90DF90CF90BF90AF9008950E94D5
:10412000A5218823D1F2F82EEFCF8091F100F6017E
:1041300081936F012197FFEFAF1ABF0ACECFFC0129
:10414000CB0120915302309154022617370790F08B
:10415000009729F42091E8002E772093E80040E0B2
:10416000009751F4411108C08091E80082FF30C0EF
:1041700080E00895C901F3CF20914C022223A1F1E0
:104180002530A1F12091E80023FD2CC02091E8000A
:1041900022FDEACF2091E80020FFE2CF2091F2003B
:1041A00030E0009719F02830310558F041E0283010
:1041B000310509F040E02091E8002E772093E800D7
:1041C000CFCF41914093F10001972F5F3F4FE9CF4F
:1041D00080914C02882341F0853041F08091E800C5
:1041E00083FFC2CF81E0089582E0089583E00895BF
:1041F000FC01CB012091530230915402261737075E
:1042000090F0009729F42091E8002E772093E800A1
:1042100040E0009751F4411108C08091E80082FF0E
:1042200031C080E00895C901F3CF20914C022223D0
:10423000A9F12530A9F12091E80023FD2DC020919E
:10424000E80022FDEACF2091E80020FFE2CF209194
:10425000F20030E0009719F02830310558F041E0C5
:104260002830310509F040E02091E8002E772093B6
:10427000E800CFCF44914093F100319601972F5F32
:104280003F4FE8CF80914C02882341F0853041F0C8
:104290008091E80083FFC1CF81E0089582E0089516
:1042A00083E00895982F953028F08F708093E9006F
:1042B00081E008959093E900242F762F50E098171D
:1042C00031F07091EC002091ED005091F00021FD53
:1042D00002C09F5FE8CF3091EB003E7F3093EB0050
:1042E0003091ED003D7F3093ED003091EB00316077
:1042F0003093EB007093EC002093ED005093F000AE
:104300002091EE0027FDE5CF80E0089580914D02D9
:1043100087FF13C08091E80082FF06C08091E8000B
:104320008B778093E80004C080914C028111F2CF1A
:10433000089580914C028823D9F38091E80080FF92
:10434000F8CF8091E8008E77ECCF2091E400309197
:10435000E50095E6A9012091EC00822F817020FFF5
:1043600006C08091E80080FF06C080E0089520919B
:10437000E80022FD1AC080914C02882389F0853024
:1043800089F08091EB0085FD0FC02091E400309111
:10439000E50042175307F9F29150E1F684E00895E1
:1043A00082E0089583E0089581E008950E94332219
:1043B0000E943622E0EEF0E0808181608083E8EDAB
:1043C000F0E080818F77808319BCE3E6F0E08081A4
:1043D0008160808310924B0208950E9433220E94D4
:1043E00036228091D8008F778093D8008091D800B2
:1043F00080688093D8008091D8008F7D8093D8000A
:1044000084E089BD86E089BD09B400FEFDCF10922D
:104410004C021092480210924A021092490242E065
:1044200060E080E00E9452218091E1008E7F8093C5
:10443000E1008091E20081608093E2008091E200DF
:1044400088608093E2008091E0008E7F8093E0009E
:104450000895E3E6F0E080818E7F808381E08093A1
:104460004B020C94ED211092E20008951092E100AD
:1044700008951F920F920FB60F9211242F933F931E
:104480004F935F936F937F938F939F93AF93BF935C
:10449000EF93FF938091E10082FF0BC08091E200D7
:1044A00082FF07C08091E1008B7F8093E1000E9432
:1044B00083248091E10080FF19C08091E20080FF99
:1044C00015C08091E2008E7F8093E2008091E2002F
:1044D00080618093E2008091D80080628093D80050
:1044E00019BC85E080934C020E944E1E8091E10031
:1044F00084FF29C08091E20084FF25C084E089BD4B
:1045000086E089BD09B400FEFDCF8091D8008F7D83
:104510008093D8008091E1008F7E8093E1008091AC
:10452000E2008F7E8093E2008091E20081608093C0
:10453000E20080914802882309F443C084E080931C
:104540004C020E944F1E8091E10083FF29C08091A0
:10455000E20083FF25C08091E100877F8093E10026
:1045600082E080934C02109248028091E1008E7F9D
:104570008093E1008091E2008E7F8093E200809141
:10458000E20080618093E20042E060E080E00E940F
:1045900052218091F00088608093F0000E944D1EAF
:1045A000FF91EF91BF91AF919F918F917F916F910B
:1045B0005F914F913F912F910F900FBE0F901F90E1
:1045C00018958091E30087FD02C081E0B8CF83E0B9
:1045D000B6CF1F920F920FB60F921124FF920F9336
:1045E0001F932F933F934F935F936F937F938F937B
:1045F0009F93AF93BF93CF93DF93EF93FF9309EE16
:1046000010E0F8018081C091EC00C795CC27C795D8
:104610008F70FC2EF82A1082C0EFD0E08881877F4F
:10462000888378940E943223F80110828881886000
:104630008883CF2DCF70C083FF91EF91DF91CF9111
:10464000BF91AF919F918F917F916F915F914F91AA
:104650003F912F911F910F91FF900F900FBE0F90E0
:104660001F9018951F93CF93DF93CDB7DEB7AA970E
:104670000FB6F894DEBF0FBECDBF8DE492E0FC0113
:1046800001962091F100208322E085359207B9F749
:104690000E94641E8091E80083FF1DC180914D023D
:1046A00090914E029A3008F016C1E92FF0E0E158DF
:1046B000FA4D0C94CC24803899F0823809F00BC163
:1046C000809151028F70853008F005C18093E90018
:1046D0008091EB0085FB882780F91092E90006C0E5
:1046E0008091490290914A02911182609091E80074
:1046F000977F9093E8008093F1001092F1008091F1
:10470000E8008E77E4C0882309F4D2C0823009F033
:10471000E2C080914F028111D5C0809151028F700B
:104720002FEF280F243008F0D6C08093E9002091A5
:10473000EB0020FFC7C0933031F48091EB00806222
:104740008093EB00BFC09091EB0090619093EB00E1
:1047500021E030E001C0220F8A95EAF72093EA00B9
:104760001092EA008091EB008860EACF8111B3C01B
:1047700010914F021F778091E3008078812B809306
:10478000E3008091E800877F8093E8000E94862103
:104790008091E80080FFFCCF8091E30080688093E7
:1047A000E30082E0111183E080934C0294C08058B2
:1047B000823008F090C080914F02909150028C3D61
:1047C00023E0920799F583E08A838AE289834FB7D1
:1047D000F894DE01139620E03EE051E2E32FF0E092
:1047E00050935700849120FF03C082958F703F5FE4
:1047F0008F708A30C8F0895C90E08D939D932F5F15
:10480000243161F74FBF8091E800877F8093E800F3
:104810006AE270E0CE0101960E949F208091E8003C
:104820008B778093E80057C0805DE6CF609151029E
:1048300070915202AE014F5F5F4F0E94901FBC010A
:10484000892B09F448C08091E800877F8093E800B5
:1048500089819A810E94F820E1CF8038E1F580912A
:10486000E800877F8093E800809148028093F10000
:1048700046CF811130C090914F02923060F5809107
:10488000E800877F8093E800909348020E94862189
:1048900080914802882311F084E005C08091E300F4
:1048A00087FDFACF81E080934C020E94501E13C016
:1048B00080914F02813079F481E0933009F080E0FB
:1048C00080934A021092E9008091E800877F8093EC
:1048D000E8000E9486218091E80083FF0AC0809151
:1048E000E800877F8093E8008091EB0080628093EE
:1048F000EB00AA960FB6F894DEBF0FBECDBFDF91D6
:10490000CF911F9108950895CF9380914C028823F1
:1049100099F08091E900C091EC00C795CC27C7952C
:104920008F70C82B1092E9008091E80083FD0E94EF
:104930003223CF70C093E900CF910895002480FD09
:10494000060E660F11F08695D1F7802D089500248C
:10495000552704C0080E591F880F991F009729F08A
:1049600076956795B8F37105B9F7802D952F089561
:1049700097FB072E16F4009407D077FD09D00E940C
:10498000D92407FC05D03EF4909581959F4F08955A
:10499000709561957F4F0895EE0FFF1F0590F4917C
:1049A000E02D099469279627692778278727782794
:1049B0000895AA1BBB1B51E107C0AA1FBB1FA61766
:1049C000B70710F0A61BB70B881F991F5A95A9F7B8
:1049D00080959095BC01CD010895F999FECF92BDC7
:1049E00081BDF89A992780B50895A8E1B0E042E02A
:1049F00050E00C942125262FF999FECF92BD81BD60
:104A0000F89A019700B4021639F01FBA20BD0FB60C
:104A1000F894FA9AF99A0FBE08950396272F0E94E8
:104A2000FC240E94FB24252F0E94FC24242F0C949C
:104A3000FC240196272F0E94FC240C94FB24DC010B
:104A4000CB01FC01F999FECF06C0F2BDE1BDF89A99
:104A5000319600B40D9241505040B8F70895F89443
:104A6000FFCF8F08950898089E08B308B308B308CD
:104A7000B308B308A108A608AA08B008C108C70867
:104A8000CB08490B5F0B9F0BB70BC80BD50BD80B93
:104A9000D80BD80BD80BD80BDD0BE30BEF0BFE0BB1
:104AA000110C140C170C2A0CD90EDF0EE30EF10EAC
:104AB000F50EF90EFD0E030F0B0F0F0F130F170F4F
:104AC000230F270F2B0F2F0F350F530F3D0FED0E19
:104AD0001B0F1F0F070F390F490F5C0F600FDA1103
:104AE000DA113C123C129112AD120A120A12B812DB
:104AF000641375137513D6130A120A12DF135B239E
:104B000083236B2483236B24B623D7236B242D2488
:024B1000392446
:104B12002808641E140A321E1B029A1DF61DD71D98
:104B2200D31DCF1D0100000000E200E900EA00B53C
:104B320000B600B700CD008301CC008A0192019437
:104B4200012102230224022502260227022A02B39D
:104B520000B4006F00700037363534673096939496
:104B62009566326431E200E900EA00B500B600B7AA
:104B720000CD008301CC008A01920194012102231D
:104B82000224022502260227022A02B300B4006F81
:104B920000700040227BAC030F033103B402CD024C
:024BA200ED0222
:00000001FF
