:100000000C9466030C94AD030C94AD030C94AD03F7
:100010000C94AD030C94AD030C94AD030C94AD03A0
:100020000C94AD030C94AD030C94AD030C946132AD
:100030000C9411330C94032D0C94AD030C94AD036C
:100040000C94AD030C94AD030C94AD030C946E2D85
:100050000C94AD030C94AD030C94AD030C94AD0360
:100060000C94AD030C94AD030C94AD030C94AD0350
:100070000C94AD0300000000000000000000000030
:100080000000000000000000000000000000000070
:100090000000000000000000000000000000000060
:1000A0000000000000000000000000000000000050
:1000B0000000000000000000000000000000000040
:1000C0000000000000000000000000000000000030
:1000D0000000000000000000000000000000000020
:1000E0000000000000000000000000000000000010
:1000F0000000000000000000000000000000000000
:1001000000000000000000000000000000000000EF
:1001100000000000000000000000000000000000DF
:1001200000000000000000000000000000000000CF
:1001300000000000000000000000000000000000BF
:1001400000000000000000000000000000000000AF
:10015000000000000000000000000000000000009F
:10016000000000000000000000000000000000008F
:10017000000000000000000000000000000000007F
:10018000000000000000000000000000000000006F
:10019000000000000000000000000000000000005F
:1001A000000000000000000000000000000000004F
:1001B0000000000000000000000000002A2B2800C2
:1001C0000000000000000000000000000000002906
:1001D000000000002C1E3420212224342627252E46
:1001E000362D3738271E1F2021222324252633337E
:1001F000362E37381F0405060708090A0B0C0D0EAA
:100200000F101112131415161718191A1B1C1D2F75
:100210003130232D350405060708090A0B0C0D0E95
:100220000F101112131415161718191A1B1C1D2F55
:100230003130354C000000000000000000000000DC
:1002400000000000000000000000000000000000AE
:1002500000000000000000007E0F00D4FFFFFFC779
:1002600000000078FD377A585A000004E6D6B446FC
:100270000200210116000000742FE5A3E0083F01F1
:10028000E25D003D8889C65436C3174FE4DDF68B26
:10029000B92F46BF8CA0426777C332A7831A76076F
:1002A0003043F647CA332BF0775BDC8821F6FE2615
:1002B0000B3F21F66A934311A28DC741092388E3BE
:1002C0002754954214FE4304DDF2F3D47DA1430389
:1002D000F515A6F727480CB0B3D3CF33BD6DB15792
:1002E000C6F87838981892EA1A18470703FC922E35
:1002F000C75359EC3505AFABF37687C186D72A12C1
:100300006FB01533946BC8A1D121505FBA6B864191
:10031000F9521A396B709EDEA1BD82CF139EF9F996
:10032000259DAFEA6525CF3629FA8AA7D8B15FA106
:1003300073C15706F02C9F82CF5998A552E6D86416
:100340000BB62A3C8F5E5F1B5EA487265ADF43569E
:10035000C57CF91A96526BB34BD725BFF4DE1A440D
:10036000284FB04CC7BA5E14E6A75E30548C60BF0D
:1003700062BBC278D36E10A9C8E0C8B05DBF6F324F
:10038000DF83F030C7CC56526DBC99BA97BBCBD542
:1003900068B91E3A33BFD858D11B88C97932DEF408
:1003A000696B99FA01B585593F043712E3B52856B0
:1003B00038FCE8A236A2E333492976C84CFF5C6DCD
:1003C00082F8180F0CD0C029D200D1DCF7E509C0A3
:1003D0002576DB6A4A1C96CF52023A9293CB99C19A
:1003E0002569A3F80E8A8A57D956F4631F39BB12C0
:1003F000EF4CC25B8D7B8C7C3765B47A9233AFD186
:10040000EA8C9837393367E841E3EB9D33CC16D259
:100410008AF4E2A06D621CE498D7FE29D6FB5C59F1
:10042000591645AE0F139A0384FACC88DEDFC46BED
:10043000837F604FC7F989DE8A98344C447F09A4D2
:100440007EBB8B290637F3F61A09A69F2A0773F796
:10045000192DDA28C98A11442DE6FB1744903AA3D6
:1004600050247128000000006C30E026BC8CABD713
:100470000001FE03C0100000129B06C1B1C467FB5F
:10048000020000000004595A01000100810300002D
:10049000020002007D03000003000100820300004F
:1004A0000400020067039E1505000100830300009D
:1004B0000600020069030000070002007F0300003D
:1004C0000800010084030000090002006B03791595
:1004D0000A0002006D0379150B0002006F03791505
:1004E0000C000200710379150D00020073037915E9
:1004F0000E000200750379150F00020077037915CD
:100500001000020079037915110002007B037915B0
:1005100012000200850300001300020087030000A0
:100520001C037600690061006C003A00660036002A
:1005300034006300320062003300630000001403E3
:1005400045006E0064006500610076006F00750074
:100550007200000022035300630061007400740005
:100560006500720065006400440072006900660066
:1005700074006500720000000403090409025B00B6
:10058000030100A0FA090400000103010100092190
:10059000110100012240000705810308000A090437
:1005A00001000203000000092111010001222200C4
:1005B0000705820320000107050303200001090449
:1005C0000200010300000009211101000122810045
:1005D0000705840320000A120110010000000881B1
:1005E00064A2B40100010203010660FF0961A101D8
:1005F0000962150026FF0095207508810209631520
:100600000026FF00952075089102C005010902A18E
:100610000185020901A10005091901290515002517
:100620000195057501810295017503810105010997
:100630003009311581257F95027508810609381525
:1006400081257F950175088106050C0A3802158100
:10065000257F950175088106C0C005010980A101AB
:10066000850319012AB700150126B70095017510F9
:100670008100C0050C0901A101850419012AA0020D
:10068000150126A002950175108100C0050109061B
:10069000A101050719E029E7150025019508750155
:1006A00081029501750881010507190029FF1500D0
:1006B00026FF009506750881000508190129059592
:1006C0000575019102950175039101C011241FBEAA
:1006D000CFEFD4E0DEBFCDBF04B603FE27C08091CC
:1006E0009A0390919B03A0919C03B0919D03873046
:1006F000904BA740B04BD1F410929A0310929B03F9
:1007000010929C0310929D0314BE84B7877F84BF10
:100710000FB6F894A895809160008861809360007E
:10072000109260000FBEE0E0F8E3099511E0A0E050
:10073000B1E0E8EFFBE602C005900D92A03AB107E8
:10074000D9F723E0A0EAB1E001C01D92AA39B207AF
:10075000E1F70E943A2F0C9488350C9400009C011C
:10076000FB019A9581159F4118F5D901AA27B2700E
:10077000832F8170B90166277470A90144275870CE
:1007800034FF0CC08295807FAB2B09F08062672B11
:1007900009F08064452B09F080680994AB2B09F0BF
:1007A0008260672B09F08460452BB9F38860F5CF30
:1007B0000895CF93DF93EC01805E9109089720F0B4
:1007C0006DEA7FE1209711F46FE97FE1CE010E948D
:1007D000AF038C2FDF91CF910C94001FCF93DF9349
:1007E000EC010E944D1FCE01805E9109089720F018
:1007F00064EB7FE1209711F466EA7FE1CE01DF919F
:10080000CF910C94AF0381E0089581E008950C949A
:10081000050408950C9409041F93CF93DF9300D02F
:1008200000D00F92CDB7DEB749835A836B833091E6
:10083000010289819A8131111DC06623B9F02223FA
:10084000A9F00E94AE29182F682F89819A810E94F1
:100850004A2969817A81812F0F900F900F900F9014
:100860000F90DF91CF911F910C9468140E947E2904
:10087000182FEFCF0E94AE2969817A81EDCFFC015C
:10088000262F408151816281738184810C940C04F4
:10089000CF93DF93D82FC92F60E00E943F046D2FC4
:1008A0007C2FDF91CF910C940A048F929F92AF928C
:1008B000BF92CF92DF92EF92FF920F931F93CF934D
:1008C000DF9300D000D0CDB7DEB76B017C0181E0B3
:1008D00090E0A0E0B0E04C015D0104C0880C991CE0
:1008E000AA1CBB1C4A95D2F7B501A4014C015D01BD
:1008F00004C0880C991CAA1CBB1C2A95D2F7482955
:1009000059296A297B2904C0880F991FAA1FBB1F78
:100910000A95D2F78A019B010C211D212E213F212E
:100920000417150726073707F9F49C01AD012C2998
:100930003D294E295F2929833A834B835C83698152
:100940007A818B819C810F900F900F900F90DF9197
:10095000CF911F910F91FF90EF90DF90CF90BF90BC
:10096000AF909F908F90089580959095A095B095A9
:100970004C015D018C209D20AE20BF2089829A828F
:10098000AB82BC82DCCF0F93CF93DF9300D000D03B
:10099000CDB7DEB7262F042F409155025091560255
:1009A000609157027091580249835A836B837C830C
:1009B000482F69817A818B819C810E9455040F9018
:1009C0000F900F900F90DF91CF910F910C9404280E
:1009D0000E9486080E945F060C94BF080E94841B38
:1009E0000E94FF180E94521C0C94C20808950E9495
:1009F000D11F0E94F6042FEF84E39CE02150804039
:100A00009040E1F700C000000C94922D0F931F93CB
:100A1000CF93DF93EC018B010E94D71AB801CE016E
:100A20000E94F50C882309F44FC0B801CE010E9442
:100A30000704882309F448C0B801CE010E94201B96
:100A4000882309F441C0B801CE010E942A198823E5
:100A5000D9F1B801CE010E94B71C8823A9F1B801D1
:100A6000CE010E945F17882379F1B801CE010E9460
:100A7000B417882349F1B801CE010E948C1888234D
:100A800019F1F8018281882361F0CA35FDE5DF079D
:100A900021F170F4C115ECE5DE07A1F0CE3DDC4597
:100AA000C9F0C801DF91CF911F910F910C940304FD
:100AB000CB358DE5D807A1F0CC35DD4591F70E9407
:100AC000952AEFCF0E94F70480E0DF91CF911F912C
:100AD0000F9108950E94512CF7CF0E949E2AE1CFDA
:100AE0000E94A12ADECFCF93DF93D82FC92F61E0D8
:100AF0000E943F046D2F7C2FDF91CF910C9406054F
:100B0000DF92EF92FF920F931F93CF93DF93E82F23
:100B1000F0E0EC54FE4FD490282F2695269526958C
:100B200030E0F901EC5AFD4F0491877010E0082E77
:100B300002C0159507950A94E2F701701127F90193
:100B4000EC5BFD4FE490F12C082E02C0F594E79485
:100B50000A94E2F791E0E922FF24F901EC5CFD4FF1
:100B6000C491D0E002C0D595C7958A95E2F7C170CF
:100B7000DD270115110519F081EE0E94001FE11417
:100B8000F10419F086EE0E94001F8D2D0E94931F24
:100B9000EF2819F086EE0E944D1F012B19F081EE0F
:100BA0000E944D1FCD2B51F08CE2DF91CF911F9110
:100BB0000F91FF90EF90DF900C94931FDF91CF91F6
:100BC0001F910F91FF90EF90DF900895EF92FF92A9
:100BD0001F93CF93DF93EC01162F8881882309F4AC
:100BE00053C0813009F04DC089818130A1F47E016C
:100BF00082E0E80EF11C8A810E94931FE701219692
:100C0000812F882351F3EFE9FFE03197F1F700C01E
:100C100000008150F6CF823041F47E01E2E0EE0E1A
:100C2000F11C8A810E94001FE9CF833041F47E01CC
:100C3000F2E0EF0EF11C8A810E944D1FDFCF84305D
:100C400011F02196DCCF2A81229680E090E0FE010F
:100C500031962053330B2A30310550F0009779F24A
:100C6000EFE9FFE03197F1F700C000000197F6CF00
:100C70006AE070E00E94CF34820F931F2981EF0158
:100C8000E6CF0E948005BBCFDF91CF911F91FF90EF
:100C9000EF90089560E00C94E60508950C944D06DD
:100CA00081E00895CF93C82F0E945006882319F041
:100CB000C1FF03C0299ACF9108952998FCCF219AAA
:100CC00029980895CF93C82F0E944E068C2FCF915C
:100CD0000C94520690E080E008950895FC01EE0F18
:100CE000FF1FEC59FD4F859194910895CF93DF93A9
:100CF0000E9468140E949307EC01811520E5920779
:100D000008F044C0C11580E4D80708F0B7C0C03E61
:100D1000D105F0F4C03CD10508F0A3C0C83AD10514
:100D200080F4C53AD10508F08EC0C130D10529F054
:100D3000CE010497813A910540F4CE01DF91CF9125
:100D40000895CF3BD10509F081C0D0E0C0E0F5CFD8
:100D5000C11520E2D20770F4CF3FD10509F068F742
:100D6000C83ED10550F3CE01805F9109D065409710
:100D700020F3EBCFC11580E3D80708F479C0CE018A
:100D80009927D3FD78C0EC01D06CD7CF811595455C
:100D900070F5C11584E5D80708F0A7C0C11523E593
:100DA000D20778F4C11582E5D80708F089C0C115CB
:100DB00021E5D20708F465C0DC2FCC27C16FD06ACB
:100DC000BCCF9E012370332781E090E002C0880FE2
:100DD000991F2A95E2F7C695C695D0E0B5E0CC0FED
:100DE000DD1FBA95E1F7C82BD92BDA68A6CFC1155C
:100DF0008AE5D807B0F4C11529E5D20708F085C007
:100E0000C11586E5D80708F475C0CE0198558F3F07
:100E1000910511F008F099CFDC2FCC27C06FD06A74
:100E20008CCFCE0190568115904208F08ECF8D2F39
:100E30008F710E942B0890E0982F882788279F7138
:100E40008C2BEC0160C0A497D06477CFC85AD0E057
:100E5000CC0FDD1FC25EDE4F0990D881C02DD46457
:100E60006CCFCE01805C91090E946E06EC0165CFCB
:100E7000CE019F70F9CFEC01D86C5FCFDF70D06AE4
:100E80005CCF9E01E4E036952795EA95E1F7237063
:100E90008C2F86958695837090E0F5E0880F991FDA
:100EA000FA95E1F7922BC37021E030E002C0220FE7
:100EB000331FCA95E2F7822B932BEC01DC683DCF00
:100EC0009E012370332781E090E002C0880F991FB4
:100ED0002A95E2F7C695C695D0E075E0CC0FDD1FE8
:100EE0007A95E1F7C82BD92BE9CFDC2FCC27C46F3B
:100EF000D06A23CF8C2F0E942B08C82FD0E0DC2F84
:100F0000CC27CC27DF71D06218CF8C2F8F700E9436
:100F10002B0834E0D695C7953A95E1F7CF709C2F12
:100F2000EC01D0690ACF803E910599F1C8F4813374
:100F3000910509F476C048F48932910509F46AC034
:100F40008A32910509F474C0089589339105D1F06E
:100F500082389105B9F08533910509F454C008959C
:100F6000843E910599F138F4823E9105F9F0833E73
:100F7000910509F10895863E910599F1873E910505
:100F8000B9F1089520917B022370A1F080EE90E0EA
:100F9000089520917B0220FD52C030917C0230FFE9
:100FA00009C024FF4FC090E080E004C020917B0284
:100FB00022FDF7CF089520917B0222FD46C030919B
:100FC0007C0230FDE3CF24FFF5CFEDCF20917C02F2
:100FD00021FFF0CF80917B0284FDE5CF87EE90E08A
:100FE000089520917B0223FFE5CF24FDDCCFF6CFCF
:100FF00020917B0223FD2CC030917C0231FFE3CF96
:1010000084EE90E0089520917B0225FFD3CF89E202
:1010100090E0089520917B0225FFCCCF85E390E0FE
:10102000089520917B0226FFC5CF8AE290E00895C3
:1010300020917B0226FFBECF81E390E0089589E3F3
:1010400090E0089583EE90E0089582EE90E0089598
:1010500086EE90E0089590917B0292FF06C0282FC3
:1010600028712830F9F4877F846093FF06C0282F09
:1010700028712831F1F4877E846120917C0220FF61
:1010800006C0382F38713830D9F4877F816021FF4E
:1010900006C0282F28712831D1F4877E816194FD04
:1010A000877E0895282F24712430F9F68B7F88607D
:1010B000DCCF282F2471243101F78B7E8861DDCFAE
:1010C000382F3171313019F78E7F8860E0CF282FAB
:1010D0002171213121F78E7E8861E1CF0C94C10C02
:1010E0000E9443098FE39CE90197F1F700C00000DB
:1010F0000E94430980E00E94DA0880FF04C00E9439
:101100006E080C94922D08950C947008CF93DF9381
:1011100000D000D0CDB7DEB70E94AC2B811102C049
:101120000E94512C0E94B72B80936F020E94BF2B0C
:1011300090937C0280937B020E9484080E94BB2BC8
:10114000282F30E050E040E0CA01B9010E94862714
:101150008091550290915602A0915702B091580289
:1011600089839A83AB83BC83BC01CD010F900F9020
:101170000F900F90DF91CF910C94022808950C945A
:10118000BE0808950C94C108E82FF0E0EE0FFF1F91
:10119000EB57FD4F21E030E002C0220F331F6A956C
:1011A000E2F7808191812823392381E0232B09F400
:1011B00080E00895E82FF0E0EE0FFF1FEB57FD4FA2
:1011C000808191810895089580EA8A95F1F70895C4
:1011D00000C008950C94E408F894E82FE295EF70AD
:1011E000F0E041A18F7021E030E0B90102C0660F4C
:1011F000771F8A95E2F7CB01962F9095942391A3C0
:1012000092A1892B82A378940895CF93DF9380E3F2
:101210000E94EC0881E30E94EC0882E30E94EC0843
:1012200083E30E94EC08CCE4D1E089910E94EC08B1
:1012300081E0C635D807C9F710927E0210927D0270
:1012400010928602109285021092800210927F0204
:1012500010928802109287021092820210928102EC
:1012600010928A02109289021092840210928302D4
:1012700010928C0210928B0284E00E94C309DF91CD
:10128000CF910C94E804AF92BF92DF92EF92FF925D
:101290000F931F93CF93DF93C6E5D1E00DE712E0E4
:1012A000D12CEE24E394F12C8991F894E82FE29567
:1012B000EF70F0E021A18F70A70102C0440F551F0D
:1012C0008A95E2F7CA01922F982B91A392A180955B
:1012D000892382A378940E94E808ACE4B1E030E06E
:1012E00020E0B12CA12C4D91E42FE295EF70E05E4F
:1012F000F0E0808190E04F7002C0959587954A9507
:10130000E2F780FD3BC0C701022E02C0880F991F83
:101310000A94E2F7A82AB92A2F5F3F4F2A303105F5
:1013200011F7FE01319780810E94EC080E94EA08C3
:10133000F80180819181A816B90619F1B182A082C5
:1013400081E0D82A0E5F1F4FF1E0CA35DF0709F0B0
:10135000ABCF2D2D44E065E872E08DE792E00E946E
:10136000C4090E94EE048D2DDF91CF911F910F9142
:10137000FF90EF90DF90BF90AF90089580E090E0F5
:10138000C9CF80E0DECF0895FF920F931F93CF93D4
:10139000DF93F82E092F162FD72FC42F222349F0C1
:1013A00081E08093A4010E94332D9093A301809348
:1013B000A2018091A4018823A1F08091A2019091C3
:1013C000A3010E945F2D069760F0EF2DF02FA12F53
:1013D000BD2F90E080E0D0E08C179D0744F0109284
:1013E000A401DF91CF911F910F91FF90089521915A
:1013F00031912D933D930196EFCF8091AB012091D8
:101400006F033091700380FF13C08091050190E05D
:10141000B9010E94CF349C013695279536952795C2
:1014200020383105A0F52115310599F1822F089555
:1014300081FF0AC08091050190E0B9010E94CF347C
:101440009C0136952795ECCF82FF08C0809105015D
:1014500090E0B9010E94CF349C01E2CF8091AA01B3
:101460008823F1F2409104016091050170E0841736
:1014700010F0C901EFCF90E00E94CF34B9010E9473
:10148000CF34642F70E00E94E0349B01C9CF8FE716
:10149000089581E008958091AB0180FF0CC06091B8
:1014A000010170E0759567957595679561157105F2
:1014B00059F1862F089581FF06C06091010170E007
:1014C00075956795F3CF6091010170E082FD0CC0C6
:1014D0006091A9016623A9F020910001809101018A
:1014E00090E0621730F0BC0160387105F8F28FE7C8
:1014F000089570E00E94CF34622F70E00E94F434AF
:10150000F3CF61E070E0D5CF81E00895805F803156
:1015100008F045C0E82FF0E0E657FA4C0C94083587
:101520000E94FD0981958093AF0108950E94FD09F5
:10153000FACF0E94FD0981958093AE0108950E9423
:10154000FD09FACF0E944B0A8093B00108950E94D2
:101550004B0A8195F9CF0E944B0A81958093B10186
:1015600008950E944B0AFACF8091AD01816080936B
:10157000AD0108958091AD018260F9CF8091AD01F8
:101580008460F5CF8091AD018860F1CF8091AD018D
:101590008061EDCF8091AB0181608093AB010895B4
:1015A0008091AB018260F9CF8091AB018460F5CF6F
:1015B000E82F3091AF012091AE019091B001809160
:1015C000B101E03FA1F437FD1092AF018091AE016F
:1015D0009091AF01892B11F41092AA018091B00172
:1015E0009091B101892B11F41092A9010895E13F66
:1015F00019F413164CF3EACFE23F29F427FFE6CFA4
:101600001092AE01E3CFE33F19F41216CCF3DECF14
:10161000E93F29F41916D4F61092B001D7CFEA3F6A
:1016200019F497FFD3CFF8CFEB3F29F487FFCECF44
:101630001092B101CBCFEC3F19F41816CCF3C6CF02
:10164000E45FEC3008F0C2CFF0E0E656FA4C0C94C0
:1016500008358091AD018E7F8093AD01B7CF809129
:10166000AD018D7FF9CF8091AD018B7FF5CF80915A
:10167000AD01877FF1CF8091AD018F7EEDCF80915D
:10168000AB018E7F8093AB01A1CF8091AB018D7FA9
:10169000F9CF8091AB018B7FF5CF0E94332D209144
:1016A000AE013091AF01232B21F08093A7019093DD
:1016B000A8012091B0013091B101232B21F080933A
:1016C000A5019093A6018CEA91E00C94751DCF9230
:1016D000DF92EF92FF920F931F93CF93DF9300D08F
:1016E00000D000D0CDB7DEB726E0ECEAF1E0CE01C5
:1016F0000196DC0101900D922A95E1F7C090AE01B0
:10170000D090AF01E090B001F090B1011092AE0125
:101710001092AF011092B0011092B1012C2D2D2921
:101720008C0191F08091A7019091A8010E945F2DFA
:10173000FC012091AA01222309F440C080910601F6
:101740008E171F0608F449C08E2D8F2991F08091C5
:10175000A5019091A6010E945F2DFC012091A90195
:10176000222309F47DC0809102018E171F0608F420
:1017700086C08091AE019091AF01892B9091B0010C
:10178000892B9091B101892B11F00E944D0B86E0BD
:10179000F801ACEAB1E001900D928A95E1F7269646
:1017A0000FB6F894DEBF0FBECDBFDF91CF911F9172
:1017B0000F91FF90EF90DF90CF90089580910701F7
:1017C00090E06AE070E00E94CF348E179F0708F027
:1017D000BBCF2F5F2093AA0102C02F3FD1F7CC20AF
:1017E00051F00E94FD096FEF1C140CF461E00E949F
:1017F000C6348093AE01DD2051F00E94FD096FEFE9
:101800001D140CF461E00E94C6348093AF018091F6
:10181000AE01882309F498CF2091AF01222309F467
:1018200093CF082E000C990B65EB70E00E94CF342B
:10183000992371F09093AE01822F220F990B65EBE3
:1018400070E00E94CF34992339F09093AF017CCFA0
:1018500081E08093AE01F0CF81E08093AF0174CF3F
:101860008091030190E06AE070E00E94CF348E170F
:101870009F0708F07ECF2F5F2093A90102C02F3F62
:10188000D1F7EE2051F00E944B0A6FEF1E140CF4BA
:1018900061E00E94C6348093B001FF2051F00E94A5
:1018A0004B0A6FEF1F140CF461E00E94C634809362
:1018B000B1018091B0012091B101882309F459CF81
:1018C000222309F456CF082E000C990B65EB70E02B
:1018D0000E94CF34992371F09093B001822F220F90
:1018E000990B65EB70E00E94CF34992339F0909307
:1018F000B1013FCF81E08093B001F0CF81E08093D0
:10190000B10137CF86E0ECEAF1E0DF011D928A9564
:10191000E9F71092AA011092A9011092AB01089563
:1019200083E290E00E943E358C3889F484E290E0B6
:101930000E943E35893D59F485E290E00E943E3593
:1019400091E0883909F090E0892F8170089580E056
:10195000FCCFCF93C82F6FEF81116CE883E290E04A
:101960000E944C356FEFC11169ED84E290E00E9456
:101970004C356FEFC11168E985E290E0CF910C948E
:101980004C3580E00E94A90C0C94A62B0895CF93AF
:10199000DF9300D000D0CDB7DEB786E290E00E94A2
:1019A0003E35282F30E050E040E0CA01B9010F90E9
:1019B0000F900F900F90DF91CF91089586E290E005
:1019C0000C944C350E94C60C0E94900C81110CC0E6
:1019D00060E070E0CB010E94DE0C0E942D130E949B
:1019E000D01481E00C94A90C0895CF939C01FB01C5
:1019F000C281CC2301F182519F45409720F58EEEA4
:101A0000820F0E94E014C0E08C2FCF91089581E0F6
:101A10000E943A2843E062E081E00E94C304F3CFD1
:101A200081E00E946B2843E062E081E00E94C304F1
:101A3000EBCF82E0F6CF80319F4591F321313F45D6
:101A4000C1F3C1E0E1CF2031EFE53E0701F382E0D1
:101A500021313F45E9F2D8CF2FEFFC0120830895D3
:101A6000EF92FF920F931F93CF93DF93CDB7DEB723
:101A70002E970FB6F894DEBF0FBECDBF8D839E8329
:101A8000162FAD81BE81EC918091C8019091C90162
:101A9000892B79F0EE3F31F511968C91833018F057
:101AA00085508330F8F4612F8D819E810E947E10D5
:101AB00019C0E43150F4EE2351F0E150E33138F431
:101AC000F0E0EA55FA4C0C940835EE3F61F3612FD3
:101AD0008D819E810E942C0D05C0ED81FE811182B9
:101AE00089E08283612F8D819E812E960FB6F894B6
:101AF000DEBF0FBECDBFDF91CF911F910F91FF9041
:101B0000EF900C94472EAD81BE8111968C9182305E
:101B100099F0833011F18130D1F60E943F2D0E945F
:101B20000E356F83788789879A87ED81FE8162837E
:101B3000738384839583D6CF0E94C70C0E940E3591
:101B40006B877C878D879E87AD81BE8112966D9352
:101B50007D938D939C931597C5CF8091CA019091E9
:101B6000CB01892B09F4BECFED80FE8000E0802FF1
:101B70000E94DA08F701928383830F5FF2E0EF0E91
:101B8000F11C0430A1F7AECFAD81BE8111968C91CE
:101B90001197823009F09BCF12968D919D910D90F7
:101BA000BC91A02D89839A83AB83BC83BC01CD01FA
:101BB0000E940E350E94DE0C95CFED81FE8143819F
:101BC000628181810E947212982789279827AD81AE
:101BD000BE8115969C938E93149784CFED81FE81E0
:101BE00024813581322723273227438162818181F5
:101BF0000E94941277CF0E942D1374CF8FEFAD8186
:101C0000BE818C936FCF0E948414ED81FE8181830D
:101C100069CF0E948614982789279827AD81BE81B5
:101C200012969C938E9311975DCFED81FE81218159
:101C300032819381692F70E09D3108F053CFAF015D
:101C40004C5F5F4F922F832F0E9489144BCF80915E
:101C5000CA019091CB01892B09F444CFAD81BE819B
:101C600011962D913C91129713969C911397692F81
:101C700070E09D3108F036CFAD014C5F5F4F922F81
:101C8000832F0E94AD142ECF0E94D0142BCF0E9420
:101C90005912BBCFAD81BE8111962D913C91129707
:101CA00013969C911397692F70E09D3108F01ACF1D
:101CB000AD014C5F5F4F922F832F0E94BB1312CF59
:101CC000ED81FE81218132819381692F70E09D3108
:101CD00008F008CFAF014C5F5F4F922F832F0E9417
:101CE000DE1300CF8091CA019091CB01892B09F4BA
:101CF000F9CE8D819E810E94472EFFEF21EE84E078
:101D0000F15020408040E1F700C000000E94922D79
:101D1000E9CE8F929F92AF92BF92CF92DF92EF92D5
:101D2000FF920F931F93CF93DF93CDB7DEB72A9720
:101D30000FB6F894DEBF0FBECDBF0DE812E0F12C58
:101D4000E12C83EBC82E8FE0D82E9DEDA92E9FE0CD
:101D5000B92E2CE0822E2FE0922EF801D182C08283
:101D6000B382A28295828482F58AE48ABE016F5F83
:101D70007F4F8E2D0E94CD12892B29F489859A855B
:101D8000F801938B828BFFEFEF1AFF0A0A5E1F4F59
:101D900088E0E816F10409F72A960FB6F894DEBF3A
:101DA0000FBECDBFDF91CF911F910F91FF90EF90AC
:101DB000DF90CF90BF90AF909F908F900895CF937A
:101DC000DF9300D000D00F92CDB7DEB790936603BB
:101DD00080936503811520E2920748F40F900F90DD
:101DE0000F900F900F90DF91CF910C94EE038EEF38
:101DF00089838A831B820E94332D8160782F4981D9
:101E00005A816B81892F0F900F900F900F900F9038
:101E1000DF91CF910C94A31E0F931F93CF93DF9369
:101E20008C01EB0162EB71E08C2F0E94CD12892BAB
:101E3000A1F48091850390918603009799F4DD27A2
:101E4000C454DE4F8881F80110821882833049F132
:101E500088F4813099F08230C1F0DF91CF911F91E9
:101E60000F910895EFE9FFE03197F1F700C000000E
:101E70000197E3CF8430D1F0853079F78091B201BA
:101E80009091B301009749F306C08091B4019091FD
:101E9000B501009799F3DF91CF911F910F910C94A9
:101EA000DF0E8091B6019091B701F3CF8091B80118
:101EB0009091B901009779F72091B2013091B30167
:101EC0008091B4019091B50121153105D9F20097A7
:101ED00011F7C901E0CFCF93DF9300D000D00F926C
:101EE000CDB7DEB79093660380936503811520E23A
:101EF000920748F40F900F900F900F900F90DF9182
:101F0000CF910C94D9038EEF89838A8381E08B83F0
:101F10000E94332D8160782F49815A816B81892FEE
:101F20000F900F900F900F900F90DF91CF910C9426
:101F3000A31ECF93DF93D82FC92F0E946B0F8091E0
:101F4000850390918603009731F48D2F9C2FDF91AC
:101F5000CF910C94DF0EEFE9FFE03197F1F700C06D
:101F600000000197F0CF0F931F93CF93DF938C0165
:101F7000862F62EB71E00E94CD12892BC9F4C091CB
:101F8000B201D091B301209799F0F801808183309C
:101F900069F4CE010E94990FCE010E94990FCE01E3
:101FA000DF91CF911F910F910C94990F8430B8F766
:101FB000DF91CF911F910F9108950F931F93CF93AE
:101FC000DF938C01EB0162EB71E08C2F0E94CD124C
:101FD000892B09F063C0FE01FF27D8018C91E454DE
:101FE000FE4F8130D1F419968C91199781115BC005
:101FF0001A968C91882309F456C082E080838091E0
:10200000B4019091B5010097D9F48091B2019091FB
:10201000B301009709F442C013C08230E9F5199664
:102020008C91199781112DC01A968C9181110EC037
:1020300083E080838091B6019091B701009719F1F8
:10204000DF91CF911F910F910C946B0F84E08083EF
:102050008091B8019091B901009791F78091B201F8
:102060009091B301009711F10E94990F8091B401F2
:102070009091B501009721F78091B2019091B30141
:10208000DFCF85E080838091B2019091B30100970A
:1020900029F00E94990FF0CF86E08083DF91CF91E5
:1020A0001F910F91089581E08083AFCF8091B4019B
:1020B0009091B501AECF0E94890EEDE3F3E011825D
:1020C000108281E090E09683858382E090E09387A0
:1020D000828783E090E0908B878784E090E0958B07
:1020E000848B85E090E0928F818F86E090E0978FDF
:1020F000868F87E090E094A383A30895DF92EF9208
:10210000FF920F931F93CF93DF93CDB7DEB72A973C
:102110000FB6F894DEBF0FBECDBF8C01603239F52B
:10212000DC011196EC911197EE3008F5F0E0E754E0
:10213000FA4C0C94083588E0EAE5F1E0DE011196EE
:1021400001900D928A95E1F7F80131968FE1DF0158
:102150001D928A95E9F784E0F801808388E0FE010A
:102160003196D801149601900D928A95E1F72A963E
:102170000FB6F894DEBF0FBECDBFDF91CF911F9198
:102180000F91FF90EF90DF90089584E28C9382E0AE
:1021900011968C93119712961C92129713961C927B
:1021A000E6CFFC01838190E0982F88272281820F5F
:1021B000911D092E000CAA0BBB0B45E0880F991F3F
:1021C000AA1FBB1F4A95D1F7AC01BD01405E5F4F0E
:1021D0006F4F7F4F481759076A077B0740F28432D9
:1021E000F2E09F07A105B10510F6453222E0520743
:1021F0006105710520F044E252E060E070E0481BA8
:10220000590BBC016C597D4FC8012A960FB6F89442
:10221000DEBF0FBECDBFDF91CF911F910F91FF9019
:10222000EF90DF900C94153540E250E06FEF70E0D6
:102230000E9427358091CA01D8018C938091C801F2
:1022400011968C93119712961C92129713961C92CA
:10225000139714961C92149781E015968C9387CF50
:1022600081E090E09093C9018093C80182E390E0FF
:102270009093C7018093C6010E94332D9093C501AE
:102280008093C40174CF8091C8019091C901892BBA
:1022900091F160E080E00E94C408E82E61E080E0F7
:1022A0000E94C408F82E8091C4019091C5010E943B
:1022B0005F2D8536910550F1EE2041F1FF2031F17F
:1022C0000E94332D9093C5018093C4018091C60173
:1022D0009091C70101979093C7018093C601892B04
:1022E00051F41092C9011092C80181E090E09093DE
:1022F000CB018093CA018091CA01F801808380914B
:10230000C80181838091C601828331CF82E390E04E
:102310009093C7018093C601EECF1092CB0110922B
:10232000CA0125CF40E250E0BC0112968D919C91EC
:102330002A960FB6F894DEBF0FBECDBFDF91CF91C6
:102340001F910F91FF90EF90DF900C942616BC0127
:102350006F5F7F4F4FE150E0FC01828193810E94CB
:102360005816D8018C9303CFBC016C5F7F4F4CE1B2
:1023700050E0FC01828193810E948616F2CF2A965A
:102380000FB6F894DEBF0FBECDBFDF91CF911F9186
:102390000F91FF90EF90DF900C94E515FC01828186
:1023A0008230E9F168F4811123C031968FE1DF01B9
:1023B0001D928A95E9F788E0F80180838183D7CE62
:1023C000833009F440C0843009F0D1CE13968C914B
:1023D0009AE03496DE01119601900D929A95E1F7FC
:1023E000BE016F5F7F4F0E941513F8018083BFCE3F
:1023F00013968C912AE0D22EFE0131967F01DF01E7
:10240000ED2D1D92EA95E9F7B7010E94CD12D80192
:102410008D93F70101900D92DA94E1F7A8CE13960F
:102420008C919AE03496DE01119601900D929A9566
:10243000E1F7BE016F5F7F4F0E94E512F8018083D4
:102440000E94890E94CE13968C919AE0D92EFE01AB
:1024500031967F01DF01ED2D1D92EA95E9F7B70175
:102460000E94FD12D4CF1F93CF93DF93CDB7DEB779
:102470002A970FB6F894DEBF0FBECDBF162FBE0150
:102480006F5F7F4F0E94FD12892B31F489859A85F9
:10249000112361F00E946B0F2A960FB6F894DEBFED
:1024A0000FBECDBFDF91CF911F9108950E94DF0E27
:1024B000F3CF84E00895E82F862F90E064E170E088
:1024C0000E94CF3450E0440F551F9C01240F351F4C
:1024D0008E2F90E060E570E00E94CF34820F931F52
:1024E000879608950F931F93CF93DF93982F962B82
:1024F0009430B8F44A30A8F40E945B128C010E9418
:102500003E35C82FD0E0DC2FCC27C80101960E94B1
:102510003E359E01282BC901DF91CF911F910F916C
:10252000089590E080E0F8CF0F931F93CF93DF934F
:10253000E901982F962B9430D0F44A30C0F421153D
:102540003C4531F42091CA013091CB01232B79F025
:102550000E945B128C016D2F0E944C356C2FC801BC
:102560000196DF91CF911F910F910C944C35DF9123
:10257000CF911F910F9108958232910520F48959CE
:102580009E4F0C943E3580E008958232910520F4F0
:1025900089599E4F0C944C350895362F272F88303B
:1025A00088F490E06AE070E00E94CF34BC01675785
:1025B0007E4F4AE050E0832F922F0E942E3590E00C
:1025C00080E008958FEF9FEF0895362F272F8830F2
:1025D00088F490E06AE070E00E94CF34BC01675755
:1025E0007E4F4AE050E0832F922F0E94703590E09A
:1025F00080E008958FEF9FEF0895362F272F8830C2
:1026000088F490E06AE070E00E94CF34BC01675229
:102610007E4F4AE050E0832F922F0E942E3590E0AB
:1026200080E008958FEF9FEF0895362F272F883091
:1026300088F490E06AE070E00E94CF34BC016752F9
:102640007E4F4AE050E0832F922F0E94703590E039
:1026500080E008958FEF9FEF08958F929F92AF9241
:10266000BF92CF92DF92EF92FF920F931F93CF937F
:10267000DF93CDB7DEB764970FB6F894DEBF0FBE19
:10268000CDBFA090CA01B090CB0181E090E09093C3
:10269000CB018093CA01F12CE12CC70168E270E004
:1026A0000E94CF348C01912C15C0F60125913491F4
:1026B000482D692D8E2D0E94941222E0C20ED11C4D
:1026C00083943AE08312F1CF065F1F4F939484E026
:1026D000981649F0C801880F991FDC01AC58BF4F0C
:1026E0006D01812CE2CFBFEFEB1AFB0A24E0E2166A
:1026F000F10499F60E94E5151C861B861E861D8630
:10270000188A1F861A8A198A88EC90E09C8B8B8B1A
:1027100010E0BE01655F7F4F812F0E94E5121F5FB1
:102720001830B9F7FE0131968AE0DF011D928A95D3
:10273000E9F710E0FE2E0F2F6F2D702F812F0E94D2
:1027400015131F5F1830C1F7B092CB01A092CA01D8
:1027500064960FB6F894DEBF0FBECDBFDF91CF9168
:102760001F910F91FF90EF90DF90CF90BF90AF90AF
:102770009F908F900895EF92FF920F931F93CF93A6
:10278000DF938C01EA017A01E60EF71EC8018796F5
:10279000CE15DF0539F4DF91CF911F910F91FF9096
:1027A000EF900895003421E0120730F40E943E3586
:1027B00089930F5F1F4FEACF80E0FACF6F927F922D
:1027C0008F929F92AF92BF92CF92DF92EF92FF9241
:1027D0000F931F93CF93DF93EC017B018A01803429
:1027E0009140C8F480E491E08C1B9D0B86179707FD
:1027F00090F03E0137E2630E711C8091CA01909106
:10280000CB01892BB9F0E00EF11ECE0187960E1593
:102810001F0509F051C0DF91CF911F910F91FF90DB
:10282000EF90DF90CF90BF90AF909F908F907F9070
:102830006F9008956E0181E0C822DD24C0FF0FC0B3
:10284000CE0186960E943E35F8019081892798270F
:10285000892781159C4519F48FEFF8018083CE01FB
:102860008E0D9F1D570180FF13C0F1E0AF1AB10814
:1028700048018A0C9B1CC3018E0D9F1D0E943E3592
:10288000F401908181159C4519F48FEFF401808348
:10289000F801EC0DFD1D2FEFCA14DB0408F0B3CFD7
:1028A0009081818181159C4511F42083218382E0F0
:1028B000C80ED11C3296F0CFC034E1E0DE0720F420
:1028C000F80160810E944C350F5F1F4F21969DCF0C
:1028D000462F672F2091C8013091C901232B89F41D
:1028E0007E3F39F44E3F69F4809165039091660311
:1028F0000895982F972B943020F44A3010F40C94BC
:10290000721290E080E0089580E1089587ED91E0F3
:102910000895EF92FF920F931F93CF93DF938C0153
:10292000EA017A01E60EF71EC801875D9D4FCE15BC
:10293000DF0539F4DF91CF911F910F91FF90EF9058
:102940000895073D21E0120730F40E943E35899337
:102950000F5F1F4FE9CF80E0FACFEF92FF920F9306
:102960001F93CF93DF938C01EA017A01E60EF71EE5
:10297000C801875D9D4FCE15DF0539F4DF91CF91FA
:102980001F910F91FF90EF900895073D21E01207EE
:1029900018F468810E944C3521960F5F1F4FE8CFD5
:1029A000CF93DF93C9E2D2E060E0CE010E944C35C4
:1029B0002196C11584E0D807B9F7DF91CF9108952A
:1029C000CF92DF92EF92FF920F931F93CF93DF93FB
:1029D00000D000D0CDB7DEB7F82E2FE0281740F09A
:1029E0008FEF93E00E943E3509E212E08823C9F0A0
:1029F0000F900F900F900F90DF91CF911F910F913B
:102A0000FF90EF90DF90CF900895011544E01407F8
:102A100079F3C8010E943E35811101C0FA940F5F1D
:102A20001F4FF110F2CF80911A0190911B01A091DC
:102A30001C01B0911D0189839A83AB83BC8378010B
:102A40005FEFE51AF50AC8010E943E3589831A82B4
:102A5000882371F2813009F046C0680182E0C80E17
:102A6000D11CC7010E943E35E82E8A83882309F4D1
:102A7000BFCFC6010E943E35F82E8FEF8E0D8330FA
:102A800068F46801E3E0CE0ED11CFB82FF2021F048
:102A9000CE0101960E944A068601D1CFF4E0EF12E2
:102AA000FBCF680124E0C20ED11CC80103960E942E
:102AB0003E35FF2009F49CCF882309F499CF81503B
:102AC000990B6FEF70E00E94CF344F2D4150550BA2
:102AD000840F951F019700F3EFE9FFE03197F1F7BD
:102AE00000C00000F7CFCE0101960E944A066701A0
:102AF000D3CFE7E6F3E0848195812AE030E0B901A5
:102B00000E94E034609307018681809306018285EC
:102B10008093050184858093040186859785B9019A
:102B20000E94E034609303018089809302018289CE
:102B30008093010184898093000108958091670347
:102B4000909168030C94871C0F931F93CF93DF938E
:102B500007E613E0D0E0C0E0CE010E94BC12F8010D
:102B600061918F01861719F0CE010E94C51221963E
:102B7000C232D10589F7DF91CF911F910F9108954E
:102B80000F931F93CF93DF9307E613E0D0E0C0E0ED
:102B9000CE010E94BC12F80181938F012196C232AE
:102BA000D105B1F7CEE8D4E0FE018591949100976C
:102BB00011F0FC0109952896F5E0C632DF07A1F770
:102BC000DF91CF911F910F910895E7E6F3E0128E08
:102BD000138E8FEA90E09183808385E0848F88E86C
:102BE00093E1938382832CE231E03583248382E373
:102BF00090E09783868385E090E0918780878AE0E4
:102C000090E09387828744E150E055874487378777
:102C1000268724E630E0318B208B28E030E0338BB0
:102C2000228B28E230E0358B248B28EC30E0378B88
:102C3000268B318F208F158E978F868F80E590E0C1
:102C400091A380A30E94A4150C94C015EF92FF924B
:102C50000F931F93CF93DF937C01EB018A016FEFFA
:102C600070E0CE010E94273528E834E0A0E2B5E00C
:102C700090E080E0AC014E5F5F4F0417150788F0CD
:102C8000F90165917491E616F70630F48C0F9D1FDB
:102C9000FC0171836083CA01285F3F4FA217B3070D
:102CA00049F7DF91CF911F910F91FF90EF90089519
:102CB000CF93DF93EC01CB01DA0128E834E0F9018E
:102CC00045915491C417D50749F0285F3F4F45E01F
:102CD00020323407A1F78FEF9FEF15C0A9014E5F97
:102CE0005F4FFA0165917491A617B707A0F3FA0137
:102CF000459154912C5F3F4FF901659174910E9469
:102D00001E3590E080E0DF91CF910895CF93DF935F
:102D1000DC019A01C8E8D4E0FE0185919491A817DE
:102D2000B90741F0289685E0C032D807A9F78FEFA0
:102D30009FEF1DC0CE010296FC01459154912417CE
:102D40003507A8F3FC0145915491FE013496859115
:102D500094910E941E350E94A415FE01369685911D
:102D60009491009711F0FC01099590E080E0DF91CB
:102D7000CF91089580917F03909180030895809171
:102D800084038170089580918403869581700895ED
:102D90008091840382FB882780F9089580918403C1
:102DA00083FB882780F90895AF92BF92CF92DF927C
:102DB000EF92FF920F931F93CF93DF937C015B0100
:102DC000C42FD22FFC0182818823F9F04093CE01D9
:102DD0000E94332D9093CD018093CC0180E28C0F23
:102DE000883008F061C0C77081E001C0880FCA95C3
:102DF000EAF7DF91CF911F910F91FF90EF90DF9055
:102E0000CF90BF90AF900C949F1F1091CE011413E0
:102E100040C08091CC019091CD010E945F2D6C014A
:102E2000B701C5010E94BA16C816D90690F5C0E2CE
:102E3000CD0F1D17B9F080E2810F883040F4177074
:102E400081E001C0880F1A95EAF70E94A61FC830DA
:102E500048F481E09D2F977001C0880F9A95EAF79A
:102E60000E949F1F802F0E94931FC830E8F4D770E4
:102E700081E001C0880FDA95EAF7DF91CF911F91C9
:102E80000F91FF90EF90DF90CF90BF90AF900C9498
:102E9000A61F80E28C0F883038F4C77081E001C033
:102EA000880FCA95EAF7E9CFDF91CF911F910F9173
:102EB000FF90EF90DF90CF90BF90AF9008950F9369
:102EC0009C01CB01233F4CE53407A1F190F4283D50
:102ED000FCE53F0749F1293D4CE53407E9F1273D81
:102EE0003C45C1F0FC0182818823E1F11092CE01C2
:102EF00019C0253FFCE53F0719F1263F4CE5340793
:102F000029F1243F3C4571F707E225EE44EE64EFDA
:102F10007CE505C006E221EE41EE67ED7CE50E940E
:102F2000D41680E00F91089507E225EE45EE68ED96
:102F30007CE5F5CF06E221EE40EE63EF7CE5EFCFD6
:102F400006E221EE42EE65EF7CE5E9CF07E225EEF1
:102F500046EE66EF7CE5E3CF08E221E045EE69ED61
:102F60007CE5DDCF81E0DECFCF93DF93EC01FB0189
:102F70008281882309F4CEC0C631FCE5DF07E0F486
:102F8000C2309CE5D907F0F00E94BF2B90937C02E1
:102F900080937B02C631ECE5DE0720F5C230FCE50C
:102FA000DF0798F480917B0290917C020E94CD2BE8
:102FB0000E94D11F80E006C09E012A5F3C45293057
:102FC000310510F3DF91CF910895FE01E350FC45E8
:102FD00080917B028160E331F105B0F4E953FA4C52
:102FE0000C940835CE018A5F9C450997D8F6FE01FE
:102FF000EB5FFC45E830F10590F4E652FA4C0C9496
:10300000083580917B02826080937B02CBCF8091D8
:103010007B028460F9CF80917B028860F5CF80913C
:103020007C02816080937C02BDCF80917C028260B3
:10303000F9CF80917B028061E7CF80917B02806233
:10304000E3CF80917B028064DFCF0E94D11F80910B
:103050007B028068D9CF80917B028C60D5CF809134
:103060007C028360DFCF80917B028E7FCDCF809109
:103070007B028D7FC9CF80917B028B7FC5CF8091F2
:103080007B02877FC1CF80917C028E7FCBCF8091E6
:103090007C028D7FC7CF80917B028F7EB5CF8091E0
:1030A0007B028F7DB1CF80917B028F7BADCF0E9461
:1030B000D11F80917B028F77A7CF80917B02837F86
:1030C000A3CF80917C028C7FADCF80917B0282FB6D
:1030D000992790F921E0922790FB82F990FB83F9E0
:1030E00093CF80917C02982F909591708E7F892B41
:1030F00090FB81F997CF0E94D11F90917B02892F7D
:1031000097FB87F9805880CF81E00E94532C4ACFEB
:1031100080E0FBCF81E056CFCF93DF93EB01863188
:103120009C4509F03BC00E94A42A982F9A7A2091CE
:10313000810320FF04C0382F347409F090E021FF90
:1031400004C0382F317109F090E022FF04C0382FFD
:10315000387809F090E023FF03C0827209F090E014
:103160008A81882389F081E0911101C080E08093F9
:10317000CF0189E2911185E30E94262A0E941F2B2C
:1031800080E0DF91CF9108958091CF01811104C03B
:1031900089E20E942D2AF2CF85E3FBCF81E0F1CFB7
:1031A000EDE3F3E083E0E536F80739F488E090E0FA
:1031B0009093E1018093E0010895848187FF148258
:1031C0003596F0CFCF939091DE019923B1F088230B
:1031D00091F0C0E0EC2FF0E0EE0FFF1FE053FE4F48
:1031E000808191810E94D9030E941F2BCF5F809123
:1031F000DE01C81778F31092DE01CF910895809117
:1032000008018823A1F08091E2019091E3010097E9
:1032100071F00E945F2D20917D0330917E0328176D
:10322000390728F481E00E94E2180C94D018089520
:10323000109208011092E3011092E20181E00C94D7
:10324000E2188091080181110C94181981E0809393
:10325000080108953F924F925F926F927F928F92F2
:103260009F92AF92BF92CF92DF92EF92FF920F9315
:103270001F93CF93DF93CDB7DEB72A970FB6F8949D
:10328000DEBF0FBECDBF6C015B01873F4CE59407ED
:1032900001F5FB011281112389F181E0809308017E
:1032A000812F2A960FB6F894DEBF0FBECDBFDF91F7
:1032B000CF911F910F91FF90EF90DF90CF90BF9033
:1032C000AF909F908F907F906F905F904F903F90C6
:1032D0000895883FFCE59F0739F4FB011281112313
:1032E00069F00E941819DCCF893F9C4539F4FB0135
:1032F0001281112319F00E942119D2CF5090080198
:1033000011E0552069F2F12CE12C10E0882483941F
:10331000912C4424439419C0C70165E070E00E94D9
:10332000CF34FC01E35CFC4FBE016F5F7F4F8081B7
:103330000E94FD12892B09F100E0102BE090E001C2
:10334000F090E101FFEFEF1AFF0AF092E101E09245
:10335000E00148E0E416F104F8F28091DF018823EF
:1033600009F4A7C00E94332D9093E3018093E201FA
:103370001092DF0181E0182793CFFE01319690E093
:1033800080E033243A94282F419151914115510501
:1033900081F1C416D50609F4382E019684309105C2
:1033A00091F724E0FFEF3F1639F2F5010281A40105
:1033B00002C0440F551F2A95E2F79A0121503109A6
:1033C000C70165E070E00E94CF34FC01E35CFC4F74
:1033D0003F018481002389F1A40101C0440F3A9484
:1033E000EAF7842B84838F778217130631F0052D3B
:1033F000A4CF823008F4A0CFD5CF80E00E94E2189D
:10340000F301848180688483C70165E070E00E94D5
:10341000CF34FC01E35CFC4F82819381009729F05B
:103420000E94D9034092DF0188CF61E08091E001E2
:103430009091E1010E943312F5CF8F778217130626
:1034400031F482819381009761F10E94EE03C701FC
:1034500065E070E00E94CF34FC01E35CFC4F4481E6
:10346000842F90E0032C02C0959587950A94E2F78B
:1034700080FF62CF940101C0220F3A94EAF72095B1
:103480002423248327FF58CF203809F0B0CFC70169
:1034900065E070E00E94CF34FC01E35CFC4F1482D5
:1034A000A6CF60E08091E0019091E1010E9433128B
:1034B000CECF111106C081E00E94E2180E94D01800
:1034C00059CFF5018281882309F454CF0E94332D0E
:1034D0009093E3018093E201E091DE01E73008F090
:1034E00049CF81E08E0F8093DE01F0E0EE0FFF1FE9
:1034F000E053FE4FD182C0823DCFCF93DF93EC01EA
:1035000081E0898B8F810E94A72A88850E94BB2A2F
:103510000E941F2BEA81FB81309739F06C897D89ED
:10352000CE010696DF91CF910994DF91CF91089556
:103530000F931F93CF93DF93EC018A85811132C0E3
:103540000B811C811755C80166E170E00E94CF34E1
:10355000DC01A357BD4F1496ED91FC911597309760
:1035600031F054966D917C918D569D4F0995C8010F
:1035700066E170E00E94CF348C0103571D4FF801C3
:1035800087810E94AD2AF80180850E94C12A0E948D
:103590001F2B188219861B861E821D821092E50140
:1035A0001092E401DF91CF911F910F910895DF9266
:1035B000EF92FF920F931F93CF93DF938C01FB0148
:1035C0008281882391F0809109018F3F71F0CDE8CD
:1035D000D2E0F12CE12CDD24D39480910901082E56
:1035E000000C990B8E159F0544F4DF91CF911F912C
:1035F0000F91FF90EF90DF9008958E818823D9F08E
:1036000089859A858017910739F48091E40190911A
:10361000E5018017910779F0DF861C870B87898980
:10362000811103C0CE010E947D1ACE0106960E9430
:10363000981A0E94C92AFFEFEF1AFF0A6696CDCFAB
:10364000EF92FF920F931F93CF93DF937C01FB01C7
:103650008C0117550F3F110511F008F03EC0809105
:103660000901082E000C990B8017910714F40093A0
:1036700009012281C80166E170E00E94CF34EC01AB
:10368000C357DD4F288B92818E81992371F1FA8681
:10369000E9868F5F8E830E94332D9E878D870E94DF
:1036A000DD2A8F830E94A42A88870E94B82A9885E1
:1036B000982B9887E881F981309759F02C893D89BA
:1036C000C80166E170E00E94CF34B9018D569D4F6C
:1036D0000995F092E501E092E40181E0DF91CF915C
:1036E0001F910F91FF90EF9008958823B1F389897E
:1036F000882399F3C80166E170E00E94CF348D56AB
:103700009D4F0E94981AE9CFDF92EF92FF920F939C
:103710001F93CF93DF9380910901F12C8F3F09F024
:103720004BC0DF91CF911F910F91FF90EF90DF90F1
:103730000895CE0166E170E00E94CF34FC01E357AA
:10374000FD4F028913890115110539F470E060E01D
:10375000818592850E94BA168C01CE0166E170E0E7
:103760000E94CF34FC01E357FD4F8681882319F175
:10377000858596850E945F2D08171907E0F48D2D29
:103780009E2D66E170E00E94CF348C01CE0166E18F
:1037900070E00E94CF34FC01E357FD4F8189811115
:1037A00005C0C80183579D4F0E947D1AC8018D56E0
:1037B0009D4F0E94981AF394CF2DD0E0809109017B
:1037C000082E000C990BDF2CED2E8C179D070CF0AA
:1037D000B0CFA7CFFF920F931F93CF93DF938C01AE
:1037E000EB01F42E80910A0182FF4BC08B7F809306
:1037F0000A018091E8019091E9019B01281B390B96
:10380000C90120910B0130910C0182179307B8F484
:103810008091E6010E94001F80910A018D7F8093B4
:103820000A018091850390918603009711F580919C
:10383000E6010E944D1F82E00E94C12A2CC082E056
:103840000E94BB2A8091E6010E94001F80910A011C
:10385000826080930A018091820385FFE2CF86FD1A
:10386000E0CFFF20F1F2DF91CF911F910F91FF90F8
:103870000895EFE9FFE03197F1F700C000000197EC
:10388000D4CF802F0E944D1F8091E6019091E701D7
:103890008017910781F20E941F2BD093E901C093FA
:1038A000E801E1CF8091820380FF1DC080910A0171
:1038B00082FF19C00E94332DBC018091E8019091D4
:1038C000E9019B01281B390BC90120910B013091A3
:1038D0000C018217930738F041E08091E601909146
:1038E000E7010C94EA1B089590910A01892F8E7FBD
:1038F00090FF816080930A0182E00C94C12A80913C
:103900000A018E7F80930A0182E00C94C12A909371
:103910000C0180930B0108959C018832910568F495
:103920004E97E8F42450310980918203829581708A
:103930002A313105C8F080E008958933910558F4A3
:103940008D32910510F48B97B1F78091820382FB41
:10395000882780F909C084369105B9F3ECCF8091AE
:10396000820383FB882780F991E089270895CF920D
:10397000DF92EF92FF921F93CF93DF93EC016B01E5
:103980008091820380FD0AC011E0812FDF91CF91E9
:103990001F91FF90EF90DF90CF9008950E94332DFC
:1039A0007C01F6011281112329F180910A0182FF25
:1039B00006C040E0B70190E080E00E94EA1B82E090
:1039C0000E94C12ACB31FCE5DF0759F0CC314CE530
:1039D000D40769F0CA315CE5D50761F40E94741C14
:1039E000D4CF80910A01816080930A01CECF0E94DA
:1039F0007F1CCBCFB601CE010E948C1C882321F204
:103A0000F6011281112309F44EC080910A0180FF52
:103A1000BBCF8091820381FF15C08091820385FD19
:103A200016C0D093E701C093E601F092E901E0925D
:103A3000E80180910A01846080930A0182E00E947B
:103A4000882B2FC00E94A42A882339F39DCF209170
:103A5000E8013091E901A701421B530B9A0186FD51
:103A600004C080910A0181FDDCCF283C3105C8F6F5
:103A70008091E6019091E701C817D90791F68091EE
:103A80000A0181FB112710F981FD04C08C2F0E94CF
:103A9000001F7BCF82E00E94BB2A8091E6010E943A
:103AA000001F10E072CF40E0B701CE010E94EA1B78
:103AB0006CCF9093EF018093EE010895E091EE01B9
:103AC000F091EF01309721F00190F081E02D099401
:103AD00080E00895E091EE01F091EF01309721F040
:103AE0000280F381E02D09940895DC01E091EE015C
:103AF000F091EF01309739F082E08C930480F581EA
:103B0000E02DCD01099408952091EC013091ED0153
:103B10002817390771F09093ED018093EC01E09143
:103B2000EE01F091EF01309721F00680F781E02D52
:103B3000099408952091EA013091EB012817390783
:103B400071F09093EB018093EA01E091EE01F09126
:103B5000EF01309721F00084F185E02D099408955C
:103B60000E943F2D6093FD017093FE018093FF0141
:103B7000909300026093F9017093FA018093FB0126
:103B80009093FC010895089508950C94C31D089521
:103B90000C94C71D84EA9BE20E94B62D0E945B1024
:103BA0000E94C0150E94C41D0C94C51D81E008959B
:103BB0000C94D61D089508950E94DA1D0C94DB1D07
:103BC0000E942A2D0E9405090E94E20C0C94C81D37
:103BD0008F929F92AF92BF92CF92DF92EF92FF921D
:103BE0000F931F93CF93DF9300D000D00F92CDB7E8
:103BF000DEB70E94430981110E94B01D51EF852E4E
:103C000051E0952E10E000E0A02E802F0E94DA08EF
:103C10007C01F401C190D1904F01C816D90609F476
:103C20005BC080916F0281FD0E94E308C6018E2572
:103C30009F25B12CCC24C394D12C9C012C213D2157
:103C4000232B09F443C00E94D81D8823A9F0B98210
:103C5000AA82EC20FD2081E0EF2809F480E08B832C
:103C60000E94332D8160782F9D838C8349815A81F6
:103C70006B81892F0E94A31E000F111FF801EF50C6
:103C8000FE4F808191818C259D25918380830E94A8
:103C9000670B0E945E1D9091F0018917A1F10E94AF
:103CA0005E1D8093F0010F900F900F900F900F907A
:103CB000DF91CF911F910F91FF90EF90DF90CF9008
:103CC000BF90AF909F908F900C946206B394CC0CF1
:103CD000DD1CFAE0BF12B1CF0F5F1F4F043011059A
:103CE00009F092CF8FEF89838A831B820E94332D44
:103CF0008160782F9D838C8349815A816B81892FC4
:103D00000E94A31EC4CF0F900F900F900F900F90A2
:103D1000DF91CF911F910F91FF90EF90DF90CF90A7
:103D2000BF90AF909F908F9008959C012115310511
:103D300009F408958FE99FE00197F1F700C00000B2
:103D400021503109F3CFCF92DF92FF920F931F934F
:103D5000CF93DF93CDB7DEB72B970FB6F894DEBFC6
:103D60000FBECDBF142F052FF62E7A878B87262FF7
:103D7000CA84DB84C114D10421F0842F85238F3FB2
:103D800081F521110E94C92A1E8219830A83FB82B0
:103D9000DD82CC828091690390916A03892B61F066
:103DA0000E94622A882319F082E00E94882B0E94D8
:103DB0003D2A81110E94112B49815A816B817C819E
:103DC0008D819E812B960FB6F894DEBF0FBECDBFBE
:103DD000DF91CF911F910F91FF90DF90CF900C94C6
:103DE0005A26809102029091030201969093030259
:103DF00080930202C6CFFC01808191810C94F0294E
:103E0000CF93C82F882309F446C08CEF8C0F813ADA
:103E1000A0F46C2F80910D0190910E010E946A2CEC
:103E2000882329F08C2F0E942D2A0E941F2B8C2F73
:103E30000E94262ACF910C941F2B80E28C0F883091
:103E400048F4C77081E001C0880FCA95EAF70E9464
:103E5000A72AF0CF8BE58C0F833038F42C2F245217
:103E6000330BC901CF910C94841DE8E5EC0FE731C9
:103E700050F4F0E0EE0FFF1FED59FE4F808191816D
:103E8000CF910C949A1DC03F30F08C2F0E94860A6F
:103E9000CF910C944D0BCF910895882361F19CEF45
:103EA000980F913A20F40E942D2A0C941F2B90E237
:103EB000980F983050F4877091E001C0990F8A955F
:103EC000EAF7892F0E94AD2AF0CF9BE5980F933037
:103ED00020F490E080E00C94841D98E5980F9731D1
:103EE00020F490E080E00C949A1D803F20F00E9426
:103EF000D80A0C944D0B08951F93CF93DF93182F7E
:103F0000EB010E94001F209731F4812FDF91CF91A8
:103F10001F910C944D1F8FE99FE00197F1F700C0AE
:103F200000002197F0CF6091870370918803893357
:103F300021F060918503709186030C947C1F882387
:103F400021F00E94A72A0C941F2B0895882321F0AA
:103F50000E94AD2A0C941F2B0895882321F00E9403
:103F6000BB2A0C941F2B0895882321F00E94C12A9C
:103F70000C941F2B089590E080E00E94841D90E037
:103F800080E00E949A1D0E94C92A0E94DA2A0E949B
:103F90001F2B0E94820C0C944D0B0E94342A0C940F
:103FA000BB1F0E94B52A0C94CD1F282F892F829504
:103FB0008F70903C80F48A30B0F4843020F48230EA
:103FC00090F480E008958630E1F781E0283E88F0A3
:103FD000213FB9F70EC08C3011F08F3091F793FB71
:103FE000882780F9089581E0203F39F018F4283EB1
:103FF00040F70895243F29F7FCCF08950E94F02947
:104000000C94D51F6F927F928F929F92AF92BF9226
:10401000CF92DF92EF92FF920F931F93CF93DF9394
:1040200000D000D000D0CDB7DEB78C016D837E8389
:10403000FC01E280F580F2943FE0F3220E947C2AAA
:10404000C82E8823A1F0CE2CEE2089F08E81807FAF
:10405000803429F08D81805EC12C883040F082E070
:104060000E94882B0E947C2A91E0C82EC926AE802F
:10407000A2942FE0A222B12CF501EE51FA4C0C943F
:104080000835FE81FF70DF2E8E81807F19F0D2947B
:1040900090EFD922EE20B1F0DD2061F08D81805EBD
:1040A000883018F06D80611009C08D2D0E94A72AFC
:1040B0000E941F2B8D810E94001F15C08D2D0E9414
:1040C000BB2AF6CF8D810E944D1FDD2061F08D81CE
:1040D000805E883018F07D80711042C08D2D0E9466
:1040E000AD2A0E941F2BF8E0AF1AB10834E0A316E6
:1040F000B10420F40E945E1D0E9462068D819E81A3
:104100000E94D51F811157C2109203021092020221
:10411000CC2009F471C20E945E2A80FD6DC2F801B4
:1041200012820E94582A0E943A28C8010E9428231D
:104130000E94582A26960FB6F894DEBF0FBECDBF58
:10414000DF91CF911F910F91FF90EF90DF90CF9073
:10415000BF90AF909F908F907F906F900C946B2842
:104160008D2D0E94C12ABDCF3E813F70D32E8E81FE
:10417000807F803219F0D29480EFD8226D80662043
:10418000F1F0362D313009F457C0EE2009F460C04B
:10419000FF2099F120E0F801408151816281738113
:1041A00084810E940C04B8010E94C316811182CF41
:1041B000F801858180FF7ECF8F7085831EC0EE2041
:1041C000F1F0F11006C00E94DD2A8D290E949F1F88
:1041D0008ACF81E0F81206C00E94DD2A8D290E9454
:1041E000F92A81CF80918303823068F38F11EBCF5E
:1041F0000E94112B8D2D0E94E32A8D2DE7CFF11007
:1042000006C00E94112B8D2D0E94A61F6CCF80919D
:10421000830391E0F9120BC0823008F464CF0E944E
:10422000A42A8D2109F45FCF0E94EC2AEACF8230C4
:1042300040F3F812E6CF57CFEE2029F0E5E0EF1576
:1042400008F451CFDACFF4E0FF1508F44CCFDBCF00
:10425000FF20C9F2FD81F93309F095C180918703F0
:10426000909188030E94951E8D810E944D1F3BCF27
:104270008E8186958695837069F0813009F033CF01
:104280008D819E819370E11002C090E080E00E94D9
:104290009A1D29CF8D819E819370E11002C090E01C
:1042A00080E00E94841D1FCF8D81EE2039F00E9496
:1042B000860A0E944D0B0E944D0B15CF0E94D80A12
:1042C000FACF8E81837009F058C0E1100CCF2D8198
:1042D000229526952770220F220F8D818F7090E0F6
:1042E000B0E0A0E0022E04C0880F991FAA1FBB1FD8
:1042F0000A94D2F76D8040E050E0BA0164FE0FC02E
:104300004FE050E060E070E004C0440F551F661FAE
:10431000771F2A95D2F740955095609570952E811C
:104320002695269523703A014B01682A792A8A2A14
:104330009B2A69827A828B829C82223081F0233090
:10434000A9F0213029F0C401B3010E94B027CBCEDF
:1043500069817A818B819C810E948827C4CE698182
:104360007A818B819C810E94D827BDCE69817A8118
:104370008B819C810E948627B6CEEE2009F444C032
:104380007E8070FEB0CE2D81229526952770220F5B
:10439000220F8D818F7090E0B0E0A0E0022E04C06B
:1043A000880F991FAA1FBB1F0A94D2F79D8040E077
:1043B00050E0BA0194FE0FC04FE050E060E070E0C2
:1043C00004C0440F551F661F771F2A95D2F74095EA
:1043D0005095609570952E812695269523703A010B
:1043E0004B01682A792A8A2A9B2A69827A828B82DF
:1043F0009C822230A1F02330C9F0213049F0C40161
:10440000B3010E94F9286FCE8E8081FE6CCEBBCFA7
:1044100069817A818B819C810E94D12864CE6981D7
:104420007A818B819C810E9421295DCE69817A816C
:104430008B819C810E94042856CE3E813F70D32EF2
:10444000EE2029F0832F0E943A288D81BFCE8D81E6
:104450000E94A61F8D2D0E946B2845CE8D81823F24
:1044600009F442C060F4803F39F1813FA9F1EE20A8
:1044700009F483C0F1101ECE8E818F7132C09D81F0
:10448000933FB9F1943F99F780918303823008F408
:104490005DC0EE2009F446C00E943A2A0E94AD2A6F
:1044A0000E945E2A843079F50E947F2B8E818F7165
:1044B0000E946B28C12C17CEEE2049F0E4E0EF15E6
:1044C00008F411CE8E818F710E94A0280CCEF5E0E9
:1044D000FF1508F408CEF6CF8E818F71EE2009F417
:1044E000BACF0E943A28FFCD8E818F71EE20C9F39A
:1044F000B2CFEE2029F08E818F710E941528F3CD66
:104500000E941028F0CD80918303F81698F63E8122
:104510003F71D32E832F0E943A2863E08D2D0E9495
:10452000622BC8CF0E943A2A0E94A72A8091830357
:10453000F81640F00E947F2B0E94EC2A64E08E81E6
:104540008F71EDCF81E00E94882BB4CFEE2051F027
:104550008E818F71D82E0E943A2863E08D2D0E94A3
:10456000622BC1CD81E00E94882B91E09F1508F05D
:10457000BACD82E00E94882BB6CDFF2049F0ED81B4
:10458000E93309F46BCE80918503909186036ACE5E
:104590008E818F7160CF4E814F706D81C8010E94F6
:1045A0006A060E94F8269FCD4E814F706D81C8012A
:1045B0000E946D0698CDEE2019F0F110A5CDA8CD82
:1045C000F110A2CD20E0F801408151816281738118
:1045D00084810E940C04B8010E94CE16882309F43D
:1045E00093CD8091020290910302029709F08CCD45
:1045F0008D810E94931F88CD26960FB6F894DEBF5A
:104600000FBECDBFDF91CF911F910F91FF90EF9023
:10461000DF90CF90BF90AF909F908F907F906F90E2
:1046200008950F931F93CF93DF93EC0168817981F5
:104630008A810E94FC298C010E9449290E948527B9
:10464000B801CE01DF91CF911F910F910C94022000
:10465000CF93DF93EC01988189812B813C81232BBF
:1046600019F089238F3F59F4DF91CF910895CE013E
:104670000E941123CE01DF91CF910C944804CE010A
:104680000E9473058111F3CF0E947C2A882361F375
:104690008A81882349F382E0DF91CF910C94882BA3
:1046A000CF93DF9300D000D00F92CDB7DEB70F903D
:1046B0000F900F900F900F90DF91CF910895CF93AF
:1046C000DF9300D000D000D0CDB7DEB726960FB66E
:1046D000F894DEBF0FBECDBFDF91CF910895CF9389
:1046E000DF93C0910402809105028C1303C0DF9117
:1046F000CF910895D0E0CE0166E070E00E94CF3403
:10470000FC01EA5FFD4F40815181628173818481A8
:1047100095810E945F232196C770E5CF40913602B4
:1047200050913702609138027091390280913A02BB
:1047300090913B020C945F230F931F93CF93DF93D1
:1047400080913B02807F31F480913802C091040255
:10475000811116C0DF91CF911F910F910895209183
:10476000360230913702A0913902B0913A02D0E07E
:10477000109721F0832F82238F3F39F42196C77041
:10478000809105028C13EBCFE5CFCE0166E070E09F
:104790000E94CF34FC01EA5FFD4F81813813EECFD8
:1047A00040814213EBCF82818111E8CF03811481D4
:1047B0000A1B1B0B20E0532F6091380270913902C5
:1047C00080913A020E940C0466E372E00E94BA16DD
:1047D0000817190798F680913B028F7080618093CB
:1047E0003B02CE0166E070E00E94CF34FC01E55F41
:1047F000FD4F90819F709061908386E392E00E94CC
:104800002823DF91CF911F910F910C946F236F920A
:104810007F928F929F92AF92BF92CF92DF92EF9250
:10482000FF920F931F93CF93DF93CDB7DEB72B97F4
:104830000FB6F894DEBF0FBECDBF8C0185E0F80146
:10484000DE01179601900D928A95E1F7D801129634
:10485000EC9012976C9011967C9011971396CD90D6
:10486000DC9086E3A82E82E0B82E4091360250916B
:1048700037028091390290913A02009729F0242F53
:1048800025232F3F09F0ABC1EE2009F4ADC08F8185
:1048900098850E94FE1FF82E882309F4A5C086E0A3
:1048A000F801A6E3B2E001900D928A95E1F786E364
:1048B00092E00E94FB1E0E949C2368C120E0409170
:1048C000360250913702609138027091390280911E
:1048D0003A020E940C04B8010E94BF168111C2C1A5
:1048E000CD2829F0872D86218F3F09F001C180E076
:1048F000282F2170D22E209104024091050280FDC4
:104900001FC0EE2009F419C180913B0281608093A1
:104910003B02F12C12C130E0C90166E070E00E9458
:10492000CF34FC01EA5FFD4F8181781206C080819F
:10493000681203C082818E11E4CF2F5F3F4F277032
:104940002413E9CF8F8198850E94F029292F229581
:104950002F70903268F0225F2F70223080F49F70A9
:1049600059F0D80115969C91907F31F4D12C0AC052
:104970009F7011F08823D1F3805E8830B8F3C801AE
:104980000E942823FD2CD9C0452B29F0382F322333
:104990003F3F09F0E8C08F8198850E94FE1F882361
:1049A00019F1EE2009F180913B02803270F02091E4
:1049B0003602309137023A8329831B82DD82CC8212
:1049C0008E83CE0101960E94282386E0F801A6E39B
:1049D000B2E001900D928A95E1F70E949C230E941B
:1049E0008E23FF24F394A9C0C8010E942823F9CF85
:1049F000892F807F99F44F81588569857A858B85C9
:104A00000E94502386E392E00E94282386E0D5018D
:104A10001D928A95E9F70E948E237BCF8091360202
:104A2000209137024091390250913A02452B09F406
:104A3000B2CF322F38233F3F09F4ADCF7212ABCF44
:104A40006812A9CFE110A7CFF8019583C8010E9491
:104A50002823E6E3F2E086E0DF011D928A95E9F77C
:104A60006CC020E060E07091390280913A020E94AF
:104A70000C0466E372E00E94BA168816990658F58F
:104A8000FE2CEE2009F4B0CF8091360290913702CF
:104A90002091390230913A02232B29F0282F292323
:104AA0002F3F09F076C08F8198850E94FE1F8111EB
:104AB0008CCF80913B02816080933B02C8010E94B1
:104AC00028233BC086E0F801A6E3B2E001900D92F6
:104AD0008A95E1F732C04F81588569857A858B8543
:104AE0000E94502386E0D5011D928A95E9F74EC0B9
:104AF00081E08E25FDCE86E392E00E94282386E0A9
:104B0000E6E3F2E0DF0184CF81E08E25B4C07212CB
:104B100095C0681293C0E11091C080913B028F70E4
:104B2000806180933B020E948E2386E392E00E9484
:104B3000282380913B02F80185838F2D2B960FB699
:104B4000F894DEBF0FBECDBFDF91CF911F910F91C3
:104B5000FF90EF90DF90CF90BF90AF909F908F909D
:104B60007F906F900895721216CF861114CFE110C6
:104B700012CFF8019583C8010E94282386E0F8012E
:104B8000A6E3B2E001900D928A95E1F70E948E2390
:104B9000D4CF791288CF681286CF20E0A30160912C
:104BA00038027091390280913A020E940C04B801D7
:104BB0000E94C816811186CF80913B0280FD82CF72
:104BC000982F907F09F47ECFF8018583903F99F26A
:104BD000982F907F905F8F70892B8583CCCFF0903A
:104BE00038024601881A990AFF2009F43ACF20E0DA
:104BF0006F2D7091390280913A020E940C0466E395
:104C000072E00E94BA169C0190913B0282169306B4
:104C100008F0EECE809136022091370240913902A1
:104C200050913A02392F307F09F0AECEFE2C452B41
:104C300029F0982F92239F3F09F069CF20E04091FF
:104C4000360250913702609138027091390280919A
:104C50003A020E940C04B8010E94BA16843F9140A7
:104C600008F42CCEC114D10429F0872D86218F3F62
:104C700009F04ACF80E0209104024091050280FFB4
:104C80002FCE241709F42CCE30E0C90166E070E085
:104C90000E94CF34FC01EA5FFD4F8181781206C08B
:104CA0008081681203C082818E1125CF2F5F3F4F14
:104CB0002770E7CFCF93DF93CDB7DEB72C970FB632
:104CC000F894DEBF0FBECDBF4F83588769877A87C0
:104CD0008B879C87CE0107960E9407248823D1F0FA
:104CE0008A859B85892B39F058854F81852F8423B0
:104CF0008F3F09F076C080910402909105028913DC
:104D000049C02C960FB6F894DEBF0FBECDBFDF9121
:104D1000CF91089586E0FE013796DE01119601904D
:104D20000D928A95E1F79F81288580910502409137
:104D300004026A857B85672BF1F292239F3FD9F2AB
:104D400090E09C012F5F3F4F2770332742171306D7
:104D500071F40E94D11F109205021092040286E0A5
:104D6000E6E3F2E0DF011D928A95E9F7C4CF66E041
:104D700070E00E94CF34DC01AA5FBD4F86E0FE01E7
:104D8000319601900D928A95E1F7209305020E94D9
:104D90006F23B1CF90E066E070E00E94CF348A5F6D
:104DA0009D4F0E940724882309F4ABCF8091040211
:104DB00090E066E070E00E94CF34FC01EA5FFD4FB6
:104DC0004081518162817381848195810E945F233A
:104DD0008091040290E001968770992780930402E5
:104DE0008ACF69857A858B859C850E945F2383CFD6
:104DF000EF92FF920F931F93CF93DF938C01892B38
:104E000089F0F12CEE24E394E8012196F8018491D5
:104E1000843709F458C0A0F4823009F43FC048F444
:104E20008130D1F0DF91CF911F910F91FF90EF90E2
:104E300008959CEF980F9037A8F70E94001F0AC0B2
:104E4000853709F44EC09CE7980F903758F78F7755
:104E50000E944D1F8E0116C00E5F1F4FFE018491F0
:104E600090E2980F983060F48770FE2D01C0FF0F1C
:104E70008A95EAF78F2F0E94CC2A0E941F2B02C02E
:104E80000E94001F8F2D882309F4BECFEFE9FFE0B9
:104E90003197F1F700C000008150F5CF0E5F1F4F32
:104EA000FE01849190E2980F983050F48770FE2DA7
:104EB00001C0FF0F8A95EAF78F2F0E94D22ADDCF1B
:104EC0000E944D1FDFCF0E5F1F4FFE01C491CC2308
:104ED000C9F28FE99FE00197F1F700C00000C150CF
:104EE000F6CF0E5F1F4FFE01F490CCCF08950C94C7
:104EF00076270E9477276093590270935A02809315
:104F00005B0290935C020C94BB1F08950C9479276C
:104F1000CF93DF9300D000D0CDB7DEB769837A831B
:104F20008B839C838091590290915A02A0915B02DD
:104F3000B0915C0229813A814B815C81282B392B0D
:104F40004A2B5B2B29833A834B835C83CA01B901CB
:104F50000F900F900F900F90DF91CF910C947927C5
:104F6000CF93DF9300D000D0CDB7DEB769837A83CB
:104F70008B839C838091590290915A02A0915B028D
:104F8000B0915C0229813A814B815C8128233923CD
:104F90004A235B2329833A834B835C83CA01B9018B
:104FA0000F900F900F900F90DF91CF910C94792775
:104FB000CF93DF9300D000D0CDB7DEB769837A837B
:104FC0008B839C838091590290915A02A0915B023D
:104FD000B0915C0229813A814B815C812827392775
:104FE0004A275B2729833A834B835C83CA01B90133
:104FF0000F900F900F900F90DF91CF910C94792725
:105000000C9476270C9400280E9402286093550285
:105010007093560280935702909358020C94BB1FD2
:1050200060E070E0CB010C9404280F931F93CF93A2
:10503000DF9300D000D0CDB7DEB741E050E060E0B4
:1050400070E08A019B0104C0000F111F221F331F53
:105050008A95D2F709831A832B833C83C901B8014F
:105060000F900F900F900F90DF91CF911F910F91A4
:105070000C9404280F931F93CF93DF9300D000D09C
:10508000CDB7DEB741E050E060E070E004C0440F0F
:10509000551F661F771F8A95D2F780915502909110
:1050A0005602A0915702B09158028A019B01082B29
:1050B000192B2A2B3B2B09831A832B833C83C90191
:1050C000B8010F900F900F900F90DF91CF911F912B
:1050D0000F910C9404280F931F93CF93DF9300D06C
:1050E00000D0CDB7DEB741E050E060E070E004C032
:1050F000440F551F661F771F8A95D2F7409550952C
:10510000609570958091550290915602A09157023A
:10511000B09158028A019B01082319232A233B23BB
:1051200009831A832B833C83C901B8010F900F9028
:105130000F900F90DF91CF911F910F910C94042845
:105140000F931F93CF93DF9300D000D0CDB7DEB77E
:1051500041E050E060E070E004C0440F551F661F5E
:10516000771F8A95D2F78091550290915602A091AF
:105170005702B09158028A019B01082719272A2754
:105180003B2709831A832B833C83C901B8010F9005
:105190000F900F900F90DF91CF911F910F910C9472
:1051A0000428CF93DF9300D000D0CDB7DEB769835A
:1051B0007A838B839C838091550290915602A091B3
:1051C0005702B091580229813A814B815C81282B8A
:1051D000392B4A2B5B2B29833A834B835C83CA018F
:1051E000B9010F900F900F900F90DF91CF910C9419
:1051F0000428CF93DF9300D000D0CDB7DEB769830A
:105200007A838B839C838091550290915602A09162
:105210005702B091580229813A814B815C81282341
:1052200039234A235B2329833A834B835C83CA0156
:10523000B9010F900F900F900F90DF91CF910C94C8
:105240000428CF93DF9300D000D0CDB7DEB76983B9
:105250007A838B839C838091550290915602A09112
:105260005702B091580229813A814B815C812827ED
:1052700039274A275B2729833A834B835C83CA01FA
:10528000B9010F900F900F900F90DF91CF910C9478
:1052900004280895382F892F262F9E3F71F16AE048
:1052A0000E94C634830F982F977041E001C0440FCD
:1052B0009A95EAF786958695869590E065E070E088
:1052C0000E94CF34FC01E45CFD4F90E080E0622F4F
:1052D00070E05191DF0111979B01082E02C03695B5
:1052E00027950A94E2F72170219525272423252765
:1052F0002C9301968530910561F70895282F892F09
:105300009E3F51F16AE00E94C634820FA82FA77019
:1053100086958695869590E065E070E00E94CF3492
:10532000FC01E45CFD4F50E040E080E0219130E082
:105330000A2E02C0369527950A94E2F7217033278A
:10534000042E01C0220F0A94EAF7822B4F5F5F4FB1
:105350004530510559F7089580E00895BF92CF92E6
:10536000DF92EF92FF920F931F93CF93DF938C0105
:10537000C0905502D0905602E0905702F09058022B
:105380008091590290915A02A0915B02B0915C0207
:10539000C82AD92AEA2AFB2ACFE1D0E0BC2ED701BD
:1053A000C6010C2E04C0B695A795979587950A94CB
:1053B000D2F780FD0EC0219788F7B12C8B2DDF919D
:1053C000CF911F910F91FF90EF90DF90CF90BF9002
:1053D0000895B8018C2F0E947606019761F3EECFF5
:1053E000CF93DF93D82FC92F0E94AE296D2F7C2F2A
:1053F000DF91CF910C9476061F93CF93DF93162FF6
:10540000D72F90910102992339F0862F972FDF91A2
:10541000CF911F910C94F029882391F0862F972F1C
:105420000E94AE29C82F682F812F9D2F0E944A29E4
:10543000612F7D2F8C2FDF91CF911F910C947606D9
:10544000862F972F0E947E29C82FF2CF682F809138
:105450000D0190910E010C94A42C682F80910D01E8
:1054600090910E010C94A62C80910D0190910E014B
:105470000C94A82C80916202089580916903909108
:105480006A03892B91F00E94332D209160023091A4
:105490006102AC01421B530B9A0181E04091690308
:1054A00050916A032417350708F480E0817008954D
:1054B00080915F02859585958595089580915F021D
:1054C000877008950E94332D20915D0230915E0215
:1054D000821B930B2091690330916A038217930713
:1054E00048F080915F0282FB882780F991E089274C
:1054F0008170089580E0FCCF90915F02977081E009
:1055000009F480E0089590917C0292FB222720F913
:10551000281751F080FB92F990937C0280917B02D6
:1055200090917C020C94CD2B089580917C0282FB9B
:10553000882780F991E089270C94832A81E00C94D4
:10554000832A80E00C94832A80916E0208959091C2
:105550006E02982B90936E020895982F90958091EB
:105560006E02892380936E02089510926E02089550
:1055700080916D02089590916D02982B90936D0229
:105580000895982F909580916D02892380936D02E4
:10559000089510926D02089590916C02982B90934B
:1055A0006C020895982F909580916C0289238093C6
:1055B0006C02089510926C02089580916302089520
:1055C00008950C94E02A90916202981721F080933C
:1055D00062020C94E12A089580916202882329F0E6
:1055E0001092620280E00C94E12A089508950C94D0
:1055F000F62ACF93C82F80917C0282FD10C0809143
:1056000063028C1761F00E94332D909361028093A6
:105610006002C09363028C2FCF910C94F72ACF9134
:10562000089580916302882349F0109263021092DA
:1056300061021092600280E00C94F72A0895E091D4
:105640000D01F0910E0180916E028083E0910D01B9
:10565000F0910E01808190916D02892B8083E09101
:105660000D01F0910E01808190916C02892B808355
:10567000809163028823E9F08091690390916A0325
:10568000892B29F00E943D2A81110E94112BE09163
:105690000D01F0910E01808190916302892B80832E
:1056A00080910D0190910E010E94582C81110E9451
:1056B000112B80910D0190910E010C946A1D08959B
:1056C0000C945F2B962F20917C0222FD16C0682F30
:1056D000660F660F660F692B60935F020E943A287F
:1056E0000E94332D90935E0280935D0280915F0251
:1056F0008595859585950C94602B0C943A2810928D
:105700005F0210925E0210925D0280E00C94602BAA
:1057100090915F028095892380935F02282F2770E4
:1057200039F4282F082E000C330B9217130621F49E
:1057300090917C0292FF07C08595859585950E9482
:105740006B280C947F2B089580E008956FEF7FEF16
:1057500090E080E00C946A3590E080E00E9446354D
:105760009C0181E02A3E3E4F09F080E0089582E0EE
:1057700090E00C943E3583E090E00C943E35CF935E
:1057800084E090E00E943E35C82F82E290E00E94C3
:105790003E35982F8C2FCF910895CF93682FC92F26
:1057A00084E090E00E944C356C2F82E290E0CF9133
:1057B0000C944C35AB01BC018FE090E00C945E354D
:1057C000AB01BC0183E190E00C945E3560E070E0D9
:1057D000CB010C94E02B60E070E0CB010E94DA2B4F
:1057E0000C94E62B6AEE7EEF90E080E00E946A3532
:1057F00060E082E090E00E944C3560E083E090E061
:105800000E944C351092590210925A0210925B027B
:1058100010925C0260E084E090E00E944C3560E011
:1058200082E290E00E944C3560E085E090E00E94CA
:105830004C3560E086E090E00E944C356FEF87E0E9
:1058400090E00E944C3540E050E0BA0188E090E0E2
:105850000E945E3560E08DE090E00E944C3540E0B3
:1058600050E0BA0188E190E00E945E3560E087E197
:1058700090E00E944C3540E050E0BA018CE190E0AD
:105880000E945E3570E060E080E290E00E946A3540
:1058900040E050E0BA0188E190E00E945E350C944F
:1058A000EB2B0C94F22B682F8EE090E00C944C358F
:1058B000AC019C012E5F3F4F485F5F4F80E0241793
:1058C000350709F40895F90191919F019923B9F3DE
:1058D0008F5FF5CF9C01662351F0FC013296285F63
:1058E0003F4F8191861729F0E217F307D1F780E047
:1058F000089581E008959C01FC0132968FEF90E0BD
:105900004191461751F08F3F19F4411101C0892F81
:105910009F5F9630A9F78F3F09F40895280F311D36
:1059200087FD3A95F901628308959C01FC01329646
:10593000285F3F4F8191861303C0DF0111971C92AE
:10594000E217F307B9F708950C947B2C0C94952C6F
:10595000FC01329686E0DF011D928A95E9F70895F1
:10596000089508950C94B12C80919103843049F1ED
:105970000E94B22C80E00E9462061092700288E1C0
:1059800090E020E40FB6F894A895809360000FBED5
:105990002093600083B7817F846083BF83B7816079
:1059A00083BF7894889583B78E7F83BF0FB6F894B2
:1059B000A8958091600088618093600010926000DB
:1059C0000FBE08950895CF930E94B02C0E94430902
:1059D0000E94E22CC0E08C2F0E94DA08892B31F45F
:1059E000CF5FC430C1F780E0CF91089581E0FCCF54
:1059F00008950C94F82C0E94D11F0E945E1D0E94F5
:105A000062060C94F92C1F921FB61F9211248F93DB
:105A10009F93AF93BF9380917002811113C08091C7
:105A2000890390918A03A0918B03B0918C034196D6
:105A3000A11DB11D8093890390938A03A0938B03CA
:105A4000B0938C03BF91AF919F918F911F901FBE18
:105A50001F90189582E084BD93E095BD9AEF97BDA5
:105A600080936E0008952FB7F894809189039091E8
:105A70008A03A0918B03B0918C032FBF0895CF931D
:105A8000DF9300D000D0CDB7DEB78FB7F894209168
:105A9000890330918A0340918B0350918C032983B1
:105AA0003A834B835C838FBF69817A818B819C8130
:105AB0000F900F900F900F90DF91CF9108959C0160
:105AC0004FB7F8948091890390918A03A0918B033A
:105AD000B0918C034FBF821B930B089578941F9253
